{"abi":[{"type":"constructor","inputs":[{"name":"trustedForwarder_","type":"address","internalType":"address"}],"stateMutability":"nonpayable"},{"type":"function","name":"ETHER","inputs":[],"outputs":[{"name":"","type":"address","internalType":"address"}],"stateMutability":"view"},{"type":"function","name":"activate","inputs":[],"outputs":[],"stateMutability":"nonpayable"},{"type":"function","name":"claim","inputs":[{"name":"_paymentId","type":"bytes32","internalType":"bytes32"},{"name":"_amount","type":"uint256","internalType":"uint256"}],"outputs":[],"stateMutability":"nonpayable"},{"type":"function","name":"close","inputs":[],"outputs":[],"stateMutability":"nonpayable"},{"type":"function","name":"emergencyRelease","inputs":[{"name":"_paymentId","type":"bytes32","internalType":"bytes32"},{"name":"_receiver","type":"address","internalType":"address"}],"outputs":[],"stateMutability":"nonpayable"},{"type":"function","name":"factory","inputs":[],"outputs":[{"name":"","type":"address","internalType":"address"}],"stateMutability":"view"},{"type":"function","name":"getPayment","inputs":[{"name":"paymentId","type":"bytes32","internalType":"bytes32"}],"outputs":[{"name":"_token","type":"address","internalType":"address"},{"name":"_amount","type":"uint256","internalType":"uint256"},{"name":"_payer","type":"address","internalType":"address"},{"name":"_released","type":"bool","internalType":"bool"},{"name":"_revoked","type":"bool","internalType":"bool"},{"name":"_refunded","type":"bool","internalType":"bool"},{"name":"_createdAt","type":"uint256","internalType":"uint256"},{"name":"_memo","type":"string","internalType":"string"}],"stateMutability":"view"},{"type":"function","name":"initialize","inputs":[{"name":"_paymentTokens","type":"address[]","internalType":"address[]"},{"name":"_owner","type":"address","internalType":"address"},{"name":"_receiver","type":"address","internalType":"address"},{"name":"_offChainSlug","type":"string","internalType":"string"}],"outputs":[],"stateMutability":"nonpayable"},{"type":"function","name":"isTrustedForwarder","inputs":[{"name":"forwarder","type":"address","internalType":"address"}],"outputs":[{"name":"","type":"bool","internalType":"bool"}],"stateMutability":"view"},{"type":"function","name":"offChainSlug","inputs":[],"outputs":[{"name":"","type":"string","internalType":"string"}],"stateMutability":"view"},{"type":"function","name":"owner","inputs":[],"outputs":[{"name":"","type":"address","internalType":"address"}],"stateMutability":"view"},{"type":"function","name":"payWithERC20","inputs":[{"name":"_token","type":"address","internalType":"address"},{"name":"_amount","type":"uint256","internalType":"uint256"},{"name":"_data","type":"bytes","internalType":"bytes"}],"outputs":[{"name":"_paymentId","type":"bytes32","internalType":"bytes32"}],"stateMutability":"nonpayable"},{"type":"function","name":"payWithNative","inputs":[{"name":"_amount","type":"uint256","internalType":"uint256"},{"name":"_data","type":"bytes","internalType":"bytes"}],"outputs":[{"name":"_paymentId","type":"bytes32","internalType":"bytes32"}],"stateMutability":"payable"},{"type":"function","name":"paymentIdFromOffChainReference","inputs":[{"name":"","type":"string","internalType":"string"}],"outputs":[{"name":"","type":"bytes32","internalType":"bytes32"}],"stateMutability":"view"},{"type":"function","name":"paymentOffChainReference","inputs":[{"name":"","type":"bytes32","internalType":"bytes32"}],"outputs":[{"name":"","type":"string","internalType":"string"}],"stateMutability":"view"},{"type":"function","name":"paymentTokens","inputs":[{"name":"","type":"uint256","internalType":"uint256"}],"outputs":[{"name":"","type":"address","internalType":"address"}],"stateMutability":"view"},{"type":"function","name":"paymentTokensLength","inputs":[],"outputs":[{"name":"","type":"uint256","internalType":"uint256"}],"stateMutability":"view"},{"type":"function","name":"receiver","inputs":[],"outputs":[{"name":"","type":"address","internalType":"address"}],"stateMutability":"view"},{"type":"function","name":"refundPayment","inputs":[{"name":"_paymentId","type":"bytes32","internalType":"bytes32"}],"outputs":[],"stateMutability":"nonpayable"},{"type":"function","name":"releasePayment","inputs":[{"name":"_paymentId","type":"bytes32","internalType":"bytes32"}],"outputs":[],"stateMutability":"nonpayable"},{"type":"function","name":"renounceOwnership","inputs":[],"outputs":[],"stateMutability":"nonpayable"},{"type":"function","name":"revokePayment","inputs":[{"name":"_paymentId","type":"bytes32","internalType":"bytes32"}],"outputs":[],"stateMutability":"nonpayable"},{"type":"function","name":"status","inputs":[],"outputs":[{"name":"","type":"uint8","internalType":"enum IRoutaPaymentChannel.ChannelStatus"}],"stateMutability":"view"},{"type":"function","name":"transferOwnership","inputs":[{"name":"newOwner","type":"address","internalType":"address"}],"outputs":[],"stateMutability":"nonpayable"},{"type":"function","name":"trustedForwarder","inputs":[],"outputs":[{"name":"","type":"address","internalType":"address"}],"stateMutability":"view"},{"type":"event","name":"ChannelStatusChanged","inputs":[{"name":"_status","type":"uint8","indexed":false,"internalType":"enum IRoutaPaymentChannel.ChannelStatus"},{"name":"_timestamp","type":"uint256","indexed":false,"internalType":"uint256"}],"anonymous":false},{"type":"event","name":"EmergencyReleasePayment","inputs":[{"name":"_paymentId","type":"bytes32","indexed":true,"internalType":"bytes32"},{"name":"_timestamp","type":"uint256","indexed":false,"internalType":"uint256"}],"anonymous":false},{"type":"event","name":"Initialized","inputs":[{"name":"_paymentTokens","type":"address[]","indexed":false,"internalType":"address[]"},{"name":"_owner","type":"address","indexed":true,"internalType":"address"},{"name":"_receiver","type":"address","indexed":true,"internalType":"address"},{"name":"_offChainSlug","type":"string","indexed":false,"internalType":"string"},{"name":"_timestamp","type":"uint256","indexed":false,"internalType":"uint256"}],"anonymous":false},{"type":"event","name":"NewPayment","inputs":[{"name":"_paymentId","type":"bytes32","indexed":true,"internalType":"bytes32"},{"name":"_payer","type":"address","indexed":true,"internalType":"address"},{"name":"_token","type":"address","indexed":true,"internalType":"address"},{"name":"_amount","type":"uint256","indexed":false,"internalType":"uint256"},{"name":"_memo","type":"string","indexed":false,"internalType":"string"},{"name":"_timestamp","type":"uint256","indexed":false,"internalType":"uint256"}],"anonymous":false},{"type":"event","name":"OwnershipTransferred","inputs":[{"name":"previousOwner","type":"address","indexed":true,"internalType":"address"},{"name":"newOwner","type":"address","indexed":true,"internalType":"address"}],"anonymous":false},{"type":"event","name":"Payout","inputs":[{"name":"_paymentId","type":"bytes32","indexed":true,"internalType":"bytes32"},{"name":"_token","type":"address","indexed":true,"internalType":"address"},{"name":"_receiver","type":"address","indexed":true,"internalType":"address"},{"name":"_amount","type":"uint256","indexed":false,"internalType":"uint256"},{"name":"_timestamp","type":"uint256","indexed":false,"internalType":"uint256"}],"anonymous":false},{"type":"event","name":"RefundPayment","inputs":[{"name":"_paymentId","type":"bytes32","indexed":true,"internalType":"bytes32"},{"name":"_timestamp","type":"uint256","indexed":false,"internalType":"uint256"}],"anonymous":false},{"type":"event","name":"ReleasePayment","inputs":[{"name":"_paymentId","type":"bytes32","indexed":true,"internalType":"bytes32"},{"name":"_timestamp","type":"uint256","indexed":false,"internalType":"uint256"}],"anonymous":false},{"type":"event","name":"RevokePayment","inputs":[{"name":"_paymentId","type":"bytes32","indexed":true,"internalType":"bytes32"},{"name":"_timestamp","type":"uint256","indexed":false,"internalType":"uint256"}],"anonymous":false},{"type":"error","name":"AlreadyDrained","inputs":[]},{"type":"error","name":"AlreadyInitialized","inputs":[]},{"type":"error","name":"AlreadyRefunded","inputs":[]},{"type":"error","name":"AlreadyReleased","inputs":[]},{"type":"error","name":"AlreadyRevoked","inputs":[]},{"type":"error","name":"AmountIsZero","inputs":[]},{"type":"error","name":"CannotRefund","inputs":[]},{"type":"error","name":"ChannelAlreadyActive","inputs":[]},{"type":"error","name":"ChannelNotActive","inputs":[]},{"type":"error","name":"Deadline","inputs":[]},{"type":"error","name":"NotContract","inputs":[]},{"type":"error","name":"NotEnoughBalance","inputs":[]},{"type":"error","name":"NotReleased","inputs":[]},{"type":"error","name":"OnlyPayer","inputs":[]},{"type":"error","name":"OnlyTeam","inputs":[]},{"type":"error","name":"OwnableInvalidOwner","inputs":[{"name":"owner","type":"address","internalType":"address"}]},{"type":"error","name":"OwnableUnauthorizedAccount","inputs":[{"name":"account","type":"address","internalType":"address"}]},{"type":"error","name":"ReferenceAlreadyUsed","inputs":[]},{"type":"error","name":"SafeERC20FailedOperation","inputs":[{"name":"token","type":"address","internalType":"address"}]},{"type":"error","name":"TokenNotAllowed","inputs":[]},{"type":"error","name":"UsePayNative","inputs":[]},{"type":"error","name":"ZeroAddress","inputs":[]}],"bytecode":{"object":"0x60a0346100d557601f61202938819003918201601f19168301916001600160401b038311848410176100d9578084926020946040528339810103126100d557516001600160a01b03811681036100d55760805233156100c2575f8054336001600160a01b03198216811783556040519290916001600160a01b0316907f8be0079c531659141344cd1fd0a4f28419497f9722a3daafe3b4186f6b6457e09080a3611f3b90816100ee8239608051818181610a1701528181610cc30152611ed70152f35b631e4fbdf760e01b5f525f60045260245ffd5b5f80fd5b634e487b7160e01b5f52604160045260245ffdfe60806040526004361015610011575f80fd5b5f3560e01c8063011a5b27146101a45780630f15f4c01461019f578063120d75dc1461019a578063200d2ed21461019557806325a6e9d214610190578063345c31ad1461018b5780633d477b5e1461018657806342cb1fbc1461018157806343d726d61461017c578063572b6c051461017757806363f4496814610172578063715018a61461016d5780637aa1ed58146101685780637da0a87714610163578063883181741461015e5780638da5cb5b14610159578063a5ad736614610154578063c45a01551461014f578063cf5842021461014a578063d3f0950214610145578063de66084114610140578063de8f8b3f1461013b578063e66eefc814610136578063f2fde38b146101315763f7260d3e1461012c575f80fd5b61140e565b6113be565b6112b1565b61115a565b611118565b6110ae565b610fcf565b610fa7565b610f69565b610f23565b610cf2565b610cae565b610bfb565b610ba4565b610a4b565b6109f3565b610975565b610947565b61081d565b610743565b610618565b6105f1565b610517565b6103b6565b6101da565b6001600160a01b038116036101ba57565b5f80fd5b602435906101cb826101a9565b565b604435906101cb826101a9565b346101ba5760403660031901126101ba576004356024356101fa816101a9565b610202611eac565b60015460049060209061022b9061021f906001600160a01b031681565b6001600160a01b031690565b604051638da5cb5b60e01b815292839182905afa9081156103a7575f91610378575b506001600160a01b0390811691160361036957610272825f52600660205260405f2090565b600281019081546102878160ff9060a81c1690565b61035a5760b081901c60ff1661034b5760a01c60ff1661033c5780545f936001936102f4929091906001600160a01b031673eeeeeeeeeeeeeeeeeeeeeeeeeeeeeeeeeeeeeeee81036103295750838501546102e191611bd6565b805460ff60a01b1916600160a01b179055565b01556040514281527f3c9e6769825ace133b6d3d7eaf014cd488d76f6fc33d4cb612f0cd0ceee52ec29080602081015b0390a2005b610337918686015491611b10565b6102e1565b6331da482760e11b5f5260045ffd5b63542f378d60e11b5f5260045ffd5b63905e710760e01b5f5260045ffd5b637c26a7ed60e11b5f5260045ffd5b61039a915060203d6020116103a0575b6103928183610487565b810190611436565b5f61024d565b503d610388565b61144b565b5f9103126101ba57565b346101ba575f3660031901126101ba576103ce611c70565b60ff60055416600281101561043e571561042f576103f160ff1960055416600555565b7f742f3d37cfc019d913c78a26ca7ce7f15c0523eff7dfebf8dbb1ae3888deee876040518060408101610424825f6105e4565b4260208301520390a1005b631d682ccd60e01b5f5260045ffd5b634e487b7160e01b5f52602160045260245ffd5b634e487b7160e01b5f52604160045260245ffd5b61010081019081106001600160401b0382111761048257604052565b610452565b90601f801991011681019081106001600160401b0382111761048257604052565b604051906101cb61010083610487565b6001600160401b03811161048257601f01601f191660200190565b81601f820112156101ba576020813591016104ed826104b8565b926104fb6040519485610487565b828452828201116101ba57815f92602092838601378301015290565b346101ba5760803660031901126101ba576004356001600160401b0381116101ba57366023820112156101ba578060040135906001600160401b038211610482578160051b6040519261056d6020830185610487565b835260246020840191830101913683116101ba57602401905b8282106105ca57836105966101be565b9061059f6101cd565b606435926001600160401b0384116101ba576105c26105c89436906004016104d3565b926116c6565b005b6020809183356105d9816101a9565b815201910190610586565b90600282101561043e5752565b346101ba575f3660031901126101ba57602060ff6005541661061660405180926105e4565bf35b346101ba575f3660031901126101ba576020600354604051908152f35b90600182811c92168015610663575b602083101461064f57565b634e487b7160e01b5f52602260045260245ffd5b91607f1691610644565b9060405191825f82549261068084610635565b80845293600181169081156106e957506001146106a5575b506101cb92500383610487565b90505f9291925260205f20905f915b8183106106cd5750509060206101cb928201015f610698565b60209193508060019154838589010152019101909184926106b4565b9050602092506101cb94915060ff191682840152151560051b8201015f610698565b805180835260209291819084018484015e5f828201840152601f01601f1916010190565b90602061074092818152019061070b565b90565b346101ba575f3660031901126101ba576040515f60045461076381610635565b80845290600181169081156107f9575060011461079b575b6107978361078b81850382610487565b6040519182918261072f565b0390f35b60045f9081527f8a35acfbc15ff81a39ae7d344fd709f28e8600b4aa8c65c6b64bfe7fe36bd19b939250905b8082106107df5750909150810160200161078b61077b565b9192600181602092548385880101520191019092916107c7565b60ff191660208086019190915291151560051b8401909101915061078b905061077b565b346101ba5760203660031901126101ba57600435610839611eac565b61084b825f52600660205260405f2090565b600281019081546108608160ff9060a81c1690565b61035a5760b081901c60ff1661034b5760a081901c60ff1661033c576001600160a01b0390811693168390036109385780545f936001936108f1929091906001600160a01b031673eeeeeeeeeeeeeeeeeeeeeeeeeeeeeeeeeeeeeeee810361092557505080546108de906001600160a01b03165b8585015490611bd6565b805460ff60a81b1916600160a81b179055565b01556040514281527f0ac68e16746dfdb44e4ef2200cd7e5e7a9f02f5c860c552e6bec44c35d62077b908060208101610324565b610933918686015491611b10565b6108de565b6309f9fa4f60e21b5f5260045ffd5b346101ba575f3660031901126101ba57602060405173eeeeeeeeeeeeeeeeeeeeeeeeeeeeeeeeeeeeeeee8152f35b346101ba575f3660031901126101ba5761098d611c70565b60ff60055416600281101561043e576001146109e457600160ff1960055416176005557f742f3d37cfc019d913c78a26ca7ce7f15c0523eff7dfebf8dbb1ae3888deee87604051806109df4282611456565b0390a1005b63ac85312360e01b5f5260045ffd5b346101ba5760203660031901126101ba576020600435610a12816101a9565b6040517f00000000000000000000000000000000000000000000000000000000000000006001600160a01b039081169216919091148152f35b346101ba5760403660031901126101ba57600435602435610a6a611c70565b610a7c825f52600660205260405f2090565b600281015460ff60a082901c1615610b955760a881901c60ff1661035a5760b01c60ff1661034b57600181019081548015610b86578311610b77578054610b1492906001600160a01b03168473eeeeeeeeeeeeeeeeeeeeeeeeeeeeeeeeeeeeeeee829003610b5b57600254610afa92506001600160a01b0316611bd6565b610b05848254611836565b9055546001600160a01b031690565b600254604080519384524260208501526001600160a01b039182169492909116927f111c984efbcf6f3710f863072e32899749665b14c8dbda4d377b4c1cf65ea35f9190a4005b600254610b7292906001600160a01b031690611b10565b610afa565b63569d45cf60e11b5f5260045ffd5b638307506160e01b5f5260045ffd5b6309316dab60e41b5f5260045ffd5b346101ba575f3660031901126101ba57610bbc611c70565b5f80546001600160a01b0319811682556001600160a01b03167f8be0079c531659141344cd1fd0a4f28419497f9722a3daafe3b4186f6b6457e08280a3005b346101ba5760203660031901126101ba57600435610c17611eac565b6002610c2b835f52600660205260405f2090565b01908154610c3d8160ff9060a81c1690565b61035a5760b081901c60ff1661034b5760a081901c60ff1661033c576001600160a01b0391821691160361093857805460ff60a01b1916600160a01b1790556040514281527fcf925506e67e76664d936425389b2a3a8bba6e88ef7a84918cfb760959c782eb908060208101610324565b346101ba575f3660031901126101ba576040517f00000000000000000000000000000000000000000000000000000000000000006001600160a01b03168152602090f35b346101ba5760603660031901126101ba57600435610d0f816101a9565b6044356024356001600160401b0382116101ba57610d34610d6e9236906004016104d3565b90610d62610d40611eac565b92610d4a86611cfc565b610d5386611d5f565b602080825183010191016118b4565b95929491969093611d93565b909391610d7a89611df6565b6001600160a01b038a1697883b156101ba5760405163d505accf60e01b81526001600160a01b038516600482015230602482015260448101869052606481019190915260ff91909116608482015260a481019490945260c48401525f8360e481838a5af19788156103a757610e5c610ebb957ec6ec43c08253c1c5175191008cb029019449f249847790ad2c12d937085938956107979b610f09575b50610e2385308686611e14565b610e3d610e2e6104a8565b6001600160a01b039094168452565b602083018590526001600160a01b038416604084015215156060830152565b5f60808201525f60a08201524260c08201528560e0820152610edb6040516020810190610e9c81610e8e8d8786611941565b03601f198101835282610487565b5190209889968793610eb6855f52600660205260405f2090565b6119cc565b610ed681610ed1855f52600760205260405f2090565b6115aa565b610f4a565b55610ef660405192839260018060a01b031696429184611a94565b0390a46040519081529081906020820190565b80610f175f610f1d93610487565b806103ac565b5f610e16565b346101ba575f3660031901126101ba575f546040516001600160a01b039091168152602090f35b60208091604051928184925191829101835e8101600881520301902090565b346101ba5760203660031901126101ba576004356001600160401b0381116101ba57610f9e610ed660209236906004016104d3565b54604051908152f35b346101ba575f3660031901126101ba576001546040516001600160a01b039091168152602090f35b60403660031901126101ba576004356024356001600160401b0381116101ba57610ffd9036906004016104d3565b611018611008611eac565b9160208082518301019101611ab1565b94929193909442101561109f577ec6ec43c08253c1c5175191008cb029019449f249847790ad2c12d93708593873eeeeeeeeeeeeeeeeeeeeeeeeeeeeeeeeeeeeeeee93610ebb926107979761106c88611df6565b611077348414611b09565b610e5c6110826104a8565b73eeeeeeeeeeeeeeeeeeeeeeeeeeeeeeeeeeeeeeee815291610e3d565b63637910d560e11b5f5260045ffd5b346101ba5760203660031901126101ba576004355f5260076020526107976110d860405f2061066d565b60405191829160208352602083019061070b565b6003548110156111045760035f5260205f2001905f90565b634e487b7160e01b5f52603260045260245ffd5b346101ba5760203660031901126101ba576004356003548110156101ba576111416020916110ec565b905460405160039290921b1c6001600160a01b03168152f35b346101ba5760203660031901126101ba57600435611176611c70565b611188815f52600660205260405f2090565b6002810180549160a883901c60ff1661035a5760b083901c60ff1661034b5760a083901c60ff1661033c5780545f9360019361120e929091906001600160a01b031673eeeeeeeeeeeeeeeeeeeeeeeeeeeeeeeeeeeeeeee810361124257505080546111fb906001600160a01b03166108d4565b805460ff60b01b1916600160b01b179055565b01556040514281527f2fad84fe2e677d28e8f4ad3f4ef7f4f0ebfd6ad18a9caf12fa8dcd50284e118c908060208101610324565b611259916001600160a01b03168686015491611b10565b6111fb565b6001600160a01b039182168152602081019290925290911660408201529015156060820152901515608082015290151560a082015260c081019190915261010060e082018190526107409291019061070b565b346101ba5760203660031901126101ba576004355f52600660205260405f206040516112dc81610466565b81546001600160a01b0316815260018201546020820190815260028301549091610797916001600160a01b0381166001600160a01b0316604083019081529460a082901c60ff161515606084019081529161134b60a882901c60ff161515608086019081529160b01c60ff1690565b151560a08501908152906113af6113a86113a86113a161139161137c600460038a01549960c08d019a8b520161066d565b60e08b0181905299516001600160a01b031690565b9a519b516001600160a01b031690565b9651151590565b9251151590565b9251936040519889988961125e565b346101ba5760203660031901126101ba576004356113db816101a9565b6113e3611c70565b6001600160a01b038116156113fb576105c890611cb6565b631e4fbdf760e01b5f525f60045260245ffd5b346101ba575f3660031901126101ba576002546040516001600160a01b039091168152602090f35b908160209103126101ba5751610740816101a9565b6040513d5f823e3d90fd5b91906020604084019361146a8160016105e4565b0152565b818110611479575050565b5f815560010161146e565b9190601f811161149357505050565b6101cb925f5260205f20906020601f840160051c830193106114bd575b601f0160051c019061146e565b90915081906114b0565b9081516001600160401b038111610482576114ee816114e7600454610635565b6004611484565b602092601f821160011461152e5761151e929382915f92611523575b50508160011b915f199060031b1c19161790565b600455565b015190505f8061150a565b60045f52601f198216937f8a35acfbc15ff81a39ae7d344fd709f28e8600b4aa8c65c6b64bfe7fe36bd19b915f5b868110611592575083600195961061157a575b505050811b01600455565b01515f1960f88460031b161c191690555f808061156f565b9192602060018192868501518155019401920161155c565b91909182516001600160401b038111610482576115d1816115cb8454610635565b84611484565b6020601f82116001146116045781906116009394955f926115235750508160011b915f199060031b1c19161790565b9055565b601f19821690611617845f5260205f2090565b915f5b81811061165157509583600195969710611639575b505050811b019055565b01515f1960f88460031b161c191690555f808061162f565b9192602060018192868b01518155019401920161161a565b939291606085016060865282518091526020608087019301905f5b8181106116a757505050816116a2918660409403602088015261070b565b930152565b82516001600160a01b0316855260209485019490920191600101611684565b60015491939290916001600160a01b038116611828576001600160a01b036116ec611eac565b16906bffffffffffffffffffffffff60a01b161760015560018060a01b031692836bffffffffffffffffffffffff60a01b600254161760025581516001600160401b0381116104825768010000000000000000811161048257600354816003558082106117ee575b506020830160035f5260205f205f5b8381106117d15750505050907f2353cd54ca32178942d5e0ca59a3e8455b4f22d21e12585e369cb836e87f79be9161179a846114c7565b6117a960ff1960055416600555565b6117b281611cb6565b6117cc60405192839260018060a01b031695429184611669565b0390a3565b82516001600160a01b031682820155602090920191600101611763565b60035f52611822907fc2575a0e9e593c00f959f8c92f12db2869c3395a3b0502d05e2516446f71f85b90810190830161146e565b5f611754565b62dc149f60e41b5f5260045ffd5b9190820391821161184357565b634e487b7160e01b5f52601160045260245ffd5b929192611863826104b8565b916118716040519384610487565b8294818452818301116101ba578281602093845f96015e010152565b9080601f830112156101ba57815161074092602001611857565b519081151582036101ba57565b9160a0838303126101ba5782516001600160401b0381116101ba57830182601f820112156101ba57828160206118ec93519101611857565b9260208101516001600160401b0381116101ba578361190c91830161188d565b926040820151906001600160401b0382116101ba5761192c91830161188d565b91608061193b606084016118a7565b92015190565b604080825282516001600160a01b0390811682840152602084015160608085019190915291840151166080830152820151151560a08201526107409290916119be9060e0906080810151151560c086015260a081015115158583015260c0810151610100860152015161010061012085015261014084019061070b565b91602081840391015261070b565b815181546001600160a01b039182166001600160a01b03199091161782556020830151600183015560408301516002830180546060860151929093166001600160a81b03199093169290921790151560a01b60ff60a01b161781556101cb9260049160e09190611a8190611a60611a466080850151151590565b825460ff60a81b191690151560a81b60ff60a81b16178255565b60a08301511515815460ff60b01b191690151560b01b60ff60b01b16179055565b60c08101516003850155015191016115aa565b9392916116a290604092865260606020870152606086019061070b565b9190916080818403126101ba5780516001600160401b0381116101ba5783611ada91830161188d565b926020820151906001600160401b0382116101ba57611afa91830161188d565b91606061193b604084016118a7565b156101ba57565b90918015611bd1576001600160a01b038216928315611bc2576001600160a01b0316918215611bc2573b15611bb3576040519163a9059cbb60e01b5f5260045260245260205f60448180865af160015f5114811615611b94575b604091909152155b611b795750565b635274afe760e01b5f526001600160a01b031660045260245ffd5b6001811516611baa573d15833b15151616611b6a565b503d5f823e3d90fd5b636f7c43f160e01b5f5260045ffd5b63d92e233d60e01b5f5260045ffd5b505050565b6001600160a01b03811615611bc2578115611c6c575f80809381935af13d15611c67573d611c03816104b8565b90611c116040519283610487565b81525f60203d92013e5b15611c2257565b60405162461bcd60e51b815260206004820152601860248201527f436f756c64206e6f742073656e64206f757420657468657200000000000000006044820152606490fd5b611c1b565b5050565b5f546001600160a01b0390811690611c86611eac565b1603611c8e57565b611c96611eac565b63118cdaa760e01b5f9081526001600160a01b0391909116600452602490fd5b5f80546001600160a01b039283166001600160a01b03198216811783559216907f8be0079c531659141344cd1fd0a4f28419497f9722a3daafe3b4186f6b6457e09080a3565b6003545f91825b828110611d24575b50505015611d1557565b63514e24c360e11b5f5260045ffd5b611d2d816110ec565b905460039190911b1c6001600160a01b0390811690831614611d5157600101611d03565b5050505060015f8080611d0b565b6001600160a01b031673eeeeeeeeeeeeeeeeeeeeeeeeeeeeeeeeeeeeeeee14611d8457565b630ed130bf60e11b5f5260045ffd5b6041815103611db157602081015190606060408201519101515f1a92565b60405162461bcd60e51b815260206004820152601860248201527f496e76616c6964207369676e6174757265206c656e67746800000000000000006044820152606490fd5b611dff90610f4a565b54611e0657565b624c4af360e01b5f5260045ffd5b6001600160a01b03811693918415611bc2576001600160a01b0316928315611bc2576001600160a01b0316908115611bc2573b15611bb3578115611ea657604051926323b872dd60e01b5f5260045260245260445260205f60648180865af160015f5114811615611e90575b6040919091525f60605215611b72565b6001811516611baa573d15833b15151616611e80565b50505050565b601436101580611ed3575b15611ecf5760131936013681116101ba573560601c90565b3390565b50337f00000000000000000000000000000000000000000000000000000000000000006001600160a01b031614611eb756fea264697066735822122084558ddd96e8cdf97df00405f027bdfa5c4414f2a33ea3b88515718941b08db464736f6c634300081c0033","linkReferences":{}},"methodIdentifiers":{"ETHER()":"42cb1fbc","activate()":"0f15f4c0","claim(bytes32,uint256)":"63f44968","close()":"43d726d6","emergencyRelease(bytes32,address)":"011a5b27","factory()":"c45a0155","getPayment(bytes32)":"e66eefc8","initialize(address[],address,address,string)":"120d75dc","isTrustedForwarder(address)":"572b6c05","offChainSlug()":"345c31ad","owner()":"8da5cb5b","payWithERC20(address,uint256,bytes)":"88318174","payWithNative(uint256,bytes)":"cf584202","paymentIdFromOffChainReference(string)":"a5ad7366","paymentOffChainReference(bytes32)":"d3f09502","paymentTokens(uint256)":"de660841","paymentTokensLength()":"25a6e9d2","receiver()":"f7260d3e","refundPayment(bytes32)":"de8f8b3f","releasePayment(bytes32)":"7aa1ed58","renounceOwnership()":"715018a6","revokePayment(bytes32)":"3d477b5e","status()":"200d2ed2","transferOwnership(address)":"f2fde38b","trustedForwarder()":"7da0a877"},"id":58}