{"abi":[{"type":"constructor","inputs":[{"name":"trustedForwarder_","type":"address","internalType":"address"}],"stateMutability":"nonpayable"},{"type":"function","name":"BASE_BPS","inputs":[],"outputs":[{"name":"","type":"uint24","internalType":"uint24"}],"stateMutability":"view"},{"type":"function","name":"ETHER","inputs":[],"outputs":[{"name":"","type":"address","internalType":"address"}],"stateMutability":"view"},{"type":"function","name":"activate","inputs":[],"outputs":[],"stateMutability":"nonpayable"},{"type":"function","name":"claim","inputs":[{"name":"_paymentId","type":"bytes32","internalType":"bytes32"},{"name":"_amount","type":"uint256","internalType":"uint256"}],"outputs":[],"stateMutability":"nonpayable"},{"type":"function","name":"close","inputs":[],"outputs":[],"stateMutability":"nonpayable"},{"type":"function","name":"emergencyRelease","inputs":[{"name":"_paymentId","type":"bytes32","internalType":"bytes32"},{"name":"_receiver","type":"address","internalType":"address"}],"outputs":[],"stateMutability":"nonpayable"},{"type":"function","name":"factory","inputs":[],"outputs":[{"name":"","type":"address","internalType":"address"}],"stateMutability":"view"},{"type":"function","name":"getPayment","inputs":[{"name":"paymentId","type":"bytes32","internalType":"bytes32"}],"outputs":[{"name":"_token","type":"address","internalType":"address"},{"name":"_amount","type":"uint256","internalType":"uint256"},{"name":"_payer","type":"address","internalType":"address"},{"name":"_released","type":"bool","internalType":"bool"},{"name":"_revoked","type":"bool","internalType":"bool"},{"name":"_refunded","type":"bool","internalType":"bool"},{"name":"_createdAt","type":"uint256","internalType":"uint256"},{"name":"_memo","type":"string","internalType":"string"}],"stateMutability":"view"},{"type":"function","name":"initialize","inputs":[{"name":"_paymentTokens","type":"address[]","internalType":"address[]"},{"name":"_owner","type":"address","internalType":"address"},{"name":"_receiver","type":"address","internalType":"address"},{"name":"_offChainSlug","type":"string","internalType":"string"}],"outputs":[],"stateMutability":"nonpayable"},{"type":"function","name":"isTrustedForwarder","inputs":[{"name":"forwarder","type":"address","internalType":"address"}],"outputs":[{"name":"","type":"bool","internalType":"bool"}],"stateMutability":"view"},{"type":"function","name":"offChainSlug","inputs":[],"outputs":[{"name":"","type":"string","internalType":"string"}],"stateMutability":"view"},{"type":"function","name":"owner","inputs":[],"outputs":[{"name":"","type":"address","internalType":"address"}],"stateMutability":"view"},{"type":"function","name":"payWithERC20","inputs":[{"name":"_token","type":"address","internalType":"address"},{"name":"_amount","type":"uint256","internalType":"uint256"},{"name":"_data","type":"bytes","internalType":"bytes"}],"outputs":[{"name":"_paymentId","type":"bytes32","internalType":"bytes32"}],"stateMutability":"nonpayable"},{"type":"function","name":"payWithNative","inputs":[{"name":"_amount","type":"uint256","internalType":"uint256"},{"name":"_data","type":"bytes","internalType":"bytes"}],"outputs":[{"name":"_paymentId","type":"bytes32","internalType":"bytes32"}],"stateMutability":"payable"},{"type":"function","name":"paymentIdFromOffChainReference","inputs":[{"name":"","type":"string","internalType":"string"}],"outputs":[{"name":"","type":"bytes32","internalType":"bytes32"}],"stateMutability":"view"},{"type":"function","name":"paymentOffChainReference","inputs":[{"name":"","type":"bytes32","internalType":"bytes32"}],"outputs":[{"name":"","type":"string","internalType":"string"}],"stateMutability":"view"},{"type":"function","name":"paymentTokens","inputs":[{"name":"","type":"uint256","internalType":"uint256"}],"outputs":[{"name":"","type":"address","internalType":"address"}],"stateMutability":"view"},{"type":"function","name":"paymentTokensLength","inputs":[],"outputs":[{"name":"","type":"uint256","internalType":"uint256"}],"stateMutability":"view"},{"type":"function","name":"payments","inputs":[{"name":"","type":"uint256","internalType":"uint256"}],"outputs":[{"name":"","type":"bytes32","internalType":"bytes32"}],"stateMutability":"view"},{"type":"function","name":"paymentsLength","inputs":[],"outputs":[{"name":"","type":"uint256","internalType":"uint256"}],"stateMutability":"view"},{"type":"function","name":"receiver","inputs":[],"outputs":[{"name":"","type":"address","internalType":"address"}],"stateMutability":"view"},{"type":"function","name":"refundPayment","inputs":[{"name":"_paymentId","type":"bytes32","internalType":"bytes32"}],"outputs":[],"stateMutability":"nonpayable"},{"type":"function","name":"releasePayment","inputs":[{"name":"_paymentId","type":"bytes32","internalType":"bytes32"}],"outputs":[],"stateMutability":"nonpayable"},{"type":"function","name":"renounceOwnership","inputs":[],"outputs":[],"stateMutability":"nonpayable"},{"type":"function","name":"revokePayment","inputs":[{"name":"_paymentId","type":"bytes32","internalType":"bytes32"}],"outputs":[],"stateMutability":"nonpayable"},{"type":"function","name":"status","inputs":[],"outputs":[{"name":"","type":"uint8","internalType":"enum IRoutaPaymentChannel.ChannelStatus"}],"stateMutability":"view"},{"type":"function","name":"transferOwnership","inputs":[{"name":"newOwner","type":"address","internalType":"address"}],"outputs":[],"stateMutability":"nonpayable"},{"type":"function","name":"trustedForwarder","inputs":[],"outputs":[{"name":"","type":"address","internalType":"address"}],"stateMutability":"view"},{"type":"event","name":"ChannelStatusChanged","inputs":[{"name":"_status","type":"uint8","indexed":false,"internalType":"enum IRoutaPaymentChannel.ChannelStatus"},{"name":"_timestamp","type":"uint256","indexed":false,"internalType":"uint256"}],"anonymous":false},{"type":"event","name":"EmergencyReleasePayment","inputs":[{"name":"_paymentId","type":"bytes32","indexed":true,"internalType":"bytes32"},{"name":"_timestamp","type":"uint256","indexed":false,"internalType":"uint256"}],"anonymous":false},{"type":"event","name":"Initialized","inputs":[{"name":"_paymentTokens","type":"address[]","indexed":false,"internalType":"address[]"},{"name":"_owner","type":"address","indexed":true,"internalType":"address"},{"name":"_receiver","type":"address","indexed":true,"internalType":"address"},{"name":"_offChainSlug","type":"string","indexed":false,"internalType":"string"},{"name":"_timestamp","type":"uint256","indexed":false,"internalType":"uint256"}],"anonymous":false},{"type":"event","name":"NewPayment","inputs":[{"name":"_paymentId","type":"bytes32","indexed":true,"internalType":"bytes32"},{"name":"_payer","type":"address","indexed":true,"internalType":"address"},{"name":"_token","type":"address","indexed":true,"internalType":"address"},{"name":"_amount","type":"uint256","indexed":false,"internalType":"uint256"},{"name":"_memo","type":"string","indexed":false,"internalType":"string"},{"name":"_timestamp","type":"uint256","indexed":false,"internalType":"uint256"}],"anonymous":false},{"type":"event","name":"OwnershipTransferred","inputs":[{"name":"previousOwner","type":"address","indexed":true,"internalType":"address"},{"name":"newOwner","type":"address","indexed":true,"internalType":"address"}],"anonymous":false},{"type":"event","name":"Payout","inputs":[{"name":"_paymentId","type":"bytes32","indexed":true,"internalType":"bytes32"},{"name":"_token","type":"address","indexed":true,"internalType":"address"},{"name":"_receiver","type":"address","indexed":true,"internalType":"address"},{"name":"_amount","type":"uint256","indexed":false,"internalType":"uint256"},{"name":"_timestamp","type":"uint256","indexed":false,"internalType":"uint256"}],"anonymous":false},{"type":"event","name":"RefundPayment","inputs":[{"name":"_paymentId","type":"bytes32","indexed":true,"internalType":"bytes32"},{"name":"_timestamp","type":"uint256","indexed":false,"internalType":"uint256"}],"anonymous":false},{"type":"event","name":"ReleasePayment","inputs":[{"name":"_paymentId","type":"bytes32","indexed":true,"internalType":"bytes32"},{"name":"_timestamp","type":"uint256","indexed":false,"internalType":"uint256"}],"anonymous":false},{"type":"event","name":"RevokePayment","inputs":[{"name":"_paymentId","type":"bytes32","indexed":true,"internalType":"bytes32"},{"name":"_timestamp","type":"uint256","indexed":false,"internalType":"uint256"}],"anonymous":false},{"type":"error","name":"AlreadyDrained","inputs":[]},{"type":"error","name":"AlreadyInitialized","inputs":[]},{"type":"error","name":"AlreadyRefunded","inputs":[]},{"type":"error","name":"AlreadyReleased","inputs":[]},{"type":"error","name":"AlreadyRevoked","inputs":[]},{"type":"error","name":"AmountIsZero","inputs":[]},{"type":"error","name":"CannotRefund","inputs":[]},{"type":"error","name":"ChannelAlreadyActive","inputs":[]},{"type":"error","name":"ChannelNotActive","inputs":[]},{"type":"error","name":"Deadline","inputs":[]},{"type":"error","name":"NotContract","inputs":[]},{"type":"error","name":"NotEnoughBalance","inputs":[]},{"type":"error","name":"NotReleased","inputs":[]},{"type":"error","name":"OnlyPayer","inputs":[]},{"type":"error","name":"OnlyTeam","inputs":[]},{"type":"error","name":"OwnableInvalidOwner","inputs":[{"name":"owner","type":"address","internalType":"address"}]},{"type":"error","name":"OwnableUnauthorizedAccount","inputs":[{"name":"account","type":"address","internalType":"address"}]},{"type":"error","name":"ReentrancyGuardReentrantCall","inputs":[]},{"type":"error","name":"ReferenceAlreadyUsed","inputs":[]},{"type":"error","name":"SafeERC20FailedOperation","inputs":[{"name":"token","type":"address","internalType":"address"}]},{"type":"error","name":"TokenNotAllowed","inputs":[]},{"type":"error","name":"UsePayNative","inputs":[]},{"type":"error","name":"ZeroAddress","inputs":[]}],"bytecode":{"object":"0x60a0346100f957601f61242f38819003918201601f19168301916001600160401b038311848410176100fd578084926020946040528339810103126100f957516001600160a01b03811681036100f95760805233156100e6575f8054336001600160a01b03198216811783556040519290916001600160a01b0316907f8be0079c531659141344cd1fd0a4f28419497f9722a3daafe3b4186f6b6457e09080a360017f9b779b17422d0df92223018b32b4d1fa46e071723d6817e2486d003becc55f005561231d90816101128239608051818181610a6b01528181610d7401526122990152f35b631e4fbdf760e01b5f525f60045260245ffd5b5f80fd5b634e487b7160e01b5f52604160045260245ffdfe60806040526004361015610011575f80fd5b5f3560e01c8063011a5b27146101d45780630f15f4c0146101cf578063120d75dc146101ca578063200d2ed2146101c557806325a6e9d2146101c0578063345c31ad146101bb5780633d477b5e146101b657806342cb1fbc146101b157806343d726d6146101ac578063572b6c05146101a75780635de42046146101a25780636142d4091461019d57806363f4496814610198578063715018a6146101935780637aa1ed581461018e5780637da0a8771461018957806387d8178914610184578063883181741461017f5780638da5cb5b1461017a578063a5ad736614610175578063c45a015514610170578063cf5842021461016b578063d3f0950214610166578063de66084114610161578063de8f8b3f1461015c578063e66eefc814610157578063f2fde38b146101525763f7260d3e1461014d575f80fd5b6116e4565b611694565b611587565b611428565b6113ce565b611390565b6111f3565b6111cb565b61118d565b611147565b610df3565b610da3565b610d5f565b610ca4565b610c4d565b610ad8565b610abc565b610a9f565b610a47565b6109c9565b61099b565b610869565b61078f565b610664565b61063d565b610565565b610404565b61020a565b6001600160a01b038116036101ea57565b5f80fd5b602435906101fb826101d9565b565b604435906101fb826101d9565b346101ea5760403660031901126101ea5760043560243561022a816101d9565b610232611e71565b61023a61226e565b60015460049060209061026390610257906001600160a01b031681565b6001600160a01b031690565b604051638da5cb5b60e01b815292839182905afa9081156103f5575f916103c6575b506001600160a01b039081169116036103b7576102aa825f52600660205260405f2090565b600281019081546102bf8160ff9060a81c1690565b6103a85760b081901c60ff166103995760a01c60ff1661038a5780545f9360019361032c929091906001600160a01b031673eeeeeeeeeeeeeeeeeeeeeeeeeeeeeeeeeeeeeeee810361037757508385015461031991611f6f565b805460ff60a01b1916600160a01b179055565b01556040514281527f3c9e6769825ace133b6d3d7eaf014cd488d76f6fc33d4cb612f0cd0ceee52ec29080602081015b0390a261037560015f5160206122c85f395f51905f5255565b005b610385918686015491611ea9565b610319565b6331da482760e11b5f5260045ffd5b63542f378d60e11b5f5260045ffd5b63905e710760e01b5f5260045ffd5b637c26a7ed60e11b5f5260045ffd5b6103e8915060203d6020116103ee575b6103e081836104d5565b81019061170c565b5f610285565b503d6103d6565b611721565b5f9103126101ea57565b346101ea575f3660031901126101ea5761041c612009565b60ff60055416600281101561048c571561047d5761043f60ff1960055416600555565b7f742f3d37cfc019d913c78a26ca7ce7f15c0523eff7dfebf8dbb1ae3888deee876040518060408101610472825f610630565b4260208301520390a1005b631d682ccd60e01b5f5260045ffd5b634e487b7160e01b5f52602160045260245ffd5b634e487b7160e01b5f52604160045260245ffd5b61010081019081106001600160401b038211176104d057604052565b6104a0565b90601f801991011681019081106001600160401b038211176104d057604052565b604051906101fb610100836104d5565b6001600160401b0381116104d057601f01601f191660200190565b81601f820112156101ea5760208135910161053b82610506565b9261054960405194856104d5565b828452828201116101ea57815f92602092838601378301015290565b346101ea5760803660031901126101ea576004356001600160401b0381116101ea57366023820112156101ea578060040135906001600160401b0382116104d0578160051b604051926105bb60208301856104d5565b835260246020840191830101913683116101ea57602401905b82821061061657836105e46101ee565b906105ed6101fd565b606435926001600160401b0384116101ea57610610610375943690600401610521565b926119c8565b602080918335610625816101d9565b8152019101906105d4565b90600282101561048c5752565b346101ea575f3660031901126101ea57602060ff600554166106626040518092610630565bf35b346101ea575f3660031901126101ea576020600354604051908152f35b90600182811c921680156106af575b602083101461069b57565b634e487b7160e01b5f52602260045260245ffd5b91607f1691610690565b9060405191825f8254926106cc84610681565b808452936001811690811561073557506001146106f1575b506101fb925003836104d5565b90505f9291925260205f20905f915b8183106107195750509060206101fb928201015f6106e4565b6020919350806001915483858901015201910190918492610700565b9050602092506101fb94915060ff191682840152151560051b8201015f6106e4565b805180835260209291819084018484015e5f828201840152601f01601f1916010190565b90602061078c928181520190610757565b90565b346101ea575f3660031901126101ea576040515f6004546107af81610681565b808452906001811690811561084557506001146107e7575b6107e3836107d7818503826104d5565b6040519182918261077b565b0390f35b60045f9081527f8a35acfbc15ff81a39ae7d344fd709f28e8600b4aa8c65c6b64bfe7fe36bd19b939250905b80821061082b575090915081016020016107d76107c7565b919260018160209254838588010152019101909291610813565b60ff191660208086019190915291151560051b840190910191506107d790506107c7565b346101ea5760203660031901126101ea57600435610885611e71565b61088d61226e565b61089f825f52600660205260405f2090565b600281019081546108b48160ff9060a81c1690565b6103a85760b081901c60ff166103995760a081901c60ff1661038a576001600160a01b03908116931683900361098c5780545f93600193610945929091906001600160a01b031673eeeeeeeeeeeeeeeeeeeeeeeeeeeeeeeeeeeeeeee81036109795750508054610932906001600160a01b03165b8585015490611f6f565b805460ff60a81b1916600160a81b179055565b01556040514281527f0ac68e16746dfdb44e4ef2200cd7e5e7a9f02f5c860c552e6bec44c35d62077b90806020810161035c565b610987918686015491611ea9565b610932565b6309f9fa4f60e21b5f5260045ffd5b346101ea575f3660031901126101ea57602060405173eeeeeeeeeeeeeeeeeeeeeeeeeeeeeeeeeeeeeeee8152f35b346101ea575f3660031901126101ea576109e1612009565b60ff60055416600281101561048c57600114610a3857600160ff1960055416176005557f742f3d37cfc019d913c78a26ca7ce7f15c0523eff7dfebf8dbb1ae3888deee8760405180610a33428261172c565b0390a1005b63ac85312360e01b5f5260045ffd5b346101ea5760203660031901126101ea576020600435610a66816101d9565b6040517f00000000000000000000000000000000000000000000000000000000000000006001600160a01b039081169216919091148152f35b346101ea575f3660031901126101ea576020600954604051908152f35b346101ea575f3660031901126101ea5760206040516127108152f35b346101ea5760403660031901126101ea57600435602435610af7611e71565b610aff612009565b610b11825f52600660205260405f2090565b600281015460ff60a082901c1615610c3e5760a881901c60ff166103a85760b01c60ff1661039957600181019081548015610c2f578311610c20578054610ba992906001600160a01b03168473eeeeeeeeeeeeeeeeeeeeeeeeeeeeeeeeeeeeeeee829003610c0457600254610b8f92506001600160a01b0316611f6f565b610b9a848254611b33565b9055546001600160a01b031690565b600254604080519384524260208501526001600160a01b039182169492909116927f111c984efbcf6f3710f863072e32899749665b14c8dbda4d377b4c1cf65ea35f9190a461037560015f5160206122c85f395f51905f5255565b600254610c1b92906001600160a01b031690611ea9565b610b8f565b63569d45cf60e11b5f5260045ffd5b638307506160e01b5f5260045ffd5b6309316dab60e41b5f5260045ffd5b346101ea575f3660031901126101ea57610c65612009565b5f80546001600160a01b0319811682556001600160a01b03167f8be0079c531659141344cd1fd0a4f28419497f9722a3daafe3b4186f6b6457e08280a3005b346101ea5760203660031901126101ea57600435610cc0611e71565b610cc861226e565b6002610cdc835f52600660205260405f2090565b01908154610cee8160ff9060a81c1690565b6103a85760b081901c60ff166103995760a081901c60ff1661038a576001600160a01b0391821691160361098c57805460ff60a01b1916600160a01b1790556040514281527fcf925506e67e76664d936425389b2a3a8bba6e88ef7a84918cfb760959c782eb90806020810161035c565b346101ea575f3660031901126101ea576040517f00000000000000000000000000000000000000000000000000000000000000006001600160a01b03168152602090f35b346101ea5760203660031901126101ea576004356009548110156101ea5760209060095f527f6e1540171b6c0c960b71a7020d9f60077f6af931a8bbf590da0223dacf75c7af0154604051908152f35b346101ea5760603660031901126101ea57600435610e10816101d9565b6024356044356001600160401b0381116101ea57610e32903690600401610521565b90610e3b611e71565b610e81610e73610e4961226e565b93610e52612095565b610e5b866120aa565b610e6486612121565b60208082518301019101611b9d565b959396919694909294612155565b9091610e8c896121b8565b6001600160a01b038a1697883b156101ea5760405163d505accf60e01b81526001600160a01b038616600482015230602482015260448101889052606481019190915260ff91909116608482015260a481019290925260c48201525f8160e481838a5af180156103f55761112d575b50600154610f1390610257906001600160a01b031681565b60405163c57981b560e01b81529390602085600481845afa9485156103f557610f59610f518462ffffff6004996020955f91611100575b5016611758565b612710900490565b9160405196878092638da5cb5b60e01b82525afa9182156103f5576107e39961100d7ec6ec43c08253c1c5175191008cb029019449f249847790ad2c12d93708593896610fcc8561109b9761106c9b5f916110e1575b50610fc5610fbd8389611b33565b308c896121d6565b89866121d6565b610fd68585611b33565b610ff0610fe16104f6565b6001600160a01b039095168552565b60208401526001600160a01b038716604084015215156060830152565b5f60808201525f60a08201524260c08201528760e082015261108c8a60405161104d8161103f60208201948786611c45565b03601f1981018352826104d5565b5190209a8b988993611067855f52600660205260405f2090565b611cd0565b61108781611082855f52600760205260405f2090565b6118ac565b61116e565b5561109686611d98565b611b33565b6040516001600160a01b039092169482916110b891429184611df5565b0390a46110d160015f5160206122c85f395f51905f5255565b6040519081529081906020820190565b6110fa915060203d6020116103ee576103e081836104d5565b5f610faf565b6111209150863d8811611126575b61111881836104d5565b810190611c2a565b5f610f4a565b503d61110e565b8061113b5f611141936104d5565b806103fa565b5f610efb565b346101ea575f3660031901126101ea575f546040516001600160a01b039091168152602090f35b60208091604051928184925191829101835e8101600881520301902090565b346101ea5760203660031901126101ea576004356001600160401b0381116101ea576111c26110876020923690600401610521565b54604051908152f35b346101ea575f3660031901126101ea576001546040516001600160a01b039091168152602090f35b60403660031901126101ea576004356024356001600160401b0381116101ea57611221903690600401610521565b9061122a611e71565b61124d61123561226e565b9261123e612095565b60208082518301019101611e12565b9392919342101561138157611261846121b8565b61126c348414611e6a565b60015461128390610257906001600160a01b031681565b60405163c57981b560e01b815290956020826004818a5afa9182156103f5576112c0610f518762ffffff6004966020955f91611100575016611758565b9760405193848092638da5cb5b60e01b82525afa9182156103f5578773eeeeeeeeeeeeeeeeeeeeeeeeeeeeeeeeeeeeeeee9661106c9561132f6107e39b7ec6ec43c08253c1c5175191008cb029019449f249847790ad2c12d9370859389761109b965f91611362575b50611f6f565b61100d61133c8484611b33565b916113456104f6565b73eeeeeeeeeeeeeeeeeeeeeeeeeeeeeeeeeeeeeeee815292610ff0565b61137b915060203d6020116103ee576103e081836104d5565b5f611329565b63637910d560e11b5f5260045ffd5b346101ea5760203660031901126101ea576004355f5260076020526107e36113ba60405f206106b9565b604051918291602083526020830190610757565b346101ea5760203660031901126101ea576004356003548110156101ea5760035f527fc2575a0e9e593c00f959f8c92f12db2869c3395a3b0502d05e2516446f71f85b01546040516001600160a01b039091168152602090f35b346101ea5760203660031901126101ea57600435611444611e71565b61144c612009565b61145e815f52600660205260405f2090565b6002810180549160a883901c60ff166103a85760b083901c60ff166103995760a083901c60ff1661038a5780545f936001936114e4929091906001600160a01b031673eeeeeeeeeeeeeeeeeeeeeeeeeeeeeeeeeeeeeeee810361151857505080546114d1906001600160a01b0316610928565b805460ff60b01b1916600160b01b179055565b01556040514281527f2fad84fe2e677d28e8f4ad3f4ef7f4f0ebfd6ad18a9caf12fa8dcd50284e118c90806020810161035c565b61152f916001600160a01b03168686015491611ea9565b6114d1565b6001600160a01b039182168152602081019290925290911660408201529015156060820152901515608082015290151560a082015260c081019190915261010060e0820181905261078c92910190610757565b346101ea5760203660031901126101ea576004355f52600660205260405f206040516115b2816104b4565b81546001600160a01b03168152600182015460208201908152600283015490916107e3916001600160a01b0381166001600160a01b0316604083019081529460a082901c60ff161515606084019081529161162160a882901c60ff161515608086019081529160b01c60ff1690565b151560a085019081529061168561167e61167e611677611667611652600460038a01549960c08d019a8b52016106b9565b60e08b0181905299516001600160a01b031690565b9a519b516001600160a01b031690565b9651151590565b9251151590565b92519360405198899889611534565b346101ea5760203660031901126101ea576004356116b1816101d9565b6116b9612009565b6001600160a01b038116156116d1576103759061204f565b631e4fbdf760e01b5f525f60045260245ffd5b346101ea575f3660031901126101ea576002546040516001600160a01b039091168152602090f35b908160209103126101ea575161078c816101d9565b6040513d5f823e3d90fd5b919060206040840193611740816001610630565b0152565b634e487b7160e01b5f52601160045260245ffd5b8181029291811591840414171561176b57565b611744565b81811061177b575050565b5f8155600101611770565b9190601f811161179557505050565b6101fb925f5260205f20906020601f840160051c830193106117bf575b601f0160051c0190611770565b90915081906117b2565b9081516001600160401b0381116104d0576117f0816117e9600454610681565b6004611786565b602092601f821160011461183057611820929382915f92611825575b50508160011b915f199060031b1c19161790565b600455565b015190505f8061180c565b60045f52601f198216937f8a35acfbc15ff81a39ae7d344fd709f28e8600b4aa8c65c6b64bfe7fe36bd19b915f5b868110611894575083600195961061187c575b505050811b01600455565b01515f1960f88460031b161c191690555f8080611871565b9192602060018192868501518155019401920161185e565b91909182516001600160401b0381116104d0576118d3816118cd8454610681565b84611786565b6020601f82116001146119065781906119029394955f926118255750508160011b915f199060031b1c19161790565b9055565b601f19821690611919845f5260205f2090565b915f5b8181106119535750958360019596971061193b575b505050811b019055565b01515f1960f88460031b161c191690555f8080611931565b9192602060018192868b01518155019401920161191c565b939291606085016060865282518091526020608087019301905f5b8181106119a957505050816119a49186604094036020880152610757565b930152565b82516001600160a01b0316855260209485019490920191600101611986565b60015491939290916001600160a01b038116611b25576001600160a01b036119ee61226e565b16906bffffffffffffffffffffffff60a01b161760015560018060a01b031692836bffffffffffffffffffffffff60a01b600254161760025581516001600160401b0381116104d057600160401b81116104d05760035481600355808210611aeb575b506020830160035f5260205f205f5b838110611ace5750505050907f2353cd54ca32178942d5e0ca59a3e8455b4f22d21e12585e369cb836e87f79be91611a97846117c9565b611aa660ff1960055416600555565b611aaf8161204f565b611ac960405192839260018060a01b03169542918461196b565b0390a3565b82516001600160a01b031682820155602090920191600101611a60565b60035f52611b1f907fc2575a0e9e593c00f959f8c92f12db2869c3395a3b0502d05e2516446f71f85b908101908301611770565b5f611a51565b62dc149f60e41b5f5260045ffd5b9190820391821161176b57565b929192611b4c82610506565b91611b5a60405193846104d5565b8294818452818301116101ea578281602093845f96015e010152565b9080601f830112156101ea57815161078c92602001611b40565b519081151582036101ea57565b9160a0838303126101ea5782516001600160401b0381116101ea57830182601f820112156101ea5782816020611bd593519101611b40565b9260208101516001600160401b0381116101ea5783611bf5918301611b76565b926040820151906001600160401b0382116101ea57611c15918301611b76565b916080611c2460608401611b90565b92015190565b908160209103126101ea575162ffffff811681036101ea5790565b604080825282516001600160a01b0390811682840152602084015160608085019190915291840151166080830152820151151560a082015261078c929091611cc29060e0906080810151151560c086015260a081015115158583015260c08101516101008601520151610100610120850152610140840190610757565b916020818403910152610757565b815181546001600160a01b039182166001600160a01b03199091161782556020830151600183015560408301516002830180546060860151929093166001600160a81b03199093169290921790151560a01b60ff60a01b161781556101fb9260049160e09190611d8590611d64611d4a6080850151151590565b825460ff60a81b191690151560a81b60ff60a81b16178255565b60a08301511515815460ff60b01b191690151560b01b60ff60b01b16179055565b60c08101516003850155015191016118ac565b600954600160401b8110156104d05760018101600955600954811015611de15760095f527f6e1540171b6c0c960b71a7020d9f60077f6af931a8bbf590da0223dacf75c7af0155565b634e487b7160e01b5f52603260045260245ffd5b9392916119a4906040928652606060208701526060860190610757565b9190916080818403126101ea5780516001600160401b0381116101ea5783611e3b918301611b76565b926020820151906001600160401b0382116101ea57611e5b918301611b76565b916060611c2460408401611b90565b156101ea57565b60025f5160206122c85f395f51905f525414611e9a5760025f5160206122c85f395f51905f5255565b633ee5aeb560e01b5f5260045ffd5b90918015611f6a576001600160a01b038216928315611f5b576001600160a01b0316918215611f5b573b15611f4c576040519163a9059cbb60e01b5f5260045260245260205f60448180865af160015f5114811615611f2d575b604091909152155b611f125750565b635274afe760e01b5f526001600160a01b031660045260245ffd5b6001811516611f43573d15833b15151616611f03565b503d5f823e3d90fd5b636f7c43f160e01b5f5260045ffd5b63d92e233d60e01b5f5260045ffd5b505050565b6001600160a01b03811615611f5b578115612005575f80809381935af13d15612000573d611f9c81610506565b90611faa60405192836104d5565b81525f60203d92013e5b15611fbb57565b60405162461bcd60e51b815260206004820152601860248201527f436f756c64206e6f742073656e64206f757420657468657200000000000000006044820152606490fd5b611fb4565b5050565b5f546001600160a01b039081169061201f61226e565b160361202757565b61202f61226e565b63118cdaa760e01b5f9081526001600160a01b0391909116600452602490fd5b5f80546001600160a01b039283166001600160a01b03198216811783559216907f8be0079c531659141344cd1fd0a4f28419497f9722a3daafe3b4186f6b6457e09080a3565b60ff60055416600281101561048c57610a3857565b600354905f805b838110156121185760035f527fc2575a0e9e593c00f959f8c92f12db2869c3395a3b0502d05e2516446f71f85b8101546001600160a01b038481169116146120fb576001016120b1565b5050505060015b1561210957565b63514e24c360e11b5f5260045ffd5b50915050612102565b6001600160a01b031673eeeeeeeeeeeeeeeeeeeeeeeeeeeeeeeeeeeeeeee1461214657565b630ed130bf60e11b5f5260045ffd5b604181510361217357602081015190606060408201519101515f1a92565b60405162461bcd60e51b815260206004820152601860248201527f496e76616c6964207369676e6174757265206c656e67746800000000000000006044820152606490fd5b6121c19061116e565b546121c857565b624c4af360e01b5f5260045ffd5b6001600160a01b03811693918415611f5b576001600160a01b0316928315611f5b576001600160a01b0316908115611f5b573b15611f4c57811561226857604051926323b872dd60e01b5f5260045260245260445260205f60648180865af160015f5114811615612252575b6040919091525f60605215611f0b565b6001811516611f43573d15833b15151616612242565b50505050565b601436101580612295575b156122915760131936013681116101ea573560601c90565b3390565b50337f00000000000000000000000000000000000000000000000000000000000000006001600160a01b03161461227956fe9b779b17422d0df92223018b32b4d1fa46e071723d6817e2486d003becc55f00a264697066735822122092c16d35af68662c24e9e0c30bb0963c8c814423437b6d615543e8a3d84429ee64736f6c634300081c0033","linkReferences":{}},"methodIdentifiers":{"BASE_BPS()":"6142d409","ETHER()":"42cb1fbc","activate()":"0f15f4c0","claim(bytes32,uint256)":"63f44968","close()":"43d726d6","emergencyRelease(bytes32,address)":"011a5b27","factory()":"c45a0155","getPayment(bytes32)":"e66eefc8","initialize(address[],address,address,string)":"120d75dc","isTrustedForwarder(address)":"572b6c05","offChainSlug()":"345c31ad","owner()":"8da5cb5b","payWithERC20(address,uint256,bytes)":"88318174","payWithNative(uint256,bytes)":"cf584202","paymentIdFromOffChainReference(string)":"a5ad7366","paymentOffChainReference(bytes32)":"d3f09502","paymentTokens(uint256)":"de660841","paymentTokensLength()":"25a6e9d2","payments(uint256)":"87d81789","paymentsLength()":"5de42046","receiver()":"f7260d3e","refundPayment(bytes32)":"de8f8b3f","releasePayment(bytes32)":"7aa1ed58","renounceOwnership()":"715018a6","revokePayment(bytes32)":"3d477b5e","status()":"200d2ed2","transferOwnership(address)":"f2fde38b","trustedForwarder()":"7da0a877"},"id":59}