{
  "abi": [
    {
      "type": "constructor",
      "inputs": [
        {
          "name": "_token",
          "type": "address",
          "internalType": "address"
        }
      ],
      "stateMutability": "nonpayable"
    },
    {
      "type": "function",
      "name": "deposit",
      "inputs": [],
      "outputs": [],
      "stateMutability": "nonpayable"
    },
    {
      "type": "function",
      "name": "emergencyPayout",
      "inputs": [
        {
          "name": "to",
          "type": "address",
          "internalType": "address"
        },
        {
          "name": "amount",
          "type": "uint256",
          "internalType": "uint256"
        }
      ],
      "outputs": [],
      "stateMutability": "nonpayable"
    },
    {
      "type": "function",
      "name": "factory",
      "inputs": [],
      "outputs": [
        {
          "name": "",
          "type": "address",
          "internalType": "address"
        }
      ],
      "stateMutability": "view"
    },
    {
      "type": "function",
      "name": "feeRecipient",
      "inputs": [],
      "outputs": [
        {
          "name": "",
          "type": "address",
          "internalType": "address"
        }
      ],
      "stateMutability": "view"
    },
    {
      "type": "function",
      "name": "payout",
      "inputs": [],
      "outputs": [],
      "stateMutability": "nonpayable"
    },
    {
      "type": "function",
      "name": "token",
      "inputs": [],
      "outputs": [
        {
          "name": "",
          "type": "address",
          "internalType": "address"
        }
      ],
      "stateMutability": "view"
    },
    {
      "type": "error",
      "name": "AlreadyDeposited",
      "inputs": []
    },
    {
      "type": "error",
      "name": "AmountIsZero",
      "inputs": []
    },
    {
      "type": "error",
      "name": "NotContract",
      "inputs": []
    },
    {
      "type": "error",
      "name": "OnlyBaseFactory",
      "inputs": []
    },
    {
      "type": "error",
      "name": "OnlyFactory",
      "inputs": []
    },
    {
      "type": "error",
      "name": "SafeERC20FailedOperation",
      "inputs": [
        {
          "name": "token",
          "type": "address",
          "internalType": "address"
        }
      ]
    },
    {
      "type": "error",
      "name": "ZeroAddress",
      "inputs": []
    }
  ],
  "bytecode": {
    "object": "0x60e080604052346101435761002a906108ab80380380916100208285610147565b833981019061017e565b6080523360a05260405163c45a015560e01b8152602081600481335afa90811561011b576004916020915f91610126575b50604051638da5cb5b60e01b815292839182906001600160a01b03165afa90811561011b575f916100ec575b5060c05260ff195f54165f5560405161070d908161019e823960805181818160730152818161017d0152818161038201526104c7015260a05181818160ce01528181610299015281816102da015261048f015260c0518181816103aa01526104fd0152f35b61010e915060203d602011610114575b6101068183610147565b81019061017e565b5f610087565b503d6100fc565b6040513d5f823e3d90fd5b61013d9150823d8411610114576101068183610147565b5f61005b565b5f80fd5b601f909101601f19168101906001600160401b0382119082101761016a57604052565b634e487b7160e01b5f52604160045260245ffd5b9081602091031261014357516001600160a01b0381168103610143579056fe6080806040526004361015610012575f80fd5b5f3560e01c90816346904840146104eb57508063581aafa71461046957806363bd1d4a146102c8578063c45a015514610284578063d0e30db0146100a65763fc0c546a1461005e575f80fd5b346100a2575f3660031901126100a2576040517f00000000000000000000000000000000000000000000000000000000000000006001600160a01b03168152602090f35b5f80fd5b346100a2575f3660031901126100a25760ff5f54166102755760405163c45a015560e01b81527f00000000000000000000000000000000000000000000000000000000000000006001600160a01b031690602081600481855afa908115610206575f91610246575b506040516334dc96c560e01b815290602082600481865afa918215610206575f92610211575b5060206004929360405193848092630158f8af60e71b82525afa918215610206575f926101d2575b506001600160a01b031633036101c35781018091116101af576101a19030337f000000000000000000000000000000000000000000000000000000000000000061063d565b5f805460ff19166001179055005b634e487b7160e01b5f52601160045260245ffd5b63182324f160e01b5f5260045ffd5b9091506020813d6020116101fe575b816101ee6020938361052c565b810103126100a25751908361015c565b3d91506101e1565b6040513d5f823e3d90fd5b91506020823d60201161023e575b8161022c6020938361052c565b810103126100a2579051906020610134565b3d915061021f565b610268915060203d60201161026e575b610260818361052c565b810190610562565b8261010e565b503d610256565b63d5a8211560e01b5f5260045ffd5b346100a2575f3660031901126100a2576040517f00000000000000000000000000000000000000000000000000000000000000006001600160a01b03168152602090f35b346100a2575f3660031901126100a2577f00000000000000000000000000000000000000000000000000000000000000006001600160a01b0316330361045a576040516334dc96c560e01b8152602081600481335afa908115610206575f91610428575b50604051630158f8af60e71b8152602081600481335afa908115610206575f916103f6575b506040516337662eb160e11b815291602083600481335afa908115610206576103cf935f926103d1575b506103a8907f00000000000000000000000000000000000000000000000000000000000000009283610581565b7f000000000000000000000000000000000000000000000000000000000000000090610581565b005b6103a89192506103ef9060203d60201161026e57610260818361052c565b919061037b565b90506020813d602011610420575b816104116020938361052c565b810103126100a2575182610351565b3d9150610404565b90506020813d602011610452575b816104436020938361052c565b810103126100a257518161032c565b3d9150610436565b630636a15760e11b5f5260045ffd5b346100a25760403660031901126100a2576004356001600160a01b03811681036100a2577f00000000000000000000000000000000000000000000000000000000000000006001600160a01b0316330361045a576103cf90602435907f0000000000000000000000000000000000000000000000000000000000000000610581565b346100a2575f3660031901126100a2577f00000000000000000000000000000000000000000000000000000000000000006001600160a01b03168152602090f35b90601f8019910116810190811067ffffffffffffffff82111761054e57604052565b634e487b7160e01b5f52604160045260245ffd5b908160209103126100a257516001600160a01b03811681036100a25790565b90918015610638576001600160a01b038216928315610629576001600160a01b0316918215610629573b1561061a576040519163a9059cbb60e01b5f5260045260245260205f60448180865af19060015f51148216156105f9575b604052156105e75750565b635274afe760e01b5f5260045260245ffd5b90600181151661061157823b15153d151616906105dc565b503d5f823e3d90fd5b636f7c43f160e01b5f5260045ffd5b63d92e233d60e01b5f5260045ffd5b505050565b6001600160a01b03811693918415610629576001600160a01b0316928315610629576001600160a01b0316908115610629573b1561061a5781156106d157604051926323b872dd60e01b5f5260045260245260445260205f60648180865af19060015f51148216156106b9575b6040525f606052156105e75750565b90600181151661061157823b15153d151616906106aa565b5050505056fea26469706673582212203b10a4611009f9be2332d40fc1e003432ecd65d02a0f83a5753f142867ff3aeb64736f6c634300081c0033",
    "linkReferences": {}
  },
  "methodIdentifiers": {
    "deposit()": "d0e30db0",
    "emergencyPayout(address,uint256)": "581aafa7",
    "factory()": "c45a0155",
    "feeRecipient()": "46904840",
    "payout()": "63bd1d4a",
    "token()": "fc0c546a"
  },
  "id": 60
}