{"abi":[{"type":"constructor","inputs":[{"name":"_token","type":"address","internalType":"address"}],"stateMutability":"nonpayable"},{"type":"function","name":"deposit","inputs":[],"outputs":[],"stateMutability":"nonpayable"},{"type":"function","name":"emergencyPayout","inputs":[{"name":"to","type":"address","internalType":"address"},{"name":"amount","type":"uint256","internalType":"uint256"}],"outputs":[],"stateMutability":"nonpayable"},{"type":"function","name":"factory","inputs":[],"outputs":[{"name":"","type":"address","internalType":"address"}],"stateMutability":"view"},{"type":"function","name":"feeRecipient","inputs":[],"outputs":[{"name":"","type":"address","internalType":"address"}],"stateMutability":"view"},{"type":"function","name":"payout","inputs":[],"outputs":[],"stateMutability":"nonpayable"},{"type":"function","name":"token","inputs":[],"outputs":[{"name":"","type":"address","internalType":"address"}],"stateMutability":"view"},{"type":"error","name":"AmountIsZero","inputs":[]},{"type":"error","name":"NotContract","inputs":[]},{"type":"error","name":"OnlyBaseFactory","inputs":[]},{"type":"error","name":"OnlyFactory","inputs":[]},{"type":"error","name":"SafeERC20FailedOperation","inputs":[{"name":"token","type":"address","internalType":"address"}]},{"type":"error","name":"ZeroAddress","inputs":[]}],"bytecode":{"object":"0x60e0806040523461013b5761002a9061087d8038038091610020828561013f565b8339810190610176565b6080523360a05260405163c45a015560e01b8152602081600481335afa908115610113576004916020915f9161011e575b50604051638da5cb5b60e01b815292839182906001600160a01b03165afa908115610113575f916100e4575b5060c0526040516106e7908161019682396080518181816073015281816101740152818161035e01526104a1015260a05181818160c501528181610275015281816102b60152610469015260c05181818161038601526104d70152f35b610106915060203d60201161010c575b6100fe818361013f565b810190610176565b5f610087565b503d6100f4565b6040513d5f823e3d90fd5b6101359150823d841161010c576100fe818361013f565b5f61005b565b5f80fd5b601f909101601f19168101906001600160401b0382119082101761016257604052565b634e487b7160e01b5f52604160045260245ffd5b9081602091031261013b57516001600160a01b038116810361013b579056fe6080806040526004361015610012575f80fd5b5f3560e01c90816346904840146104c557508063581aafa71461044357806363bd1d4a146102a4578063c45a015514610260578063d0e30db0146100a65763fc0c546a1461005e575f80fd5b346100a2575f3660031901126100a2576040517f00000000000000000000000000000000000000000000000000000000000000006001600160a01b03168152602090f35b5f80fd5b346100a2575f3660031901126100a25760405163c45a015560e01b81527f00000000000000000000000000000000000000000000000000000000000000006001600160a01b031690602081600481855afa9081156101f1575f91610231575b506040516334dc96c560e01b815290602082600481865afa9182156101f1575f926101fc575b5060206004929360405193848092630158f8af60e71b82525afa9182156101f1575f926101bd575b506001600160a01b031633036101ae57810180911161019a576101989030337f0000000000000000000000000000000000000000000000000000000000000000610617565b005b634e487b7160e01b5f52601160045260245ffd5b63182324f160e01b5f5260045ffd5b9091506020813d6020116101e9575b816101d960209383610506565b810103126100a257519083610153565b3d91506101cc565b6040513d5f823e3d90fd5b91506020823d602011610229575b8161021760209383610506565b810103126100a257905190602061012b565b3d915061020a565b610253915060203d602011610259575b61024b8183610506565b81019061053c565b82610105565b503d610241565b346100a2575f3660031901126100a2576040517f00000000000000000000000000000000000000000000000000000000000000006001600160a01b03168152602090f35b346100a2575f3660031901126100a2577f00000000000000000000000000000000000000000000000000000000000000006001600160a01b03163303610434576040516334dc96c560e01b8152602081600481335afa9081156101f1575f91610402575b50604051630158f8af60e71b8152602081600481335afa9081156101f1575f916103d0575b506040516337662eb160e11b815291602083600481335afa9081156101f157610198935f926103ab575b50610384907f0000000000000000000000000000000000000000000000000000000000000000928361055b565b7f00000000000000000000000000000000000000000000000000000000000000009061055b565b6103849192506103c99060203d6020116102595761024b8183610506565b9190610357565b90506020813d6020116103fa575b816103eb60209383610506565b810103126100a257518261032d565b3d91506103de565b90506020813d60201161042c575b8161041d60209383610506565b810103126100a2575181610308565b3d9150610410565b630636a15760e11b5f5260045ffd5b346100a25760403660031901126100a2576004356001600160a01b03811681036100a2577f00000000000000000000000000000000000000000000000000000000000000006001600160a01b031633036104345761019890602435907f000000000000000000000000000000000000000000000000000000000000000061055b565b346100a2575f3660031901126100a2577f00000000000000000000000000000000000000000000000000000000000000006001600160a01b03168152602090f35b90601f8019910116810190811067ffffffffffffffff82111761052857604052565b634e487b7160e01b5f52604160045260245ffd5b908160209103126100a257516001600160a01b03811681036100a25790565b90918015610612576001600160a01b038216928315610603576001600160a01b0316918215610603573b156105f4576040519163a9059cbb60e01b5f5260045260245260205f60448180865af19060015f51148216156105d3575b604052156105c15750565b635274afe760e01b5f5260045260245ffd5b9060018115166105eb57823b15153d151616906105b6565b503d5f823e3d90fd5b636f7c43f160e01b5f5260045ffd5b63d92e233d60e01b5f5260045ffd5b505050565b6001600160a01b03811693918415610603576001600160a01b0316928315610603576001600160a01b0316908115610603573b156105f45781156106ab57604051926323b872dd60e01b5f5260045260245260445260205f60648180865af19060015f5114821615610693575b6040525f606052156105c15750565b9060018115166105eb57823b15153d15161690610684565b5050505056fea2646970667358221220e2698fcc818289662e7dcb9aeae77e4912e44188f6f6103236672576e9db678b64736f6c634300081c0033","linkReferences":{}},"methodIdentifiers":{"deposit()":"d0e30db0","emergencyPayout(address,uint256)":"581aafa7","factory()":"c45a0155","feeRecipient()":"46904840","payout()":"63bd1d4a","token()":"fc0c546a"},"id":35}