{"abi":[{"type":"constructor","inputs":[{"name":"name","type":"string","internalType":"string"}],"stateMutability":"nonpayable"},{"type":"function","name":"eip712Domain","inputs":[],"outputs":[{"name":"fields","type":"bytes1","internalType":"bytes1"},{"name":"name","type":"string","internalType":"string"},{"name":"version","type":"string","internalType":"string"},{"name":"chainId","type":"uint256","internalType":"uint256"},{"name":"verifyingContract","type":"address","internalType":"address"},{"name":"salt","type":"bytes32","internalType":"bytes32"},{"name":"extensions","type":"uint256[]","internalType":"uint256[]"}],"stateMutability":"view"},{"type":"function","name":"execute","inputs":[{"name":"request","type":"tuple","internalType":"struct ERC2771Forwarder.ForwardRequestData","components":[{"name":"from","type":"address","internalType":"address"},{"name":"to","type":"address","internalType":"address"},{"name":"value","type":"uint256","internalType":"uint256"},{"name":"gas","type":"uint256","internalType":"uint256"},{"name":"deadline","type":"uint48","internalType":"uint48"},{"name":"data","type":"bytes","internalType":"bytes"},{"name":"signature","type":"bytes","internalType":"bytes"}]}],"outputs":[],"stateMutability":"payable"},{"type":"function","name":"executeBatch","inputs":[{"name":"requests","type":"tuple[]","internalType":"struct ERC2771Forwarder.ForwardRequestData[]","components":[{"name":"from","type":"address","internalType":"address"},{"name":"to","type":"address","internalType":"address"},{"name":"value","type":"uint256","internalType":"uint256"},{"name":"gas","type":"uint256","internalType":"uint256"},{"name":"deadline","type":"uint48","internalType":"uint48"},{"name":"data","type":"bytes","internalType":"bytes"},{"name":"signature","type":"bytes","internalType":"bytes"}]},{"name":"refundReceiver","type":"address","internalType":"address payable"}],"outputs":[],"stateMutability":"payable"},{"type":"function","name":"nonces","inputs":[{"name":"owner","type":"address","internalType":"address"}],"outputs":[{"name":"","type":"uint256","internalType":"uint256"}],"stateMutability":"view"},{"type":"function","name":"verify","inputs":[{"name":"request","type":"tuple","internalType":"struct ERC2771Forwarder.ForwardRequestData","components":[{"name":"from","type":"address","internalType":"address"},{"name":"to","type":"address","internalType":"address"},{"name":"value","type":"uint256","internalType":"uint256"},{"name":"gas","type":"uint256","internalType":"uint256"},{"name":"deadline","type":"uint48","internalType":"uint48"},{"name":"data","type":"bytes","internalType":"bytes"},{"name":"signature","type":"bytes","internalType":"bytes"}]}],"outputs":[{"name":"","type":"bool","internalType":"bool"}],"stateMutability":"view"},{"type":"event","name":"EIP712DomainChanged","inputs":[],"anonymous":false},{"type":"event","name":"ExecutedForwardRequest","inputs":[{"name":"signer","type":"address","indexed":true,"internalType":"address"},{"name":"nonce","type":"uint256","indexed":false,"internalType":"uint256"},{"name":"success","type":"bool","indexed":false,"internalType":"bool"}],"anonymous":false},{"type":"error","name":"ERC2771ForwarderExpiredRequest","inputs":[{"name":"deadline","type":"uint48","internalType":"uint48"}]},{"type":"error","name":"ERC2771ForwarderInvalidSigner","inputs":[{"name":"signer","type":"address","internalType":"address"},{"name":"from","type":"address","internalType":"address"}]},{"type":"error","name":"ERC2771ForwarderMismatchedValue","inputs":[{"name":"requestedValue","type":"uint256","internalType":"uint256"},{"name":"msgValue","type":"uint256","internalType":"uint256"}]},{"type":"error","name":"ERC2771UntrustfulTarget","inputs":[{"name":"target","type":"address","internalType":"address"},{"name":"forwarder","type":"address","internalType":"address"}]},{"type":"error","name":"FailedCall","inputs":[]},{"type":"error","name":"InsufficientBalance","inputs":[{"name":"balance","type":"uint256","internalType":"uint256"},{"name":"needed","type":"uint256","internalType":"uint256"}]},{"type":"error","name":"InvalidAccountNonce","inputs":[{"name":"account","type":"address","internalType":"address"},{"name":"currentNonce","type":"uint256","internalType":"uint256"}]},{"type":"error","name":"InvalidShortString","inputs":[]},{"type":"error","name":"StringTooLong","inputs":[{"name":"str","type":"string","internalType":"string"}]}],"bytecode":{"object":"0x61016080604052346101895761127f803803809161001d82856101a1565b8339810190602081830312610189578051906001600160401b03821161018957019080601f830112156101895781516001600160401b03811161018d5760405192610072601f8301601f1916602001856101a1565b81845260208401926020838301011161018957815f926020809301855e840101526040918251916100a384846101a1565b600183526020830191603160f81b83526100bc816101c4565b610120526100c98461035a565b61014052519020918260e05251902080610100524660a05282519060208201927f8b73c3c69bb8fe3d512ecc4cf759cc79239f7b179b0ffacaa9a75d522b39400f84528483015260608201524660808201523060a082015260a0815261013060c0826101a1565b5190206080523060c05251610dec9081610493823960805181610c46015260a05181610d03015260c05181610c10015260e05181610c9501526101005181610cbb0152610120518161049c015261014051816104c50152f35b5f80fd5b634e487b7160e01b5f52604160045260245ffd5b601f909101601f19168101906001600160401b0382119082101761018d57604052565b908151602081105f1461023e575090601f8151116101fe5760208151910151602082106101ef571790565b5f198260200360031b1b161790565b604460209160405192839163305a27a960e01b83528160048401528051918291826024860152018484015e5f828201840152601f01601f19168101030190fd5b6001600160401b03811161018d575f54600181811c91168015610350575b602082101461033c57601f811161030a575b50602092601f82116001146102ab57928192935f926102a0575b50508160011b915f199060031b1c1916175f5560ff90565b015190505f80610288565b601f198216935f8052805f20915f5b8681106102f257508360019596106102da575b505050811b015f5560ff90565b01515f1960f88460031b161c191690555f80806102cd565b919260206001819286850151815501940192016102ba565b5f8052601f60205f20910160051c810190601f830160051c015b818110610331575061026e565b5f8155600101610324565b634e487b7160e01b5f52602260045260245ffd5b90607f169061025c565b908151602081105f14610385575090601f8151116101fe5760208151910151602082106101ef571790565b6001600160401b03811161018d57600154600181811c91168015610488575b602082101461033c57601f8111610455575b50602092601f82116001146103f457928192935f926103e9575b50508160011b915f199060031b1c19161760015560ff90565b015190505f806103d0565b601f1982169360015f52805f20915f5b86811061043d5750836001959610610425575b505050811b0160015560ff90565b01515f1960f88460031b161c191690555f8080610417565b91926020600181928685015181550194019201610404565b60015f52601f60205f20910160051c810190601f830160051c015b81811061047d57506103b6565b5f8155600101610470565b90607f16906103a456fe60806040526004361015610011575f80fd5b5f3560e01c806319d8d38c146105c25780637ecebe001461057c57806384b0196e14610484578063ccf96b4a146102375763df905caf14610050575f80fd5b61005936610604565b604081013590813403610220575f9161007182610710565b92919082156101f05781156101ca57801561019c5782610194575b508161018c575b506100b2575b505050156100a357005b63d6bda27560e01b5f5260045ffd5b9091925060018060a01b031690815f5260026020525f8060408120928354936001850190556060860135956100e9602082016106e9565b916101096101416014602061010160a087018761090d565b9490966106e9565b9360405194818692848401998a378201906bffffffffffffffffffffffff199060601b16838201520301600b1981018452018261065c565b519288f192603f5a91041161018a5760407f842fb24a83793558587a3dab2be7674da4a51d09c5542d6dd354e5d0ea70813c9181519081528415156020820152a25f8080610099565bfe5b90505f610093565b91505f61008c565b836101a6876106e9565b636422d02b60e11b5f9081526001600160a01b039283166004529116602452604490fd5b65ffffffffffff6101dd608088016106fd565b634a777ac560e11b5f521660045260245ffd5b6101fc602087016106e9565b63d2650cd160e01b5f9081526001600160a01b039190911660045230602452604490fd5b506370647f7960e01b5f526004523460245260445ffd5b60403660031901126104805760043567ffffffffffffffff8111610480573660238201121561048057806004013567ffffffffffffffff8111610480576024820191602436918360051b01011161048057602435916001600160a01b0383168084036104805715915f915f935f925b8084106102e157505050503481036102cb5750806102c057005b6102c991610940565b005b6370647f7960e01b5f526004523460245260445ffd5b909192936102fe9060406102f6878588610692565b0135906106c8565b9361030a818386610692565b5f908461031682610710565b93610446575b8261043e575b5081610436575b5061035e575b505015610342575b6001019291906102a6565b9461035660019160406102f6898689610692565b959050610337565b90915060018060a01b0316805f52600260205260405f208054906001820190555f806060850135946040610394602083016106e9565b6103a160a084018461090d565b6103eb601460206103b4889795976106e9565b938551948186928484019a8b378201906bffffffffffffffffffffffff199060601b16838201520301600b1981018452018261065c565b519301359088f192603f5a91041161018a5760407f842fb24a83793558587a3dab2be7674da4a51d09c5542d6dd354e5d0ea70813c9181519081528415156020820152a2888061032f565b90508b610329565b91508c610322565b8215610474578115610461578061031c57836101a6866106e9565b65ffffffffffff6101dd608087016106fd565b6101fc602086016106e9565b5f80fd5b34610480575f366003190112610480576105206104c07f00000000000000000000000000000000000000000000000000000000000000006109dd565b6104e97f0000000000000000000000000000000000000000000000000000000000000000610b03565b602061052e604051926104fc838561065c565b5f84525f368137604051958695600f60f81b875260e08588015260e0870190610638565b908582036040870152610638565b4660608501523060808501525f60a085015283810360c08501528180845192838152019301915f5b82811061056557505050500390f35b835185528695509381019392810192600101610556565b34610480576020366003190112610480576004356001600160a01b0381168103610480576001600160a01b03165f90815260026020908152604090912054604051908152f35b346104805760206105da6105d536610604565b610710565b5090826105fc575b50816105f4575b506040519015158152f35b9050826105e9565b9150836105e2565b6020600319820112610480576004359067ffffffffffffffff82116104805760e09082900360031901126104805760040190565b805180835260209291819084018484015e5f828201840152601f01601f1916010190565b90601f8019910116810190811067ffffffffffffffff82111761067e57604052565b634e487b7160e01b5f52604160045260245ffd5b91908110156106b45760051b8101359060de1981360301821215610480570190565b634e487b7160e01b5f52603260045260245ffd5b919082018092116106d557565b634e487b7160e01b5f52601160045260245ffd5b356001600160a01b03811681036104805790565b3565ffffffffffff811681036104805790565b9061071a826106e9565b602083019161083e604261072d856106e9565b9361075461073a886106e9565b6001600160a01b03165f9081526002602052604090205490565b94608088019565ffffffffffff61076a886106fd565b61078161077a60a08d018d61090d565b3691610997565b60208151910120926040519460208601967f7f96328b83274ebc7c1cf4f7a3abda602b51a78b7fa1d86a2ce353d75e587cac885260018060a01b0316604087015260018060a01b0316606086015260408c0135608086015260608c013560a086015260c08501521660e083015261010082015261010081526108056101208261065c565b519020610810610c0d565b906040519161190160f01b8352600283015260228201522061083861077a60c088018861090d565b90610bd3565b5060048194929410156108f9575f61085960209215966106e9565b6040518381019063572b6c0560e01b82523060248201526024815261087f60448261065c565b51915afa903d5f5190836108ed575b50826108e1575b5061089f906106fd565b94846108b9575b509365ffffffffffff4291161015929190565b9093506001600160a01b03906108ce906106e9565b166001600160a01b03831614925f6108a6565b1515915061089f610895565b6020111592505f61088e565b634e487b7160e01b5f52602160045260245ffd5b903590601e1981360301821215610480570180359067ffffffffffffffff82116104805760200191813603831361048057565b814710610980575f80809381938260405161095c60208261065c565b526001600160a01b03165af11561096f57565b3d156100a3576040513d5f823e3d90fd5b504763cf47918160e01b5f5260045260245260445ffd5b92919267ffffffffffffffff821161067e57604051916109c1601f8201601f19166020018461065c565b829481845281830111610480578281602093845f960137010152565b60ff8114610a235760ff811690601f8211610a145760405191610a0160408461065c565b6020808452838101919036833783525290565b632cd44ac360e21b5f5260045ffd5b506040515f5f548060011c9160018216918215610af9575b602084108314610ae5578385528492908115610ac65750600114610a69575b610a669250038261065c565b90565b505f80805290917f290decd9548b62a8d60345a988386fc84ba6bc95484008f6362f93160ef3e5635b818310610aaa575050906020610a6692820101610a5a565b6020919350806001915483858801015201910190918392610a92565b60209250610a6694915060ff191682840152151560051b820101610a5a565b634e487b7160e01b5f52602260045260245ffd5b92607f1692610a3b565b60ff8114610b275760ff811690601f8211610a145760405191610a0160408461065c565b506040515f6001548060011c9160018216918215610bc9575b602084108314610ae5578385528492908115610ac65750600114610b6a57610a669250038261065c565b5060015f90815290917fb10e2d527612073b26eecdfd717e6a320cf44b4afac2b0732d9fcbe2b7fa0cf65b818310610bad575050906020610a6692820101610a5a565b6020919350806001915483858801015201910190918392610b95565b92607f1692610b40565b8151919060418303610c0357610bfc9250602082015190606060408401519301515f1a90610d29565b9192909190565b50505f9160029190565b307f00000000000000000000000000000000000000000000000000000000000000006001600160a01b03161480610d00575b15610c68577f000000000000000000000000000000000000000000000000000000000000000090565b60405160208101907f8b73c3c69bb8fe3d512ecc4cf759cc79239f7b179b0ffacaa9a75d522b39400f82527f000000000000000000000000000000000000000000000000000000000000000060408201527f000000000000000000000000000000000000000000000000000000000000000060608201524660808201523060a082015260a08152610cfa60c08261065c565b51902090565b507f00000000000000000000000000000000000000000000000000000000000000004614610c3f565b91907f7fffffffffffffffffffffffffffffff5d576e7357a4501ddfe92f46681b20a08411610dab579160209360809260ff5f9560405194855216868401526040830152606082015282805260015afa15610da0575f516001600160a01b03811615610d9657905f905f90565b505f906001905f90565b6040513d5f823e3d90fd5b5050505f916003919056fea26469706673582212200877fafa8ed5eca28212365bfc848cf4aa9e3e5f69a4fcd3a3953157f357fd1164736f6c634300081c0033","linkReferences":{}},"methodIdentifiers":{"eip712Domain()":"84b0196e","execute((address,address,uint256,uint256,uint48,bytes,bytes))":"df905caf","executeBatch((address,address,uint256,uint256,uint48,bytes,bytes)[],address)":"ccf96b4a","nonces(address)":"7ecebe00","verify((address,address,uint256,uint256,uint48,bytes,bytes))":"19d8d38c"},"id":28}