{
  "abi": [
    {
      "type": "constructor",
      "inputs": [
        {
          "name": "_channelImplementation",
          "type": "address",
          "internalType": "address"
        },
        {
          "name": "trustedForwarder_",
          "type": "address",
          "internalType": "address"
        },
        {
          "name": "team",
          "type": "address",
          "internalType": "address"
        }
      ],
      "stateMutability": "nonpayable"
    },
    {
      "type": "receive",
      "stateMutability": "payable"
    },
    {
      "type": "function",
      "name": "FEE",
      "inputs": [],
      "outputs": [
        {
          "name": "",
          "type": "uint24",
          "internalType": "uint24"
        }
      ],
      "stateMutability": "view"
    },
    {
      "type": "function",
      "name": "allPaymentChannels",
      "inputs": [
        {
          "name": "",
          "type": "uint256",
          "internalType": "uint256"
        }
      ],
      "outputs": [
        {
          "name": "",
          "type": "address",
          "internalType": "address"
        }
      ],
      "stateMutability": "view"
    },
    {
      "type": "function",
      "name": "allPaymentChannelsLength",
      "inputs": [],
      "outputs": [
        {
          "name": "",
          "type": "uint256",
          "internalType": "uint256"
        }
      ],
      "stateMutability": "view"
    },
    {
      "type": "function",
      "name": "channelImplementation",
      "inputs": [],
      "outputs": [
        {
          "name": "",
          "type": "address",
          "internalType": "address"
        }
      ],
      "stateMutability": "view"
    },
    {
      "type": "function",
      "name": "deploy",
      "inputs": [
        {
          "name": "_params",
          "type": "tuple",
          "internalType": "struct IRoutaPaymentFactory.DeploymentParams",
          "components": [
            {
              "name": "_receiver",
              "type": "address",
              "internalType": "address"
            },
            {
              "name": "_tokens",
              "type": "address[]",
              "internalType": "address[]"
            },
            {
              "name": "_offChainSlug",
              "type": "string",
              "internalType": "string"
            }
          ]
        }
      ],
      "outputs": [
        {
          "name": "_paymentChannel",
          "type": "address",
          "internalType": "address"
        }
      ],
      "stateMutability": "nonpayable"
    },
    {
      "type": "function",
      "name": "isTrustedForwarder",
      "inputs": [
        {
          "name": "forwarder",
          "type": "address",
          "internalType": "address"
        }
      ],
      "outputs": [
        {
          "name": "",
          "type": "bool",
          "internalType": "bool"
        }
      ],
      "stateMutability": "view"
    },
    {
      "type": "function",
      "name": "offChainSlugToPaymentChannel",
      "inputs": [
        {
          "name": "",
          "type": "string",
          "internalType": "string"
        }
      ],
      "outputs": [
        {
          "name": "",
          "type": "address",
          "internalType": "address"
        }
      ],
      "stateMutability": "view"
    },
    {
      "type": "function",
      "name": "owner",
      "inputs": [],
      "outputs": [
        {
          "name": "",
          "type": "address",
          "internalType": "address"
        }
      ],
      "stateMutability": "view"
    },
    {
      "type": "function",
      "name": "renounceOwnership",
      "inputs": [],
      "outputs": [],
      "stateMutability": "nonpayable"
    },
    {
      "type": "function",
      "name": "setFee",
      "inputs": [
        {
          "name": "_fee",
          "type": "uint24",
          "internalType": "uint24"
        }
      ],
      "outputs": [],
      "stateMutability": "nonpayable"
    },
    {
      "type": "function",
      "name": "transferOwnership",
      "inputs": [
        {
          "name": "newOwner",
          "type": "address",
          "internalType": "address"
        }
      ],
      "outputs": [],
      "stateMutability": "nonpayable"
    },
    {
      "type": "function",
      "name": "trustedForwarder",
      "inputs": [],
      "outputs": [
        {
          "name": "",
          "type": "address",
          "internalType": "address"
        }
      ],
      "stateMutability": "view"
    },
    {
      "type": "function",
      "name": "withdrawAsset",
      "inputs": [
        {
          "name": "asset",
          "type": "address",
          "internalType": "address"
        },
        {
          "name": "to",
          "type": "address",
          "internalType": "address"
        },
        {
          "name": "amount",
          "type": "uint256",
          "internalType": "uint256"
        }
      ],
      "outputs": [],
      "stateMutability": "nonpayable"
    },
    {
      "type": "event",
      "name": "OwnershipTransferred",
      "inputs": [
        {
          "name": "previousOwner",
          "type": "address",
          "indexed": true,
          "internalType": "address"
        },
        {
          "name": "newOwner",
          "type": "address",
          "indexed": true,
          "internalType": "address"
        }
      ],
      "anonymous": false
    },
    {
      "type": "event",
      "name": "PaymentChannelDeployed",
      "inputs": [
        {
          "name": "channel",
          "type": "address",
          "indexed": true,
          "internalType": "address"
        },
        {
          "name": "receiver",
          "type": "address",
          "indexed": true,
          "internalType": "address"
        },
        {
          "name": "tokens",
          "type": "address[]",
          "indexed": false,
          "internalType": "address[]"
        },
        {
          "name": "offChainSlug",
          "type": "string",
          "indexed": false,
          "internalType": "string"
        }
      ],
      "anonymous": false
    },
    {
      "type": "event",
      "name": "SetFee",
      "inputs": [
        {
          "name": "newFee",
          "type": "uint24",
          "indexed": false,
          "internalType": "uint24"
        },
        {
          "name": "oldFee",
          "type": "uint24",
          "indexed": false,
          "internalType": "uint24"
        }
      ],
      "anonymous": false
    },
    {
      "type": "error",
      "name": "AmountIsZero",
      "inputs": []
    },
    {
      "type": "error",
      "name": "FailedDeployment",
      "inputs": []
    },
    {
      "type": "error",
      "name": "FeeTooHigh",
      "inputs": [
        {
          "name": "fee",
          "type": "uint24",
          "internalType": "uint24"
        }
      ]
    },
    {
      "type": "error",
      "name": "InsufficientBalance",
      "inputs": [
        {
          "name": "balance",
          "type": "uint256",
          "internalType": "uint256"
        },
        {
          "name": "needed",
          "type": "uint256",
          "internalType": "uint256"
        }
      ]
    },
    {
      "type": "error",
      "name": "NotContract",
      "inputs": []
    },
    {
      "type": "error",
      "name": "OwnableInvalidOwner",
      "inputs": [
        {
          "name": "owner",
          "type": "address",
          "internalType": "address"
        }
      ]
    },
    {
      "type": "error",
      "name": "OwnableUnauthorizedAccount",
      "inputs": [
        {
          "name": "account",
          "type": "address",
          "internalType": "address"
        }
      ]
    },
    {
      "type": "error",
      "name": "SafeERC20FailedOperation",
      "inputs": [
        {
          "name": "token",
          "type": "address",
          "internalType": "address"
        }
      ]
    },
    {
      "type": "error",
      "name": "ZeroAddress",
      "inputs": []
    }
  ],
  "bytecode": {
    "object": "0x60c03461011257601f610c5938819003918201601f19168301916001600160401b0383118484101761011657808492606094604052833981010312610112576100478161012a565b6100536020830161012a565b916001600160a01b03906100699060400161012a565b169182156100ff575f80546001600160a01b031981168517825560405194916001600160a01b03909116907f8be0079c531659141344cd1fd0a4f28419497f9722a3daafe3b4186f6b6457e09080a3608052600a62ffffff19600354161760035560a052610b1a908161013f823960805181818161028a015281816106e40152610ab6015260a05181818160c9015261042f0152f35b631e4fbdf760e01b5f525f60045260245ffd5b5f80fd5b634e487b7160e01b5f52604160045260245ffd5b51906001600160a01b03821682036101125756fe6080604052600436101561001a575b3615610018575f80fd5b005b5f5f3560e01c8063092ae4dc146107bc578063199a26a61461075a5780633a82d44414610718578063572b6c05146106c4578063715018a61461066d5780637b05e514146102b95780637da0a877146102745780638da5cb5b1461024d578063a93331421461022f578063c57981b51461020c578063eabb562214610181578063f2fde38b146100fb5763fdbeed32146100b4575061000e565b346100f857806003193601126100f8576040517f00000000000000000000000000000000000000000000000000000000000000006001600160a01b03168152602090f35b80fd5b50346100f85760203660031901126100f857610115610815565b61011d6108ef565b6001600160a01b0316801561016d5781546001600160a01b03198116821783556001600160a01b03167f8be0079c531659141344cd1fd0a4f28419497f9722a3daafe3b4186f6b6457e08380a380f35b631e4fbdf760e01b82526004829052602482fd5b50346100f85760203660031901126100f85760043562ffffff8116809103610208576101ab6108ef565b606481116101f65760407f0eb63f4a36d6bdeee05aa00020a97d80c3e84f1b5b3ebf345fb67262e62b0f339162ffffff6003548282198216176003558351928352166020820152a180f35b63071a454b60e21b8252600452602490fd5b5080fd5b50346100f857806003193601126100f857602062ffffff60035416604051908152f35b50346100f857806003193601126100f8576020600154604051908152f35b50346100f857806003193601126100f857546040516001600160a01b039091168152602090f35b50346100f857806003193601126100f8576040517f00000000000000000000000000000000000000000000000000000000000000006001600160a01b03168152602090f35b503461060c57602036600319011261060c5760043567ffffffffffffffff811161060c576060600319823603011261060c576040516060810181811067ffffffffffffffff821117610659576040526103148260040161082b565b8152602482013567ffffffffffffffff811161060c578201913660238401121561060c5760048301359267ffffffffffffffff8411610659578360051b60405194610362602083018761083f565b8552810160240190602085019036831161060c57602401905b828210610641575050506020820192835260448101359067ffffffffffffffff821161060c5760046103b0923692010161087d565b60408201918183526103c0610a8b565b91845160405190816034602080830195805191829101875e82016bffffffffffffffffffffffff198860601b166020820152019160208151939101925f5b81811061061f57505061041a925003601f19810183528261083f565b5190206e5af43d82803e903d91602b57fd5bf37f0000000000000000000000000000000000000000000000000000000000000000763d602d80600a3d3981f3363d3d373d3d3d363d7300000062ffffff8260881c16175f5260781b1760205260018060a01b0390603760095ff516938415610610575190518351906001600160a01b0316853b1561060c579290916040519384926304835d7760e21b845260848401608060048601528351809152602060a486019401905f5b8181106105ea575050506001600160a01b03166024840152604483015281810360031901606483015282518082525f9360209284929091819085018584015e8181018401869052601f01601f19160103018183875af180156105df576105c9575b506020809151604051928184925191829101835e81016002815203019020816bffffffffffffffffffffffff60a01b82541617905560015491680100000000000000008310156105b55750610591826001602094016001556108c3565b81546001600160a01b0360039290921b91821b19169083901b179055604051908152f35b634e487b7160e01b81526041600452602490fd5b6105d69193505f9061083f565b5f916020610534565b6040513d5f823e3d90fd5b82516001600160a01b03168652889650602095860195909201916001016104d3565b5f80fd5b63b06ebf3d60e01b5f5260045ffd5b84516001600160a01b03168352602094850194869450909201916001016103fe565b6020809161064e8461082b565b81520191019061037b565b634e487b7160e01b5f52604160045260245ffd5b3461060c575f36600319011261060c576106856108ef565b5f80546001600160a01b0319811682556001600160a01b03167f8be0079c531659141344cd1fd0a4f28419497f9722a3daafe3b4186f6b6457e08280a3005b3461060c57602036600319011261060c5760206106df610815565b6040517f00000000000000000000000000000000000000000000000000000000000000006001600160a01b039081169216919091148152f35b3461060c57602036600319011261060c5760043560015481101561060c576107416020916108c3565b905460405160039290921b1c6001600160a01b03168152f35b3461060c57602036600319011261060c5760043567ffffffffffffffff811161060c5761078d602091369060040161087d565b8160405191805191829101835e600290820190815281900382019020546040516001600160a01b039091168152f35b3461060c57606036600319011261060c576107d5610815565b6024356001600160a01b038116810361060c57604435906107f46108ef565b6001600160a01b03831661080c5761001892506109f1565b61001892610935565b600435906001600160a01b038216820361060c57565b35906001600160a01b038216820361060c57565b90601f8019910116810190811067ffffffffffffffff82111761065957604052565b67ffffffffffffffff811161065957601f01601f191660200190565b81601f8201121561060c5780359061089482610861565b926108a2604051948561083f565b8284526020838301011161060c57815f926020809301838601378301015290565b6001548110156108db5760015f5260205f2001905f90565b634e487b7160e01b5f52603260045260245ffd5b5f546001600160a01b0390811690610905610a8b565b160361090d57565b610915610a8b565b63118cdaa760e01b5f9081526001600160a01b0391909116600452602490fd5b909180156109ec576001600160a01b0382169283156109dd576001600160a01b03169182156109dd573b156109ce576040519163a9059cbb60e01b5f5260045260245260205f60448180865af19060015f51148216156109ad575b6040521561099b5750565b635274afe760e01b5f5260045260245ffd5b9060018115166109c557823b15153d15161690610990565b503d5f823e3d90fd5b636f7c43f160e01b5f5260045ffd5b63d92e233d60e01b5f5260045ffd5b505050565b6001600160a01b038116156109dd578115610a87575f80809381935af13d15610a82573d610a1e81610861565b90610a2c604051928361083f565b81525f60203d92013e5b15610a3d57565b60405162461bcd60e51b815260206004820152601860248201527f436f756c64206e6f742073656e64206f757420657468657200000000000000006044820152606490fd5b610a36565b5050565b601436101580610ab2575b15610aae57601319360136811161060c573560601c90565b3390565b50337f00000000000000000000000000000000000000000000000000000000000000006001600160a01b031614610a9656fea26469706673582212202ed9f0b242427633683736af591ed21d85f6ccbd5d04ee81fb2c2dd0ac2f8be364736f6c634300081c0033",
    "linkReferences": {}
  },
  "methodIdentifiers": {
    "FEE()": "c57981b5",
    "allPaymentChannels(uint256)": "3a82d444",
    "allPaymentChannelsLength()": "a9333142",
    "channelImplementation()": "fdbeed32",
    "deploy((address,address[],string))": "7b05e514",
    "isTrustedForwarder(address)": "572b6c05",
    "offChainSlugToPaymentChannel(string)": "199a26a6",
    "owner()": "8da5cb5b",
    "renounceOwnership()": "715018a6",
    "setFee(uint24)": "eabb5622",
    "transferOwnership(address)": "f2fde38b",
    "trustedForwarder()": "7da0a877",
    "withdrawAsset(address,address,uint256)": "092ae4dc"
  },
  "id": 61
}