{"abi":[{"type":"constructor","inputs":[{"name":"_channelImplementation","type":"address","internalType":"address"},{"name":"trustedForwarder_","type":"address","internalType":"address"},{"name":"team","type":"address","internalType":"address"}],"stateMutability":"nonpayable"},{"type":"function","name":"allPaymentChannels","inputs":[{"name":"","type":"uint256","internalType":"uint256"}],"outputs":[{"name":"","type":"address","internalType":"address"}],"stateMutability":"view"},{"type":"function","name":"allPaymentChannelsLength","inputs":[],"outputs":[{"name":"","type":"uint256","internalType":"uint256"}],"stateMutability":"view"},{"type":"function","name":"channelImplementation","inputs":[],"outputs":[{"name":"","type":"address","internalType":"address"}],"stateMutability":"view"},{"type":"function","name":"deploy","inputs":[{"name":"_params","type":"tuple","internalType":"struct IRoutaPaymentFactory.DeploymentParams","components":[{"name":"_receiver","type":"address","internalType":"address"},{"name":"_tokens","type":"address[]","internalType":"address[]"},{"name":"_offChainSlug","type":"string","internalType":"string"}]}],"outputs":[{"name":"_paymentChannel","type":"address","internalType":"address"}],"stateMutability":"nonpayable"},{"type":"function","name":"isTrustedForwarder","inputs":[{"name":"forwarder","type":"address","internalType":"address"}],"outputs":[{"name":"","type":"bool","internalType":"bool"}],"stateMutability":"view"},{"type":"function","name":"offChainSlugToPaymentChannel","inputs":[{"name":"","type":"string","internalType":"string"}],"outputs":[{"name":"","type":"address","internalType":"address"}],"stateMutability":"view"},{"type":"function","name":"owner","inputs":[],"outputs":[{"name":"","type":"address","internalType":"address"}],"stateMutability":"view"},{"type":"function","name":"renounceOwnership","inputs":[],"outputs":[],"stateMutability":"nonpayable"},{"type":"function","name":"transferOwnership","inputs":[{"name":"newOwner","type":"address","internalType":"address"}],"outputs":[],"stateMutability":"nonpayable"},{"type":"function","name":"trustedForwarder","inputs":[],"outputs":[{"name":"","type":"address","internalType":"address"}],"stateMutability":"view"},{"type":"event","name":"OwnershipTransferred","inputs":[{"name":"previousOwner","type":"address","indexed":true,"internalType":"address"},{"name":"newOwner","type":"address","indexed":true,"internalType":"address"}],"anonymous":false},{"type":"error","name":"FailedDeployment","inputs":[]},{"type":"error","name":"InsufficientBalance","inputs":[{"name":"balance","type":"uint256","internalType":"uint256"},{"name":"needed","type":"uint256","internalType":"uint256"}]},{"type":"error","name":"OwnableInvalidOwner","inputs":[{"name":"owner","type":"address","internalType":"address"}]},{"type":"error","name":"OwnableUnauthorizedAccount","inputs":[{"name":"account","type":"address","internalType":"address"}]}],"bytecode":{"object":"0x60c03461010357601f6109b538819003918201601f19168301916001600160401b0383118484101761010757808492606094604052833981010312610103576100478161011b565b6100536020830161011b565b916001600160a01b03906100699060400161011b565b169182156100f0575f80546001600160a01b031981168517825560405194916001600160a01b03909116907f8be0079c531659141344cd1fd0a4f28419497f9722a3daafe3b4186f6b6457e09080a360805260a052610885908161013082396080518181816101b00152818161060a0152610821015260a051818181609d01526103550152f35b631e4fbdf760e01b5f525f60045260245ffd5b5f80fd5b634e487b7160e01b5f52604160045260245ffd5b51906001600160a01b03821682036101035756fe60806040526004361015610011575f80fd5b5f5f3560e01c8063199a26a6146106805780633a82d4441461063e578063572b6c05146105ea578063715018a6146105935780637b05e514146101df5780637da0a8771461019a5780638da5cb5b14610173578063a933314214610155578063f2fde38b146100cf5763fdbeed3214610088575f80fd5b346100cc57806003193601126100cc576040517f00000000000000000000000000000000000000000000000000000000000000006001600160a01b03168152602090f35b80fd5b50346100cc5760203660031901126100cc576100e9610786565b6100f16107b0565b6001600160a01b031680156101415781546001600160a01b03198116821783556001600160a01b03167f8be0079c531659141344cd1fd0a4f28419497f9722a3daafe3b4186f6b6457e08380a380f35b631e4fbdf760e01b82526004829052602482fd5b50346100cc57806003193601126100cc576020600154604051908152f35b50346100cc57806003193601126100cc57546040516001600160a01b039091168152602090f35b50346100cc57806003193601126100cc576040517f00000000000000000000000000000000000000000000000000000000000000006001600160a01b03168152602090f35b50346105325760203660031901126105325760043567ffffffffffffffff81116105325760606003198236030112610532576040516060810181811067ffffffffffffffff82111761057f5760405261023a8260040161079c565b8152602482013567ffffffffffffffff811161053257820191366023840112156105325760048301359267ffffffffffffffff841161057f578360051b6040519461028860208301876106e2565b8552810160240190602085019036831161053257602401905b828210610567575050506020820192835260448101359067ffffffffffffffff82116105325760046102d69236920101610704565b60408201918183526102e66107f6565b91845160405190816034602080830195805191829101875e82016bffffffffffffffffffffffff198860601b166020820152019160208151939101925f5b818110610545575050610340925003601f1981018352826106e2565b5190206e5af43d82803e903d91602b57fd5bf37f0000000000000000000000000000000000000000000000000000000000000000763d602d80600a3d3981f3363d3d373d3d3d363d7300000062ffffff8260881c16175f5260781b1760205260018060a01b0390603760095ff516938415610536575190518351906001600160a01b0316853b15610532579290916040519384926304835d7760e21b845260848401608060048601528351809152602060a486019401905f5b818110610510575050506001600160a01b03166024840152604483015281810360031901606483015282518082525f9360209284929091819085018584015e8181018401869052601f01601f19160103018183875af18015610505576104ef575b506020809151604051928184925191829101835e81016002815203019020816bffffffffffffffffffffffff60a01b82541617905560015491680100000000000000008310156104db57506104b78260016020940160015561075a565b81546001600160a01b0360039290921b91821b19169083901b179055604051908152f35b634e487b7160e01b81526041600452602490fd5b6104fc9193505f906106e2565b5f91602061045a565b6040513d5f823e3d90fd5b82516001600160a01b03168652889650602095860195909201916001016103f9565b5f80fd5b63b06ebf3d60e01b5f5260045ffd5b84516001600160a01b0316835260209485019486945090920191600101610324565b602080916105748461079c565b8152019101906102a1565b634e487b7160e01b5f52604160045260245ffd5b34610532575f366003190112610532576105ab6107b0565b5f80546001600160a01b0319811682556001600160a01b03167f8be0079c531659141344cd1fd0a4f28419497f9722a3daafe3b4186f6b6457e08280a3005b34610532576020366003190112610532576020610605610786565b6040517f00000000000000000000000000000000000000000000000000000000000000006001600160a01b039081169216919091148152f35b34610532576020366003190112610532576004356001548110156105325761066760209161075a565b905460405160039290921b1c6001600160a01b03168152f35b346105325760203660031901126105325760043567ffffffffffffffff8111610532576106b36020913690600401610704565b8160405191805191829101835e600290820190815281900382019020546040516001600160a01b039091168152f35b90601f8019910116810190811067ffffffffffffffff82111761057f57604052565b81601f820112156105325780359067ffffffffffffffff821161057f5760405192610739601f8401601f1916602001856106e2565b8284526020838301011161053257815f926020809301838601378301015290565b6001548110156107725760015f5260205f2001905f90565b634e487b7160e01b5f52603260045260245ffd5b600435906001600160a01b038216820361053257565b35906001600160a01b038216820361053257565b5f546001600160a01b03908116906107c66107f6565b16036107ce57565b6107d66107f6565b63118cdaa760e01b5f9081526001600160a01b0391909116600452602490fd5b60143610158061081d575b15610819576013193601368111610532573560601c90565b3390565b50337f00000000000000000000000000000000000000000000000000000000000000006001600160a01b03161461080156fea2646970667358221220fb0b4c09d65b4ac341f51357c0e8debd451ba1f876dc15cfdf1bd75d39c002ad64736f6c634300081c0033","linkReferences":{}},"methodIdentifiers":{"allPaymentChannels(uint256)":"3a82d444","allPaymentChannelsLength()":"a9333142","channelImplementation()":"fdbeed32","deploy((address,address[],string))":"7b05e514","isTrustedForwarder(address)":"572b6c05","offChainSlugToPaymentChannel(string)":"199a26a6","owner()":"8da5cb5b","renounceOwnership()":"715018a6","transferOwnership(address)":"f2fde38b","trustedForwarder()":"7da0a877"},"id":59}