{"abi":[{"type":"constructor","inputs":[{"name":"_relayer","type":"address","internalType":"address"}],"stateMutability":"nonpayable"},{"type":"function","name":"DEFAULT_ADMIN_ROLE","inputs":[],"outputs":[{"name":"","type":"bytes32","internalType":"bytes32"}],"stateMutability":"view"},{"type":"function","name":"allowedRelayerRole","inputs":[],"outputs":[{"name":"","type":"bytes32","internalType":"bytes32"}],"stateMutability":"view"},{"type":"function","name":"appointRelayer","inputs":[{"name":"_relayer","type":"address","internalType":"address"}],"outputs":[],"stateMutability":"nonpayable"},{"type":"function","name":"eip712Domain","inputs":[],"outputs":[{"name":"fields","type":"bytes1","internalType":"bytes1"},{"name":"name","type":"string","internalType":"string"},{"name":"version","type":"string","internalType":"string"},{"name":"chainId","type":"uint256","internalType":"uint256"},{"name":"verifyingContract","type":"address","internalType":"address"},{"name":"salt","type":"bytes32","internalType":"bytes32"},{"name":"extensions","type":"uint256[]","internalType":"uint256[]"}],"stateMutability":"view"},{"type":"function","name":"execute","inputs":[{"name":"request","type":"tuple","internalType":"struct ERC2771Forwarder.ForwardRequestData","components":[{"name":"from","type":"address","internalType":"address"},{"name":"to","type":"address","internalType":"address"},{"name":"value","type":"uint256","internalType":"uint256"},{"name":"gas","type":"uint256","internalType":"uint256"},{"name":"deadline","type":"uint48","internalType":"uint48"},{"name":"data","type":"bytes","internalType":"bytes"},{"name":"signature","type":"bytes","internalType":"bytes"}]}],"outputs":[],"stateMutability":"payable"},{"type":"function","name":"executeBatch","inputs":[{"name":"requests","type":"tuple[]","internalType":"struct ERC2771Forwarder.ForwardRequestData[]","components":[{"name":"from","type":"address","internalType":"address"},{"name":"to","type":"address","internalType":"address"},{"name":"value","type":"uint256","internalType":"uint256"},{"name":"gas","type":"uint256","internalType":"uint256"},{"name":"deadline","type":"uint48","internalType":"uint48"},{"name":"data","type":"bytes","internalType":"bytes"},{"name":"signature","type":"bytes","internalType":"bytes"}]},{"name":"refundReceiver","type":"address","internalType":"address payable"}],"outputs":[],"stateMutability":"payable"},{"type":"function","name":"getRoleAdmin","inputs":[{"name":"role","type":"bytes32","internalType":"bytes32"}],"outputs":[{"name":"","type":"bytes32","internalType":"bytes32"}],"stateMutability":"view"},{"type":"function","name":"grantRole","inputs":[{"name":"role","type":"bytes32","internalType":"bytes32"},{"name":"account","type":"address","internalType":"address"}],"outputs":[],"stateMutability":"nonpayable"},{"type":"function","name":"hasRole","inputs":[{"name":"role","type":"bytes32","internalType":"bytes32"},{"name":"account","type":"address","internalType":"address"}],"outputs":[{"name":"","type":"bool","internalType":"bool"}],"stateMutability":"view"},{"type":"function","name":"nonces","inputs":[{"name":"owner","type":"address","internalType":"address"}],"outputs":[{"name":"","type":"uint256","internalType":"uint256"}],"stateMutability":"view"},{"type":"function","name":"owner","inputs":[],"outputs":[{"name":"","type":"address","internalType":"address"}],"stateMutability":"view"},{"type":"function","name":"renounceOwnership","inputs":[],"outputs":[],"stateMutability":"nonpayable"},{"type":"function","name":"renounceRole","inputs":[{"name":"role","type":"bytes32","internalType":"bytes32"},{"name":"callerConfirmation","type":"address","internalType":"address"}],"outputs":[],"stateMutability":"nonpayable"},{"type":"function","name":"revokeRole","inputs":[{"name":"role","type":"bytes32","internalType":"bytes32"},{"name":"account","type":"address","internalType":"address"}],"outputs":[],"stateMutability":"nonpayable"},{"type":"function","name":"supportsInterface","inputs":[{"name":"interfaceId","type":"bytes4","internalType":"bytes4"}],"outputs":[{"name":"","type":"bool","internalType":"bool"}],"stateMutability":"view"},{"type":"function","name":"transferOwnership","inputs":[{"name":"newOwner","type":"address","internalType":"address"}],"outputs":[],"stateMutability":"nonpayable"},{"type":"function","name":"verify","inputs":[{"name":"request","type":"tuple","internalType":"struct ERC2771Forwarder.ForwardRequestData","components":[{"name":"from","type":"address","internalType":"address"},{"name":"to","type":"address","internalType":"address"},{"name":"value","type":"uint256","internalType":"uint256"},{"name":"gas","type":"uint256","internalType":"uint256"},{"name":"deadline","type":"uint48","internalType":"uint48"},{"name":"data","type":"bytes","internalType":"bytes"},{"name":"signature","type":"bytes","internalType":"bytes"}]}],"outputs":[{"name":"","type":"bool","internalType":"bool"}],"stateMutability":"view"},{"type":"event","name":"EIP712DomainChanged","inputs":[],"anonymous":false},{"type":"event","name":"ExecutedForwardRequest","inputs":[{"name":"signer","type":"address","indexed":true,"internalType":"address"},{"name":"nonce","type":"uint256","indexed":false,"internalType":"uint256"},{"name":"success","type":"bool","indexed":false,"internalType":"bool"}],"anonymous":false},{"type":"event","name":"OwnershipTransferred","inputs":[{"name":"previousOwner","type":"address","indexed":true,"internalType":"address"},{"name":"newOwner","type":"address","indexed":true,"internalType":"address"}],"anonymous":false},{"type":"event","name":"RoleAdminChanged","inputs":[{"name":"role","type":"bytes32","indexed":true,"internalType":"bytes32"},{"name":"previousAdminRole","type":"bytes32","indexed":true,"internalType":"bytes32"},{"name":"newAdminRole","type":"bytes32","indexed":true,"internalType":"bytes32"}],"anonymous":false},{"type":"event","name":"RoleGranted","inputs":[{"name":"role","type":"bytes32","indexed":true,"internalType":"bytes32"},{"name":"account","type":"address","indexed":true,"internalType":"address"},{"name":"sender","type":"address","indexed":true,"internalType":"address"}],"anonymous":false},{"type":"event","name":"RoleRevoked","inputs":[{"name":"role","type":"bytes32","indexed":true,"internalType":"bytes32"},{"name":"account","type":"address","indexed":true,"internalType":"address"},{"name":"sender","type":"address","indexed":true,"internalType":"address"}],"anonymous":false},{"type":"error","name":"AccessControlBadConfirmation","inputs":[]},{"type":"error","name":"AccessControlUnauthorizedAccount","inputs":[{"name":"account","type":"address","internalType":"address"},{"name":"neededRole","type":"bytes32","internalType":"bytes32"}]},{"type":"error","name":"ERC2771ForwarderExpiredRequest","inputs":[{"name":"deadline","type":"uint48","internalType":"uint48"}]},{"type":"error","name":"ERC2771ForwarderInvalidSigner","inputs":[{"name":"signer","type":"address","internalType":"address"},{"name":"from","type":"address","internalType":"address"}]},{"type":"error","name":"ERC2771ForwarderMismatchedValue","inputs":[{"name":"requestedValue","type":"uint256","internalType":"uint256"},{"name":"msgValue","type":"uint256","internalType":"uint256"}]},{"type":"error","name":"ERC2771UntrustfulTarget","inputs":[{"name":"target","type":"address","internalType":"address"},{"name":"forwarder","type":"address","internalType":"address"}]},{"type":"error","name":"FailedCall","inputs":[]},{"type":"error","name":"InsufficientBalance","inputs":[{"name":"balance","type":"uint256","internalType":"uint256"},{"name":"needed","type":"uint256","internalType":"uint256"}]},{"type":"error","name":"InvalidAccountNonce","inputs":[{"name":"account","type":"address","internalType":"address"},{"name":"currentNonce","type":"uint256","internalType":"uint256"}]},{"type":"error","name":"InvalidShortString","inputs":[]},{"type":"error","name":"NotAllowedRelayer","inputs":[{"name":"sender","type":"address","internalType":"address"}]},{"type":"error","name":"OwnableInvalidOwner","inputs":[{"name":"owner","type":"address","internalType":"address"}]},{"type":"error","name":"OwnableUnauthorizedAccount","inputs":[{"name":"account","type":"address","internalType":"address"}]},{"type":"error","name":"StringTooLong","inputs":[{"name":"str","type":"string","internalType":"string"}]}],"bytecode":{"object":"0x61016080604052346101d5576020816119d3803803809161002082856101d9565b8339810103126101d557516001600160a01b03811681036101d5576040516100496040826101d9565b6016815260208101907f526f7574614576437573746f6d466f72776172646572000000000000000000008252604051916100846040846101d9565b600183526020830191603160f81b835261009d816102bb565b610120526100aa84610451565b61014052519020918260e05251902080610100524660a0526040519060208201927f8b73c3c69bb8fe3d512ecc4cf759cc79239f7b179b0ffacaa9a75d522b39400f8452604083015260608201524660808201523060a082015260a0815261011360c0826101d9565b5190206080523060c05233156101c25760048054336001600160a01b0319821681179092556101709291906001600160a01b03167f8be0079c531659141344cd1fd0a4f28419497f9722a3daafe3b4186f6b6457e05f80a3610210565b50604051611429908161058a823960805181611263015260a05181611320015260c0518161122d015260e051816112b2015261010051816112d8015261012051816106d3015261014051816106fc0152f35b631e4fbdf760e01b5f525f60045260245ffd5b5f80fd5b601f909101601f19168101906001600160401b038211908210176101fc57604052565b634e487b7160e01b5f52604160045260245ffd5b6001600160a01b0381165f9081525f5160206119b35f395f51905f52602052604090205460ff166102b6576001600160a01b03165f8181525f5160206119b35f395f51905f5260205260408120805460ff191660011790553391907f69c275f3ea42481f8223f4dd02ce9d2ba91e52d6a53fd712aff78e653ff930bb907f2f8788117e7eff1d82e926ec794901d17c78024a50270940304540a733656f0d9080a4600190565b505f90565b908151602081105f14610335575090601f8151116102f55760208151910151602082106102e6571790565b5f198260200360031b1b161790565b604460209160405192839163305a27a960e01b83528160048401528051918291826024860152018484015e5f828201840152601f01601f19168101030190fd5b6001600160401b0381116101fc575f54600181811c91168015610447575b602082101461043357601f8111610401575b50602092601f82116001146103a257928192935f92610397575b50508160011b915f199060031b1c1916175f5560ff90565b015190505f8061037f565b601f198216935f8052805f20915f5b8681106103e957508360019596106103d1575b505050811b015f5560ff90565b01515f1960f88460031b161c191690555f80806103c4565b919260206001819286850151815501940192016103b1565b5f8052601f60205f20910160051c810190601f830160051c015b8181106104285750610365565b5f815560010161041b565b634e487b7160e01b5f52602260045260245ffd5b90607f1690610353565b908151602081105f1461047c575090601f8151116102f55760208151910151602082106102e6571790565b6001600160401b0381116101fc57600154600181811c9116801561057f575b602082101461043357601f811161054c575b50602092601f82116001146104eb57928192935f926104e0575b50508160011b915f199060031b1c19161760015560ff90565b015190505f806104c7565b601f1982169360015f52805f20915f5b868110610534575083600195961061051c575b505050811b0160015560ff90565b01515f1960f88460031b161c191690555f808061050e565b919260206001819286850151815501940192016104fb565b60015f52601f60205f20910160051c810190601f830160051c015b81811061057457506104ad565b5f8155600101610567565b90607f169061049b56fe6080806040526004361015610012575f80fd5b5f3560e01c90816301ffc9a7146109a05750806319d8d38c1461095e578063248a9ca3146109335780632f2ff15d146108f557806336568abe146108b157806339efeaed146108885780633c85b6051461084e578063715018a6146107f35780637ecebe00146107b357806384b0196e146106bb5780638da5cb5b1461069357806391d148541461064a578063a217fddf14610630578063ccf96b4a146103c3578063d547741f1461037e578063df905caf146101615763f2fde38b146100d7575f80fd5b3461015d57602036600319011261015d576100f0610a3d565b6100f8610f03565b6001600160a01b0316801561014a57600480546001600160a01b0319811683179091556001600160a01b03167f8be0079c531659141344cd1fd0a4f28419497f9722a3daafe3b4186f6b6457e05f80a3005b631e4fbdf760e01b5f525f60045260245ffd5b5f80fd5b61016a366109f3565b60408101359081340361036757335f9081525f5160206113d45f395f51905f52602052604090205460ff1615610354575f916101a582610b2b565b92919082156103245781156102fe5780156102d057826102c8575b50816102c0575b506101e6575b505050156101d757005b63d6bda27560e01b5f5260045ffd5b9091925060018060a01b031690815f5260026020525f80604081209283549360018501905560608601359561021d60208201610b04565b9161023d6102756014602061023560a0870187610f81565b949096610b04565b9360405194818692848401998a378201906bffffffffffffffffffffffff199060601b16838201520301600b19810184520182610a77565b519288f192603f5a9104116102be5760407f842fb24a83793558587a3dab2be7674da4a51d09c5542d6dd354e5d0ea70813c9181519081528415156020820152a28180806101cd565bfe5b9050856101c7565b9150866101c0565b836102da87610b04565b636422d02b60e11b5f9081526001600160a01b039283166004529116602452604490fd5b65ffffffffffff61031160808801610b18565b634a777ac560e11b5f521660045260245ffd5b61033060208701610b04565b63d2650cd160e01b5f9081526001600160a01b039190911660045230602452604490fd5b63b84eaf7d60e01b5f523360045260245ffd5b506370647f7960e01b5f526004523460245260445ffd5b3461015d57604036600319011261015d576103c160043561039d610a27565b906103bc6103b7825f526003602052600160405f20015490565b610d0e565b610e7f565b005b604036600319011261015d5760043567ffffffffffffffff811161015d573660238201121561015d57806004013567ffffffffffffffff811161015d576024820191602436918360051b01011161015d57602435916001600160a01b03831680840361015d575f928392839290913391155b81851061046d5787878734810361045757508061044e57005b6103c191610f2a565b6370647f7960e01b5f526004523460245260445ffd5b909192939461048b906040610483888689610aad565b013590610ae3565b94610497818487610aad565b5f8581525f5160206113d45f395f51905f52602052604090205460ff1615610354575f90836104c582610b2b565b936105f6575b826105ee575b50816105e6575b5061050e575b5050156104f2575b60010193929190610435565b9561050660019160406104838a878a610aad565b9690506104e6565b90915060018060a01b0316805f52600260205260405f208054906001820190555f80606085013594604061054460208301610b04565b61055160a0840184610f81565b61059b6014602061056488979597610b04565b938551948186928484019a8b378201906bffffffffffffffffffffffff199060601b16838201520301600b19810184520182610a77565b519301359088f192603f5a9104116102be5760407f842fb24a83793558587a3dab2be7674da4a51d09c5542d6dd354e5d0ea70813c9181519081528415156020820152a289806104de565b90508c6104d8565b91508d6104d1565b821561062457811561061157806104cb57836102da86610b04565b65ffffffffffff61031160808701610b18565b61033060208601610b04565b3461015d575f36600319011261015d5760206040515f8152f35b3461015d57604036600319011261015d57610663610a27565b6004355f52600360205260405f209060018060a01b03165f52602052602060ff60405f2054166040519015158152f35b3461015d575f36600319011261015d576004546040516001600160a01b039091168152602090f35b3461015d575f36600319011261015d576107576106f77f0000000000000000000000000000000000000000000000000000000000000000610ffa565b6107207f0000000000000000000000000000000000000000000000000000000000000000611120565b6020610765604051926107338385610a77565b5f84525f368137604051958695600f60f81b875260e08588015260e0870190610a53565b908582036040870152610a53565b4660608501523060808501525f60a085015283810360c08501528180845192838152019301915f5b82811061079c57505050500390f35b83518552869550938101939281019260010161078d565b3461015d57602036600319011261015d5760206107eb6107d1610a3d565b6001600160a01b03165f9081526002602052604090205490565b604051908152f35b3461015d575f36600319011261015d5761080b610f03565b600480546001600160a01b031981169091555f906001600160a01b03167f8be0079c531659141344cd1fd0a4f28419497f9722a3daafe3b4186f6b6457e08280a3005b3461015d575f36600319011261015d5760206040517f69c275f3ea42481f8223f4dd02ce9d2ba91e52d6a53fd712aff78e653ff930bb8152f35b3461015d57602036600319011261015d576103c16108a4610a3d565b6108ac610f03565b610d48565b3461015d57604036600319011261015d576108ca610a27565b336001600160a01b038216036108e6576103c190600435610e7f565b63334bd91960e11b5f5260045ffd5b3461015d57604036600319011261015d576103c1600435610914610a27565b9061092e6103b7825f526003602052600160405f20015490565b610df3565b3461015d57602036600319011261015d5760206107eb6004355f526003602052600160405f20015490565b3461015d576020610976610971366109f3565b610b2b565b509082610998575b5081610990575b506040519015158152f35b905082610985565b91508361097e565b3461015d57602036600319011261015d576004359063ffffffff60e01b821680920361015d57602091637965db0b60e01b81149081156109e2575b5015158152f35b6301ffc9a760e01b149050836109db565b602060031982011261015d576004359067ffffffffffffffff821161015d5760e090829003600319011261015d5760040190565b602435906001600160a01b038216820361015d57565b600435906001600160a01b038216820361015d57565b805180835260209291819084018484015e5f828201840152601f01601f1916010190565b90601f8019910116810190811067ffffffffffffffff821117610a9957604052565b634e487b7160e01b5f52604160045260245ffd5b9190811015610acf5760051b8101359060de198136030182121561015d570190565b634e487b7160e01b5f52603260045260245ffd5b91908201809211610af057565b634e487b7160e01b5f52601160045260245ffd5b356001600160a01b038116810361015d5790565b3565ffffffffffff8116810361015d5790565b90610b3582610b04565b6020830191610c3f6042610b4885610b04565b93610b556107d188610b04565b94608088019565ffffffffffff610b6b88610b18565b610b82610b7b60a08d018d610f81565b3691610fb4565b60208151910120926040519460208601967f7f96328b83274ebc7c1cf4f7a3abda602b51a78b7fa1d86a2ce353d75e587cac885260018060a01b0316604087015260018060a01b0316606086015260408c0135608086015260608c013560a086015260c08501521660e08301526101008201526101008152610c0661012082610a77565b519020610c1161122a565b906040519161190160f01b83526002830152602282015220610c39610b7b60c0880188610f81565b906111f0565b506004819492941015610cfa575f610c5a6020921596610b04565b6040518381019063572b6c0560e01b825230602482015260248152610c80604482610a77565b51915afa903d5f519083610cee575b5082610ce2575b50610ca090610b18565b9484610cba575b509365ffffffffffff4291161015929190565b9093506001600160a01b0390610ccf90610b04565b166001600160a01b03831614925f610ca7565b15159150610ca0610c96565b6020111592505f610c8f565b634e487b7160e01b5f52602160045260245ffd5b5f81815260036020908152604080832033845290915290205460ff1615610d325750565b63e2517d3f60e01b5f523360045260245260445ffd5b6001600160a01b0381165f9081525f5160206113d45f395f51905f52602052604090205460ff16610dee576001600160a01b03165f8181525f5160206113d45f395f51905f5260205260408120805460ff191660011790553391907f69c275f3ea42481f8223f4dd02ce9d2ba91e52d6a53fd712aff78e653ff930bb907f2f8788117e7eff1d82e926ec794901d17c78024a50270940304540a733656f0d9080a4600190565b505f90565b5f8181526003602090815260408083206001600160a01b038616845290915290205460ff16610e79575f8181526003602090815260408083206001600160a01b0395909516808452949091528120805460ff19166001179055339291907f2f8788117e7eff1d82e926ec794901d17c78024a50270940304540a733656f0d9080a4600190565b50505f90565b5f8181526003602090815260408083206001600160a01b038616845290915290205460ff1615610e79575f8181526003602090815260408083206001600160a01b0395909516808452949091528120805460ff19169055339291907ff6391f5c32d9c69d2a47ea670b442974b53935d1edc7fd64eb21e047a839171b9080a4600190565b6004546001600160a01b03163303610f1757565b63118cdaa760e01b5f523360045260245ffd5b814710610f6a575f808093819382604051610f46602082610a77565b526001600160a01b03165af115610f5957565b3d156101d7576040513d5f823e3d90fd5b504763cf47918160e01b5f5260045260245260445ffd5b903590601e198136030182121561015d570180359067ffffffffffffffff821161015d5760200191813603831361015d57565b92919267ffffffffffffffff8211610a995760405191610fde601f8201601f191660200184610a77565b82948184528183011161015d578281602093845f960137010152565b60ff81146110405760ff811690601f8211611031576040519161101e604084610a77565b6020808452838101919036833783525290565b632cd44ac360e21b5f5260045ffd5b506040515f5f548060011c9160018216918215611116575b6020841083146111025783855284929081156110e35750600114611086575b61108392500382610a77565b90565b505f80805290917f290decd9548b62a8d60345a988386fc84ba6bc95484008f6362f93160ef3e5635b8183106110c757505090602061108392820101611077565b60209193508060019154838588010152019101909183926110af565b6020925061108394915060ff191682840152151560051b820101611077565b634e487b7160e01b5f52602260045260245ffd5b92607f1692611058565b60ff81146111445760ff811690601f8211611031576040519161101e604084610a77565b506040515f6001548060011c91600182169182156111e6575b6020841083146111025783855284929081156110e357506001146111875761108392500382610a77565b5060015f90815290917fb10e2d527612073b26eecdfd717e6a320cf44b4afac2b0732d9fcbe2b7fa0cf65b8183106111ca57505090602061108392820101611077565b60209193508060019154838588010152019101909183926111b2565b92607f169261115d565b8151919060418303611220576112199250602082015190606060408401519301515f1a90611346565b9192909190565b50505f9160029190565b307f00000000000000000000000000000000000000000000000000000000000000006001600160a01b0316148061131d575b15611285577f000000000000000000000000000000000000000000000000000000000000000090565b60405160208101907f8b73c3c69bb8fe3d512ecc4cf759cc79239f7b179b0ffacaa9a75d522b39400f82527f000000000000000000000000000000000000000000000000000000000000000060408201527f000000000000000000000000000000000000000000000000000000000000000060608201524660808201523060a082015260a0815261131760c082610a77565b51902090565b507f0000000000000000000000000000000000000000000000000000000000000000461461125c565b91907f7fffffffffffffffffffffffffffffff5d576e7357a4501ddfe92f46681b20a084116113c8579160209360809260ff5f9560405194855216868401526040830152606082015282805260015afa156113bd575f516001600160a01b038116156113b357905f905f90565b505f906001905f90565b6040513d5f823e3d90fd5b5050505f916003919056fed5251641b4e326f953ed59cd4e7aa076075483a2eadfb5b98fd48d1b0ca62d7ea26469706673582212201b864ceeb7ab1aa1a831195094c22671c31ae8f029428679c14958620aa6b17164736f6c634300081c0033d5251641b4e326f953ed59cd4e7aa076075483a2eadfb5b98fd48d1b0ca62d7e","linkReferences":{}},"methodIdentifiers":{"DEFAULT_ADMIN_ROLE()":"a217fddf","allowedRelayerRole()":"3c85b605","appointRelayer(address)":"39efeaed","eip712Domain()":"84b0196e","execute((address,address,uint256,uint256,uint48,bytes,bytes))":"df905caf","executeBatch((address,address,uint256,uint256,uint48,bytes,bytes)[],address)":"ccf96b4a","getRoleAdmin(bytes32)":"248a9ca3","grantRole(bytes32,address)":"2f2ff15d","hasRole(bytes32,address)":"91d14854","nonces(address)":"7ecebe00","owner()":"8da5cb5b","renounceOwnership()":"715018a6","renounceRole(bytes32,address)":"36568abe","revokeRole(bytes32,address)":"d547741f","supportsInterface(bytes4)":"01ffc9a7","transferOwnership(address)":"f2fde38b","verify((address,address,uint256,uint256,uint48,bytes,bytes))":"19d8d38c"},"id":56}