{
  "abi": [
    {
      "type": "constructor",
      "inputs": [
        {
          "name": "_rideImplementation",
          "type": "address",
          "internalType": "address"
        },
        {
          "name": "trustedForwarder_",
          "type": "address",
          "internalType": "address"
        },
        {
          "name": "_team",
          "type": "address",
          "internalType": "address"
        }
      ],
      "stateMutability": "nonpayable"
    },
    {
      "type": "receive",
      "stateMutability": "payable"
    },
    {
      "type": "function",
      "name": "RIDE_TYPEHASH",
      "inputs": [],
      "outputs": [
        {
          "name": "",
          "type": "bytes32",
          "internalType": "bytes32"
        }
      ],
      "stateMutability": "view"
    },
    {
      "type": "function",
      "name": "allRides",
      "inputs": [
        {
          "name": "",
          "type": "uint256",
          "internalType": "uint256"
        }
      ],
      "outputs": [
        {
          "name": "",
          "type": "address",
          "internalType": "address"
        }
      ],
      "stateMutability": "view"
    },
    {
      "type": "function",
      "name": "allRidesLength",
      "inputs": [],
      "outputs": [
        {
          "name": "",
          "type": "uint256",
          "internalType": "uint256"
        }
      ],
      "stateMutability": "view"
    },
    {
      "type": "function",
      "name": "deploy",
      "inputs": [
        {
          "name": "_params",
          "type": "tuple",
          "internalType": "struct IRoutaEvRideFactory.DeploymentParams",
          "components": [
            {
              "name": "_token",
              "type": "address",
              "internalType": "address"
            },
            {
              "name": "_amountPayable",
              "type": "uint256",
              "internalType": "uint256"
            },
            {
              "name": "_feePercentageBps",
              "type": "uint24",
              "internalType": "uint24"
            },
            {
              "name": "_cancellationFeePercentageBps",
              "type": "uint24",
              "internalType": "uint24"
            },
            {
              "name": "_startCoords",
              "type": "tuple",
              "internalType": "struct IRoutaGeo.GeoCoords",
              "components": [
                {
                  "name": "latitude",
                  "type": "int256",
                  "internalType": "int256"
                },
                {
                  "name": "longitude",
                  "type": "int256",
                  "internalType": "int256"
                }
              ]
            },
            {
              "name": "_endCoords",
              "type": "tuple",
              "internalType": "struct IRoutaGeo.GeoCoords",
              "components": [
                {
                  "name": "latitude",
                  "type": "int256",
                  "internalType": "int256"
                },
                {
                  "name": "longitude",
                  "type": "int256",
                  "internalType": "int256"
                }
              ]
            },
            {
              "name": "_packagedData",
              "type": "bytes",
              "internalType": "bytes"
            },
            {
              "name": "_consolidatedSignature",
              "type": "bytes",
              "internalType": "bytes"
            },
            {
              "name": "_offChainReference",
              "type": "string",
              "internalType": "string"
            }
          ]
        }
      ],
      "outputs": [
        {
          "name": "ride",
          "type": "address",
          "internalType": "address"
        }
      ],
      "stateMutability": "nonpayable"
    },
    {
      "type": "function",
      "name": "eip712Domain",
      "inputs": [],
      "outputs": [
        {
          "name": "fields",
          "type": "bytes1",
          "internalType": "bytes1"
        },
        {
          "name": "name",
          "type": "string",
          "internalType": "string"
        },
        {
          "name": "version",
          "type": "string",
          "internalType": "string"
        },
        {
          "name": "chainId",
          "type": "uint256",
          "internalType": "uint256"
        },
        {
          "name": "verifyingContract",
          "type": "address",
          "internalType": "address"
        },
        {
          "name": "salt",
          "type": "bytes32",
          "internalType": "bytes32"
        },
        {
          "name": "extensions",
          "type": "uint256[]",
          "internalType": "uint256[]"
        }
      ],
      "stateMutability": "view"
    },
    {
      "type": "function",
      "name": "isTrustedForwarder",
      "inputs": [
        {
          "name": "forwarder",
          "type": "address",
          "internalType": "address"
        }
      ],
      "outputs": [
        {
          "name": "",
          "type": "bool",
          "internalType": "bool"
        }
      ],
      "stateMutability": "view"
    },
    {
      "type": "function",
      "name": "offChainReference",
      "inputs": [
        {
          "name": "",
          "type": "string",
          "internalType": "string"
        }
      ],
      "outputs": [
        {
          "name": "",
          "type": "address",
          "internalType": "address"
        }
      ],
      "stateMutability": "view"
    },
    {
      "type": "function",
      "name": "owner",
      "inputs": [],
      "outputs": [
        {
          "name": "",
          "type": "address",
          "internalType": "address"
        }
      ],
      "stateMutability": "view"
    },
    {
      "type": "function",
      "name": "renounceOwnership",
      "inputs": [],
      "outputs": [],
      "stateMutability": "nonpayable"
    },
    {
      "type": "function",
      "name": "rideImplementation",
      "inputs": [],
      "outputs": [
        {
          "name": "",
          "type": "address",
          "internalType": "address"
        }
      ],
      "stateMutability": "view"
    },
    {
      "type": "function",
      "name": "transferOwnership",
      "inputs": [
        {
          "name": "newOwner",
          "type": "address",
          "internalType": "address"
        }
      ],
      "outputs": [],
      "stateMutability": "nonpayable"
    },
    {
      "type": "function",
      "name": "trustedForwarder",
      "inputs": [],
      "outputs": [
        {
          "name": "",
          "type": "address",
          "internalType": "address"
        }
      ],
      "stateMutability": "view"
    },
    {
      "type": "function",
      "name": "withdrawAsset",
      "inputs": [
        {
          "name": "asset",
          "type": "address",
          "internalType": "address"
        },
        {
          "name": "to",
          "type": "address",
          "internalType": "address"
        },
        {
          "name": "amount",
          "type": "uint256",
          "internalType": "uint256"
        }
      ],
      "outputs": [],
      "stateMutability": "nonpayable"
    },
    {
      "type": "event",
      "name": "EIP712DomainChanged",
      "inputs": [],
      "anonymous": false
    },
    {
      "type": "event",
      "name": "OwnershipTransferred",
      "inputs": [
        {
          "name": "previousOwner",
          "type": "address",
          "indexed": true,
          "internalType": "address"
        },
        {
          "name": "newOwner",
          "type": "address",
          "indexed": true,
          "internalType": "address"
        }
      ],
      "anonymous": false
    },
    {
      "type": "error",
      "name": "AmountIsZero",
      "inputs": []
    },
    {
      "type": "error",
      "name": "ECDSAInvalidSignature",
      "inputs": []
    },
    {
      "type": "error",
      "name": "ECDSAInvalidSignatureLength",
      "inputs": [
        {
          "name": "length",
          "type": "uint256",
          "internalType": "uint256"
        }
      ]
    },
    {
      "type": "error",
      "name": "ECDSAInvalidSignatureS",
      "inputs": [
        {
          "name": "s",
          "type": "bytes32",
          "internalType": "bytes32"
        }
      ]
    },
    {
      "type": "error",
      "name": "FailedDeployment",
      "inputs": []
    },
    {
      "type": "error",
      "name": "InsufficientBalance",
      "inputs": [
        {
          "name": "balance",
          "type": "uint256",
          "internalType": "uint256"
        },
        {
          "name": "needed",
          "type": "uint256",
          "internalType": "uint256"
        }
      ]
    },
    {
      "type": "error",
      "name": "InvalidPayer",
      "inputs": []
    },
    {
      "type": "error",
      "name": "InvalidShortString",
      "inputs": []
    },
    {
      "type": "error",
      "name": "InvalidSignature",
      "inputs": []
    },
    {
      "type": "error",
      "name": "NoSelfRide",
      "inputs": []
    },
    {
      "type": "error",
      "name": "NotContract",
      "inputs": []
    },
    {
      "type": "error",
      "name": "OwnableInvalidOwner",
      "inputs": [
        {
          "name": "owner",
          "type": "address",
          "internalType": "address"
        }
      ]
    },
    {
      "type": "error",
      "name": "OwnableUnauthorizedAccount",
      "inputs": [
        {
          "name": "account",
          "type": "address",
          "internalType": "address"
        }
      ]
    },
    {
      "type": "error",
      "name": "SafeERC20FailedOperation",
      "inputs": [
        {
          "name": "token",
          "type": "address",
          "internalType": "address"
        }
      ]
    },
    {
      "type": "error",
      "name": "StringTooLong",
      "inputs": [
        {
          "name": "str",
          "type": "string",
          "internalType": "string"
        }
      ]
    },
    {
      "type": "error",
      "name": "UsedOffChainReference",
      "inputs": []
    },
    {
      "type": "error",
      "name": "ZeroAddress",
      "inputs": []
    }
  ],
  "bytecode": {
    "object": "0x6101a0806040523461020c57606081611d6480380380916100208285610210565b83398101031261020c5761003381610247565b9061004c604061004560208401610247565b9201610247565b906040519061005c604083610210565b601282526020820171526f757461457652696465466163746f727960701b81526040519261008b604085610210565b600184526020840192603160f81b84526080526100a78161025b565b610140526100b4846103f1565b6101605251902091826101005251902080610120524660c0526040519060208201927f8b73c3c69bb8fe3d512ecc4cf759cc79239f7b179b0ffacaa9a75d522b39400f8452604083015260608201524660808201523060a082015260a0815261011e60c082610210565b51902060a0523060e0526001600160a01b03169081156101f957600280546001600160a01b03198116841790915560405192906001600160a01b03167f8be0079c531659141344cd1fd0a4f28419497f9722a3daafe3b4186f6b6457e05f80a36101805261183a908161052a8239608051818181610404015281816104a80152611716015260a05181611336015260c051816113f3015260e0518161130001526101005181611385015261012051816113ab015261014051816105130152610160518161053c01526101805181818161074d0152610bba0152f35b631e4fbdf760e01b5f525f60045260245ffd5b5f80fd5b601f909101601f19168101906001600160401b0382119082101761023357604052565b634e487b7160e01b5f52604160045260245ffd5b51906001600160a01b038216820361020c57565b908151602081105f146102d5575090601f815111610295576020815191015160208210610286571790565b5f198260200360031b1b161790565b604460209160405192839163305a27a960e01b83528160048401528051918291826024860152018484015e5f828201840152601f01601f19168101030190fd5b6001600160401b038111610233575f54600181811c911680156103e7575b60208210146103d357601f81116103a1575b50602092601f821160011461034257928192935f92610337575b50508160011b915f199060031b1c1916175f5560ff90565b015190505f8061031f565b601f198216935f8052805f20915f5b8681106103895750836001959610610371575b505050811b015f5560ff90565b01515f1960f88460031b161c191690555f8080610364565b91926020600181928685015181550194019201610351565b5f8052601f60205f20910160051c810190601f830160051c015b8181106103c85750610305565b5f81556001016103bb565b634e487b7160e01b5f52602260045260245ffd5b90607f16906102f3565b908151602081105f1461041c575090601f815111610295576020815191015160208210610286571790565b6001600160401b03811161023357600154600181811c9116801561051f575b60208210146103d357601f81116104ec575b50602092601f821160011461048b57928192935f92610480575b50508160011b915f199060031b1c19161760015560ff90565b015190505f80610467565b601f1982169360015f52805f20915f5b8681106104d457508360019596106104bc575b505050811b0160015560ff90565b01515f1960f88460031b161c191690555f80806104ae565b9192602060018192868501518155019401920161049b565b60015f52601f60205f20910160051c810190601f830160051c015b818110610514575061044d565b5f8155600101610507565b90607f169061043b56fe6080604052600436101561001a575b3615610018575f80fd5b005b5f3560e01c8063092ae4dc146100e9578063303e4b13146100e45780634a9e9680146100df578063572b6c05146100da578063715018a6146100d55780637da0a877146100d057806384b0196e146100cb5780638c04bd32146100c65780638da5cb5b146100c1578063c7e2a6d5146100bc578063d6a106e4146100b7578063dbd7dbba146100b25763f2fde38b0361000e5761077c565b610738565b61071b565b6106c1565b610685565b610627565b6104fb565b610493565b610438565b6103e0565b61029e565b610170565b610110565b6001600160a01b038116036100ff57565b5f80fd5b359061010e826100ee565b565b346100ff5760603660031901126100ff5760043561012d816100ee565b602435610139816100ee565b60443590610145610edc565b6001600160a01b03831661015d576100189250610fe9565b61001892610f23565b5f9103126100ff57565b346100ff575f3660031901126100ff5760206040517fe0e3d156a6d0c62c9d714e6e71857c61c1c7f2e90c519846f6d24e40c7c9918c8152f35b634e487b7160e01b5f52604160045260245ffd5b90601f8019910116810190811067ffffffffffffffff8211176101e057604052565b6101aa565b6040519061010e610120836101be565b359062ffffff821682036100ff57565b91908260409103126100ff576040516040810181811067ffffffffffffffff8211176101e0576040526020808294803584520135910152565b67ffffffffffffffff81116101e057601f01601f191660200190565b81601f820112156100ff576020813591016102748261023e565b9261028260405194856101be565b828452828201116100ff57815f92602092838601378301015290565b346100ff5760203660031901126100ff5760043567ffffffffffffffff81116100ff5761016060031982360301126100ff576102d86101e5565b906102e581600401610103565b8252602481013560208301526102fd604482016101f5565b604083015261030e606482016101f5565b60608301526103203660848301610205565b60808301526103323660c48301610205565b60a083015261010481013567ffffffffffffffff81116100ff5761035c906004369184010161025a565b60c083015261012481013567ffffffffffffffff81116100ff57610386906004369184010161025a565b60e08301526101448101359167ffffffffffffffff83116100ff576103b76103c29260046103dc953692010161025a565b6101008201526109ea565b6040516001600160a01b0390911681529081906020820190565b0390f35b346100ff5760203660031901126100ff5760206004356103ff816100ee565b6040517f00000000000000000000000000000000000000000000000000000000000000006001600160a01b039081169216919091148152f35b346100ff575f3660031901126100ff57610450610edc565b600280546001600160a01b031981169091555f906001600160a01b03167f8be0079c531659141344cd1fd0a4f28419497f9722a3daafe3b4186f6b6457e08280a3005b346100ff575f3660031901126100ff576040517f00000000000000000000000000000000000000000000000000000000000000006001600160a01b03168152602090f35b805180835260209291819084018484015e5f828201840152601f01601f1916010190565b346100ff575f3660031901126100ff5761059f6105377f0000000000000000000000000000000000000000000000000000000000000000611550565b6105607f0000000000000000000000000000000000000000000000000000000000000000611633565b602060405161056f82826101be565b5f8152816105ad81830194601f198301368737604051978897600f60f81b895260e0858a015260e08901906104d7565b9087820360408901526104d7565b914660608701523060808701525f60a087015285830360c087015251918281520192915f5b8281106105e157505050500390f35b8351855286955093810193928101926001016105d2565b805191908290602001825e015f815290565b602061061c91604051928380926105f8565b600481520301902090565b346100ff5760203660031901126100ff5760043567ffffffffffffffff81116100ff5761065a602091369060040161025a565b61066760405180926105f8565b6004815281900382019020546040516001600160a01b039091168152f35b346100ff575f3660031901126100ff576002546040516001600160a01b039091168152602090f35b634e487b7160e01b5f52603260045260245ffd5b346100ff5760203660031901126100ff576004356003548110156100ff5760035f527fc2575a0e9e593c00f959f8c92f12db2869c3395a3b0502d05e2516446f71f85b01546040516001600160a01b039091168152602090f35b346100ff575f3660031901126100ff576020600354604051908152f35b346100ff575f3660031901126100ff576040517f00000000000000000000000000000000000000000000000000000000000000006001600160a01b03168152602090f35b346100ff5760203660031901126100ff57600435610799816100ee565b6107a1610edc565b6001600160a01b031680156107f357600280546001600160a01b0319811683179091556001600160a01b03167f8be0079c531659141344cd1fd0a4f28419497f9722a3daafe3b4186f6b6457e05f80a3005b631e4fbdf760e01b5f525f60045260245ffd5b93610867979360209a99979360bc97936001600160601b03199060601b1687526001600160601b03199060601b1660148701526001600160601b03199060601b166028860152603c850152605c840152607c830152609c82015201906105f8565b9081520190565b600354680100000000000000008110156101e057600181016003556003548110156108d85760035f527fc2575a0e9e593c00f959f8c92f12db2869c3395a3b0502d05e2516446f71f85b0180546001600160a01b0319166001600160a01b03909216919091179055565b6106ad565b6001600160a01b03918216815291811660208084019190915292166040820152606081019290925262ffffff92831660808301529290911660a0820152825160c08201529181015160e0830152825161010083015291909101516101208201526101400190565b6040513d5f823e3d90fd5b91906040838203126100ff5782519260208101519067ffffffffffffffff82116100ff570181601f820112156100ff5780519061098b8261023e565b9261099960405194856101be565b828452602083830101116100ff57815f9260208093018386015e8301015290565b908160209103126100ff57516109cf816100ee565b90565b908160209103126100ff575180151581036100ff5790565b9060e08201516109f990611102565b83519091906001600160a01b031693602081019182519060808301908151604051806020810192610a3c9084815181526020918201519181019190915260400190565b03601f1981018252610a4e90826101be565b5190209260a08501938451604051806020810192610a7e9084815181526020918201519181019190915260400190565b03601f1981018252610a9090826101be565b5190209061010087019a8b51805190602001206040519384936020850196610b049488919260a093969594919660c08401977fe0e3d156a6d0c62c9d714e6e71857c61c1c7f2e90c519846f6d24e40c7c9918c8552600180871b031660208501526040840152606083015260808201520152565b03601f1981018252610b1690826101be565b519020610b229061119d565b90610b2d90826111c3565b95610b37916111c3565b906001600160a01b0386811690831614610ecd57610c0f610bf098610b5b886111d9565b610b65815161120b565b8551610bde9085906001600160a01b0316610bb5865191610ba78d602085519501518c5160208151910151908a5192604051988997602089019b42978d610806565b03601f1981018352826101be565b5190207f00000000000000000000000000000000000000000000000000000000000000006114ed565b998a91610bea8361086e565b5161060a565b80546001600160a01b0319166001600160a01b03909216919091179055565b83516001600160a01b03898116939116938651610c32604088015162ffffff1690565b91610c43606089015162ffffff1690565b9451905190863b156100ff575f958b94610c72946040519a8b98899863efee55e560e01b8a5260048a016108dd565b038183855af1918215610e2d57610ca892610eb9575b50610ca060c08401516020808251830101910161094f565b929092611243565b919390610ccd610cc1610cc1885160018060a01b031690565b6001600160a01b031690565b90875190823b156100ff5760405163d505accf60e01b81526001600160a01b038b1660048201523060248201526044810192909252606482019390935260ff95909516608486015260a485019190915260c48401919091525f90839060e490829084905af18015610e2d57600495602093610d5d92610ea5575b5084516001600160a01b03168651913091611265565b60405163e2fdcc1760e01b815294859182905afa928315610e2d575f93610e5f575b50515f91602091610dd49190610d9f90610cc1906001600160a01b031681565b905160405163095ea7b360e01b81526001600160a01b0387166004820152602481019190915293849283919082906044820190565b03925af18015610e2d57610e32575b506001600160a01b0316803b156100ff575f8091600460405180948193630d0e30db60e41b83525af18015610e2d57610e195750565b80610e275f61010e936101be565b80610166565b610944565b610e539060203d602011610e58575b610e4b81836101be565b8101906109d2565b610de3565b503d610e41565b60209193505f92610d9f610cc1610cc1610e91610dd495873d8911610e9e575b610e8981836101be565b8101906109ba565b9795505050509250610d7f565b503d610e7f565b80610e275f610eb3936101be565b5f610d47565b80610e275f610ec7936101be565b5f610c88565b632c423e9b60e01b5f5260045ffd5b6002546001600160a01b0390811690610ef36116eb565b1603610efb57565b610f036116eb565b63118cdaa760e01b5f9081526001600160a01b0391909116600452602490fd5b90918015610fe4576001600160a01b038216928315610fd5576001600160a01b0316918215610fd5573b15610fc6576040519163a9059cbb60e01b5f5260045260245260205f60448180865af160015f5114811615610fa7575b604091909152155b610f8c5750565b635274afe760e01b5f526001600160a01b031660045260245ffd5b6001811516610fbd573d15833b15151616610f7d565b503d5f823e3d90fd5b636f7c43f160e01b5f5260045ffd5b63d92e233d60e01b5f5260045ffd5b505050565b6001600160a01b03811615610fd557811561107f575f80809381935af13d1561107a573d6110168161023e565b9061102460405192836101be565b81525f60203d92013e5b1561103557565b60405162461bcd60e51b815260206004820152601860248201527f436f756c64206e6f742073656e64206f757420657468657200000000000000006044820152606490fd5b61102e565b5050565b1561108a57565b60405162461bcd60e51b815260206004820152601860248201527f496e76616c6964207369676e6174757265206c656e67746800000000000000006044820152606490fd5b604051608091906110e083826101be565b6041815291601f1901366020840137565b9081518110156108d8570160200190565b61110f6082825114611083565b6111176110cf565b916111206110cf565b915f5b6041811061112f575050565b6001600160f81b031961114282846110f1565b51165f1a61115082876110f1565b536041810190818111611189576001916001600160f81b03199061117490856110f1565b51165f1a61118282876110f1565b5301611123565b634e487b7160e01b5f52601160045260245ffd5b6042906111a86112fd565b906040519161190160f01b8352600283015260228201522090565b6109cf916111d091611419565b90929192611471565b6001600160a01b036111e96116eb565b166001600160a01b03909116036111fc57565b638eb5b89160e01b5f5260045ffd5b61121860405180926105f8565b600481528190036020019020546001600160a01b031661123457565b632db79ccf60e21b5f5260045ffd5b6112506041825114611083565b602081015190606060408201519101515f1a92565b6001600160a01b03811693918415610fd5576001600160a01b0316928315610fd5576001600160a01b0316908115610fd5573b15610fc65781156112f757604051926323b872dd60e01b5f5260045260245260445260205f60648180865af160015f51148116156112e1575b6040919091525f60605215610f85565b6001811516610fbd573d15833b151516166112d1565b50505050565b307f00000000000000000000000000000000000000000000000000000000000000006001600160a01b031614806113f0575b15611358577f000000000000000000000000000000000000000000000000000000000000000090565b60405160208101907f8b73c3c69bb8fe3d512ecc4cf759cc79239f7b179b0ffacaa9a75d522b39400f82527f000000000000000000000000000000000000000000000000000000000000000060408201527f000000000000000000000000000000000000000000000000000000000000000060608201524660808201523060a082015260a081526113ea60c0826101be565b51902090565b507f0000000000000000000000000000000000000000000000000000000000000000461461132f565b8151919060418303611449576114429250602082015190606060408401519301515f1a90611744565b9192909190565b50505f9160029190565b6004111561145d57565b634e487b7160e01b5f52602160045260245ffd5b61147a81611453565b80611483575050565b61148c81611453565b600181036114a35763f645eedf60e01b5f5260045ffd5b6114ac81611453565b600281036114c7575063fce698f760e01b5f5260045260245ffd5b806114d3600392611453565b146114db5750565b6335e2f38360e21b5f5260045260245ffd5b6e5af43d82803e903d91602b57fd5bf390763d602d80600a3d3981f3363d3d373d3d3d363d7300000062ffffff8260881c16175f5260781b17602052603760095ff5906001600160a01b0382161561154157565b63b06ebf3d60e01b5f5260045ffd5b60ff8114611561576109cf906117c6565b506040515f5f548060011c91600182168015611629575b60208410811461161557838552849260208401919081156115fc57506001146115a9575b506109cf925003826101be565b5f80805291507f290decd9548b62a8d60345a988386fc84ba6bc95484008f6362f93160ef3e5635b8483106115e557506109cf9350015f61159c565b8054828401528593506020909201916001016115d1565b60ff19168252506109cf93151560051b0190505f61159c565b634e487b7160e01b5f52602260045260245ffd5b92607f1692611578565b60ff8114611644576109cf906117c6565b506040515f6001548060011c916001821680156116e1575b60208410811461161557838552849260208401919081156115fc575060011461168c57506109cf925003826101be565b60015f90815291507fb10e2d527612073b26eecdfd717e6a320cf44b4afac2b0732d9fcbe2b7fa0cf65b8483106116ca57506109cf9350015f61159c565b8054828401528593506020909201916001016116b6565b92607f169261165c565b601436101580611712575b1561170e5760131936013681116100ff573560601c90565b3390565b50337f00000000000000000000000000000000000000000000000000000000000000006001600160a01b0316146116f6565b91907f7fffffffffffffffffffffffffffffff5d576e7357a4501ddfe92f46681b20a084116117bb579160209360809260ff5f9560405194855216868401526040830152606082015282805260015afa15610e2d575f516001600160a01b038116156117b157905f905f90565b505f906001905f90565b5050505f9160039190565b60ff811690601f82116117f557604051916117e26040846101be565b6020808452838101919036833783525290565b632cd44ac360e21b5f5260045ffdfea26469706673582212207ff1761a0435614db2aed68bebfbb99059d709d6e1ec9d09b02bf0113c506c5e64736f6c634300081c0033",
    "linkReferences": {}
  },
  "methodIdentifiers": {
    "RIDE_TYPEHASH()": "303e4b13",
    "allRides(uint256)": "c7e2a6d5",
    "allRidesLength()": "d6a106e4",
    "deploy((address,uint256,uint24,uint24,(int256,int256),(int256,int256),bytes,bytes,string))": "4a9e9680",
    "eip712Domain()": "84b0196e",
    "isTrustedForwarder(address)": "572b6c05",
    "offChainReference(string)": "8c04bd32",
    "owner()": "8da5cb5b",
    "renounceOwnership()": "715018a6",
    "rideImplementation()": "dbd7dbba",
    "transferOwnership(address)": "f2fde38b",
    "trustedForwarder()": "7da0a877",
    "withdrawAsset(address,address,uint256)": "092ae4dc"
  },
  "id": 66
}