{"abi":[{"type":"constructor","inputs":[{"name":"_rideImplementation","type":"address","internalType":"address"},{"name":"trustedForwarder_","type":"address","internalType":"address"},{"name":"_team","type":"address","internalType":"address"}],"stateMutability":"nonpayable"},{"type":"function","name":"allRides","inputs":[{"name":"","type":"uint256","internalType":"uint256"}],"outputs":[{"name":"","type":"address","internalType":"address"}],"stateMutability":"view"},{"type":"function","name":"allRidesLength","inputs":[],"outputs":[{"name":"","type":"uint256","internalType":"uint256"}],"stateMutability":"view"},{"type":"function","name":"deploy","inputs":[{"name":"_params","type":"tuple","internalType":"struct IRoutaEvRideFactory.DeploymentParams","components":[{"name":"_token","type":"address","internalType":"address"},{"name":"_amountPayable","type":"uint256","internalType":"uint256"},{"name":"_feePercentageBps","type":"uint24","internalType":"uint24"},{"name":"_cancellationFeePercentageBps","type":"uint24","internalType":"uint24"},{"name":"_startCoords","type":"tuple","internalType":"struct IRoutaGeo.GeoCoords","components":[{"name":"latitude","type":"int256","internalType":"int256"},{"name":"longitude","type":"int256","internalType":"int256"}]},{"name":"_endCoords","type":"tuple","internalType":"struct IRoutaGeo.GeoCoords","components":[{"name":"latitude","type":"int256","internalType":"int256"},{"name":"longitude","type":"int256","internalType":"int256"}]},{"name":"_packagedData","type":"bytes","internalType":"bytes"},{"name":"_consolidatedSignature","type":"bytes","internalType":"bytes"},{"name":"_messageHash","type":"bytes32","internalType":"bytes32"},{"name":"_offChainReference","type":"string","internalType":"string"}]}],"outputs":[{"name":"ride","type":"address","internalType":"address"}],"stateMutability":"nonpayable"},{"type":"function","name":"isTrustedForwarder","inputs":[{"name":"forwarder","type":"address","internalType":"address"}],"outputs":[{"name":"","type":"bool","internalType":"bool"}],"stateMutability":"view"},{"type":"function","name":"offChainReference","inputs":[{"name":"","type":"string","internalType":"string"}],"outputs":[{"name":"","type":"address","internalType":"address"}],"stateMutability":"view"},{"type":"function","name":"owner","inputs":[],"outputs":[{"name":"","type":"address","internalType":"address"}],"stateMutability":"view"},{"type":"function","name":"renounceOwnership","inputs":[],"outputs":[],"stateMutability":"nonpayable"},{"type":"function","name":"rideImplementation","inputs":[],"outputs":[{"name":"","type":"address","internalType":"address"}],"stateMutability":"view"},{"type":"function","name":"transferOwnership","inputs":[{"name":"newOwner","type":"address","internalType":"address"}],"outputs":[],"stateMutability":"nonpayable"},{"type":"function","name":"trustedForwarder","inputs":[],"outputs":[{"name":"","type":"address","internalType":"address"}],"stateMutability":"view"},{"type":"function","name":"withdrawAsset","inputs":[{"name":"asset","type":"address","internalType":"address"},{"name":"to","type":"address","internalType":"address"},{"name":"amount","type":"uint256","internalType":"uint256"}],"outputs":[],"stateMutability":"nonpayable"},{"type":"event","name":"OwnershipTransferred","inputs":[{"name":"previousOwner","type":"address","indexed":true,"internalType":"address"},{"name":"newOwner","type":"address","indexed":true,"internalType":"address"}],"anonymous":false},{"type":"error","name":"AmountIsZero","inputs":[]},{"type":"error","name":"ECDSAInvalidSignature","inputs":[]},{"type":"error","name":"ECDSAInvalidSignatureLength","inputs":[{"name":"length","type":"uint256","internalType":"uint256"}]},{"type":"error","name":"ECDSAInvalidSignatureS","inputs":[{"name":"s","type":"bytes32","internalType":"bytes32"}]},{"type":"error","name":"FailedDeployment","inputs":[]},{"type":"error","name":"InsufficientBalance","inputs":[{"name":"balance","type":"uint256","internalType":"uint256"},{"name":"needed","type":"uint256","internalType":"uint256"}]},{"type":"error","name":"InvalidPayer","inputs":[]},{"type":"error","name":"InvalidSignature","inputs":[]},{"type":"error","name":"NotContract","inputs":[]},{"type":"error","name":"OwnableInvalidOwner","inputs":[{"name":"owner","type":"address","internalType":"address"}]},{"type":"error","name":"OwnableUnauthorizedAccount","inputs":[{"name":"account","type":"address","internalType":"address"}]},{"type":"error","name":"SafeERC20FailedOperation","inputs":[{"name":"token","type":"address","internalType":"address"}]},{"type":"error","name":"UsedOffChainReference","inputs":[]},{"type":"error","name":"ZeroAddress","inputs":[]}],"bytecode":{"object":"0x60c03461010657601f6113d838819003918201601f19168301916001600160401b0383118484101761010a57808492606094604052833981010312610106576100478161011e565b9061006060406100596020840161011e565b920161011e565b6080919091526001600160a01b03169081156100f3575f80546001600160a01b031981168417825560405193916001600160a01b03909116907f8be0079c531659141344cd1fd0a4f28419497f9722a3daafe3b4186f6b6457e09080a360a0526112a5908161013382396080518181816101670152818161045301526111bf015260a0518181816105d6015261094b0152f35b631e4fbdf760e01b5f525f60045260245ffd5b5f80fd5b634e487b7160e01b5f52604160045260245ffd5b51906001600160a01b03821682036101065756fe60806040526004361015610011575f80fd5b5f3560e01c8063092ae4dc146100c4578063572b6c05146100bf578063715018a6146100ba5780637506f121146100b55780637da0a877146100b05780638c04bd32146100ab5780638da5cb5b146100a6578063c7e2a6d5146100a1578063d6a106e41461009c578063dbd7dbba146100975763f2fde38b14610092575f80fd5b610605565b6105c1565b6105a4565b61054a565b61050f565b6104b1565b61043e565b6102f0565b6101a5565b610143565b6100eb565b6001600160a01b038116036100da57565b5f80fd5b35906100e9826100c9565b565b346100da5760603660031901126100da57600435610108816100c9565b602435610114816100c9565b60443590610120610c63565b6001600160a01b03831661013a576101389250610d6f565b005b61013892610ca9565b346100da5760203660031901126100da576020600435610162816100c9565b6040517f00000000000000000000000000000000000000000000000000000000000000006001600160a01b039081169216919091148152f35b5f9103126100da57565b346100da575f3660031901126100da576101bd610c63565b5f80546001600160a01b0319811682556001600160a01b03167f8be0079c531659141344cd1fd0a4f28419497f9722a3daafe3b4186f6b6457e08280a3005b634e487b7160e01b5f52604160045260245ffd5b90601f8019910116810190811067ffffffffffffffff82111761023257604052565b6101fc565b604051906100e961014083610210565b359062ffffff821682036100da57565b91908260409103126100da576040516040810181811067ffffffffffffffff821117610232576040526020808294803584520135910152565b67ffffffffffffffff811161023257601f01601f191660200190565b81601f820112156100da576020813591016102c682610290565b926102d46040519485610210565b828452828201116100da57815f92602092838601378301015290565b346100da5760203660031901126100da5760043567ffffffffffffffff81116100da5761018060031982360301126100da5761032a610237565b90610337816004016100de565b82526024810135602083015261034f60448201610247565b604083015261036060648201610247565b60608301526103723660848301610257565b60808301526103843660c48301610257565b60a083015261010481013567ffffffffffffffff81116100da576103ae90600436918401016102ac565b60c083015261012481013567ffffffffffffffff81116100da576103d890600436918401016102ac565b60e08301526101448101356101008301526101648101359167ffffffffffffffff83116100da5761041561042092600461043a95369201016102ac565b610120820152610872565b6040516001600160a01b0390911681529081906020820190565b0390f35b346100da575f3660031901126100da576040517f00000000000000000000000000000000000000000000000000000000000000006001600160a01b03168152602090f35b805191908290602001825e015f815290565b60206104a69160405192838092610482565b600281520301902090565b346100da5760203660031901126100da5760043567ffffffffffffffff81116100da576104e460209136906004016102ac565b6104f16040518092610482565b6002815281900382019020546040516001600160a01b039091168152f35b346100da575f3660031901126100da575f546040516001600160a01b039091168152602090f35b634e487b7160e01b5f52603260045260245ffd5b346100da5760203660031901126100da576004356001548110156100da5760015f527fb10e2d527612073b26eecdfd717e6a320cf44b4afac2b0732d9fcbe2b7fa0cf601546040516001600160a01b039091168152602090f35b346100da575f3660031901126100da576020600154604051908152f35b346100da575f3660031901126100da576040517f00000000000000000000000000000000000000000000000000000000000000006001600160a01b03168152602090f35b346100da5760203660031901126100da57600435610622816100c9565b61062a610c63565b6001600160a01b0316801561067b575f80546001600160a01b03198116831782556001600160a01b0316907f8be0079c531659141344cd1fd0a4f28419497f9722a3daafe3b4186f6b6457e09080a3005b631e4fbdf760e01b5f525f60045260245ffd5b936106ef979360209a99979360bc97936001600160601b03199060601b1687526001600160601b03199060601b1660148701526001600160601b03199060601b166028860152603c850152605c840152607c830152609c8201520190610482565b9081520190565b6001546801000000000000000081101561023257600181016001556001548110156107605760015f527fb10e2d527612073b26eecdfd717e6a320cf44b4afac2b0732d9fcbe2b7fa0cf60180546001600160a01b0319166001600160a01b03909216919091179055565b610536565b6001600160a01b03918216815291811660208084019190915292166040820152606081019290925262ffffff92831660808301529290911660a0820152825160c08201529181015160e0830152825161010083015291909101516101208201526101400190565b6040513d5f823e3d90fd5b91906040838203126100da5782519260208101519067ffffffffffffffff82116100da570181601f820112156100da5780519061081382610290565b926108216040519485610210565b828452602083830101116100da57815f9260208093018386015e8301015290565b908160209103126100da5751610857816100c9565b90565b908160209103126100da575180151581036100da5790565b906108d06109819261088760e0820151610e88565b6108ca6108c36101008596949601517f19457468657265756d205369676e6564204d6573736167653a0a3332000000005f52601c52603c5f2090565b9485610f23565b93610f23565b906108da83610f39565b6101208101916108ea8351610f6b565b81516001600160a01b0316926109a0608084019161096f84845161094660208251920151996109388c60a08c019c8d5160208151910151908a5192604051988997602089019b42978d61068e565b03601f198101835282610210565b5190207f0000000000000000000000000000000000000000000000000000000000000000611131565b98899161097b836106f6565b51610494565b80546001600160a01b0319166001600160a01b03909216919091179055565b82516001600160a01b0388811692911692602085019586516109c8604088015162ffffff1690565b916109d9606089015162ffffff1690565b9451905190863b156100da575f958b94610a08946040519a8b98899863efee55e560e01b8a5260048a01610765565b038183855af1918215610bc357610a3e92610c4f575b50610a3660c0840151602080825183010191016107d7565b929092610fa3565b919390610a63610a57610a57885160018060a01b031690565b6001600160a01b031690565b90875190823b156100da5760405163d505accf60e01b81526001600160a01b038b1660048201523060248201526044810192909252606482019390935260ff95909516608486015260a485019190915260c48401919091525f90839060e490829084905af18015610bc357600495602093610af392610c3b575b5084516001600160a01b03168651913091610fc5565b60405163e2fdcc1760e01b815294859182905afa928315610bc3575f93610bf5575b50515f91602091610b6a9190610b3590610a57906001600160a01b031681565b905160405163095ea7b360e01b81526001600160a01b0387166004820152602481019190915293849283919082906044820190565b03925af18015610bc357610bc8575b506001600160a01b0316803b156100da575f8091600460405180948193630d0e30db60e41b83525af18015610bc357610baf5750565b80610bbd5f6100e993610210565b8061019b565b6107cc565b610be99060203d602011610bee575b610be18183610210565b81019061085a565b610b79565b503d610bd7565b60209193505f92610b35610a57610a57610c27610b6a95873d8911610c34575b610c1f8183610210565b810190610842565b9795505050509250610b15565b503d610c15565b80610bbd5f610c4993610210565b5f610add565b80610bbd5f610c5d93610210565b5f610a1e565b5f546001600160a01b0390811690610c79611194565b1603610c8157565b610c89611194565b63118cdaa760e01b5f9081526001600160a01b0391909116600452602490fd5b90918015610d6a576001600160a01b038216928315610d5b576001600160a01b0316918215610d5b573b15610d4c576040519163a9059cbb60e01b5f5260045260245260205f60448180865af160015f5114811615610d2d575b604091909152155b610d125750565b635274afe760e01b5f526001600160a01b031660045260245ffd5b6001811516610d43573d15833b15151616610d03565b503d5f823e3d90fd5b636f7c43f160e01b5f5260045ffd5b63d92e233d60e01b5f5260045ffd5b505050565b6001600160a01b03811615610d5b578115610e05575f80809381935af13d15610e00573d610d9c81610290565b90610daa6040519283610210565b81525f60203d92013e5b15610dbb57565b60405162461bcd60e51b815260206004820152601860248201527f436f756c64206e6f742073656e64206f757420657468657200000000000000006044820152606490fd5b610db4565b5050565b15610e1057565b60405162461bcd60e51b815260206004820152601860248201527f496e76616c6964207369676e6174757265206c656e67746800000000000000006044820152606490fd5b60405160809190610e668382610210565b6041815291601f1901366020840137565b908151811015610760570160200190565b610e956082825114610e09565b610e9d610e55565b91610ea6610e55565b915f5b60418110610eb5575050565b6001600160f81b0319610ec88284610e77565b51165f1a610ed68287610e77565b536041810190818111610f0f576001916001600160f81b031990610efa9085610e77565b51165f1a610f088287610e77565b5301610ea9565b634e487b7160e01b5f52601160045260245ffd5b61085791610f309161105d565b909291926110b5565b6001600160a01b03610f49611194565b166001600160a01b0390911603610f5c57565b638eb5b89160e01b5f5260045ffd5b610f786040518092610482565b600281528190036020019020546001600160a01b0316610f9457565b632db79ccf60e21b5f5260045ffd5b610fb06041825114610e09565b602081015190606060408201519101515f1a92565b6001600160a01b03811693918415610d5b576001600160a01b0316928315610d5b576001600160a01b0316908115610d5b573b15610d4c57811561105757604051926323b872dd60e01b5f5260045260245260445260205f60648180865af160015f5114811615611041575b6040919091525f60605215610d0b565b6001811516610d43573d15833b15151616611031565b50505050565b815191906041830361108d576110869250602082015190606060408401519301515f1a906111ed565b9192909190565b50505f9160029190565b600411156110a157565b634e487b7160e01b5f52602160045260245ffd5b6110be81611097565b806110c7575050565b6110d081611097565b600181036110e75763f645eedf60e01b5f5260045ffd5b6110f081611097565b6002810361110b575063fce698f760e01b5f5260045260245ffd5b80611117600392611097565b1461111f5750565b6335e2f38360e21b5f5260045260245ffd5b6e5af43d82803e903d91602b57fd5bf390763d602d80600a3d3981f3363d3d373d3d3d363d7300000062ffffff8260881c16175f5260781b17602052603760095ff5906001600160a01b0382161561118557565b63b06ebf3d60e01b5f5260045ffd5b6014361015806111bb575b156111b75760131936013681116100da573560601c90565b3390565b50337f00000000000000000000000000000000000000000000000000000000000000006001600160a01b03161461119f565b91907f7fffffffffffffffffffffffffffffff5d576e7357a4501ddfe92f46681b20a08411611264579160209360809260ff5f9560405194855216868401526040830152606082015282805260015afa15610bc3575f516001600160a01b0381161561125a57905f905f90565b505f906001905f90565b5050505f916003919056fea2646970667358221220aae0f1acf1ffe21ff8456f24842fdcf9ba52a0b97fa6178647265ba6ecaee86564736f6c634300081c0033","linkReferences":{}},"methodIdentifiers":{"allRides(uint256)":"c7e2a6d5","allRidesLength()":"d6a106e4","deploy((address,uint256,uint24,uint24,(int256,int256),(int256,int256),bytes,bytes,bytes32,string))":"7506f121","isTrustedForwarder(address)":"572b6c05","offChainReference(string)":"8c04bd32","owner()":"8da5cb5b","renounceOwnership()":"715018a6","rideImplementation()":"dbd7dbba","transferOwnership(address)":"f2fde38b","trustedForwarder()":"7da0a877","withdrawAsset(address,address,uint256)":"092ae4dc"},"id":61}