{
  "abi": [
    {
      "type": "constructor",
      "inputs": [
        {
          "name": "_rideImplementation",
          "type": "address",
          "internalType": "address"
        },
        {
          "name": "trustedForwarder_",
          "type": "address",
          "internalType": "address"
        },
        {
          "name": "_team",
          "type": "address",
          "internalType": "address"
        }
      ],
      "stateMutability": "nonpayable"
    },
    {
      "type": "function",
      "name": "allRides",
      "inputs": [
        {
          "name": "",
          "type": "uint256",
          "internalType": "uint256"
        }
      ],
      "outputs": [
        {
          "name": "",
          "type": "address",
          "internalType": "address"
        }
      ],
      "stateMutability": "view"
    },
    {
      "type": "function",
      "name": "allRidesLength",
      "inputs": [],
      "outputs": [
        {
          "name": "",
          "type": "uint256",
          "internalType": "uint256"
        }
      ],
      "stateMutability": "view"
    },
    {
      "type": "function",
      "name": "deploy",
      "inputs": [
        {
          "name": "_token",
          "type": "address",
          "internalType": "address"
        },
        {
          "name": "_amountPayable",
          "type": "uint256",
          "internalType": "uint256"
        },
        {
          "name": "_feePercentageBps",
          "type": "uint24",
          "internalType": "uint24"
        },
        {
          "name": "_cancellationFeePercentageBps",
          "type": "uint24",
          "internalType": "uint24"
        },
        {
          "name": "_startCoords",
          "type": "tuple",
          "internalType": "struct IRoutaGeo.GeoCoords",
          "components": [
            {
              "name": "latitude",
              "type": "int256",
              "internalType": "int256"
            },
            {
              "name": "longitude",
              "type": "int256",
              "internalType": "int256"
            }
          ]
        },
        {
          "name": "_endCoords",
          "type": "tuple",
          "internalType": "struct IRoutaGeo.GeoCoords",
          "components": [
            {
              "name": "latitude",
              "type": "int256",
              "internalType": "int256"
            },
            {
              "name": "longitude",
              "type": "int256",
              "internalType": "int256"
            }
          ]
        },
        {
          "name": "_packagedData",
          "type": "bytes",
          "internalType": "bytes"
        },
        {
          "name": "_consolidatedSignature",
          "type": "bytes",
          "internalType": "bytes"
        },
        {
          "name": "_messageHash",
          "type": "bytes32",
          "internalType": "bytes32"
        }
      ],
      "outputs": [
        {
          "name": "ride",
          "type": "address",
          "internalType": "address"
        }
      ],
      "stateMutability": "nonpayable"
    },
    {
      "type": "function",
      "name": "isTrustedForwarder",
      "inputs": [
        {
          "name": "forwarder",
          "type": "address",
          "internalType": "address"
        }
      ],
      "outputs": [
        {
          "name": "",
          "type": "bool",
          "internalType": "bool"
        }
      ],
      "stateMutability": "view"
    },
    {
      "type": "function",
      "name": "owner",
      "inputs": [],
      "outputs": [
        {
          "name": "",
          "type": "address",
          "internalType": "address"
        }
      ],
      "stateMutability": "view"
    },
    {
      "type": "function",
      "name": "renounceOwnership",
      "inputs": [],
      "outputs": [],
      "stateMutability": "nonpayable"
    },
    {
      "type": "function",
      "name": "rideImplementation",
      "inputs": [],
      "outputs": [
        {
          "name": "",
          "type": "address",
          "internalType": "address"
        }
      ],
      "stateMutability": "view"
    },
    {
      "type": "function",
      "name": "transferOwnership",
      "inputs": [
        {
          "name": "newOwner",
          "type": "address",
          "internalType": "address"
        }
      ],
      "outputs": [],
      "stateMutability": "nonpayable"
    },
    {
      "type": "function",
      "name": "trustedForwarder",
      "inputs": [],
      "outputs": [
        {
          "name": "",
          "type": "address",
          "internalType": "address"
        }
      ],
      "stateMutability": "view"
    },
    {
      "type": "function",
      "name": "withdrawAsset",
      "inputs": [
        {
          "name": "asset",
          "type": "address",
          "internalType": "address"
        },
        {
          "name": "to",
          "type": "address",
          "internalType": "address"
        },
        {
          "name": "amount",
          "type": "uint256",
          "internalType": "uint256"
        }
      ],
      "outputs": [],
      "stateMutability": "nonpayable"
    },
    {
      "type": "event",
      "name": "OwnershipTransferred",
      "inputs": [
        {
          "name": "previousOwner",
          "type": "address",
          "indexed": true,
          "internalType": "address"
        },
        {
          "name": "newOwner",
          "type": "address",
          "indexed": true,
          "internalType": "address"
        }
      ],
      "anonymous": false
    },
    {
      "type": "error",
      "name": "AmountIsZero",
      "inputs": []
    },
    {
      "type": "error",
      "name": "ECDSAInvalidSignature",
      "inputs": []
    },
    {
      "type": "error",
      "name": "ECDSAInvalidSignatureLength",
      "inputs": [
        {
          "name": "length",
          "type": "uint256",
          "internalType": "uint256"
        }
      ]
    },
    {
      "type": "error",
      "name": "ECDSAInvalidSignatureS",
      "inputs": [
        {
          "name": "s",
          "type": "bytes32",
          "internalType": "bytes32"
        }
      ]
    },
    {
      "type": "error",
      "name": "FailedDeployment",
      "inputs": []
    },
    {
      "type": "error",
      "name": "InsufficientBalance",
      "inputs": [
        {
          "name": "balance",
          "type": "uint256",
          "internalType": "uint256"
        },
        {
          "name": "needed",
          "type": "uint256",
          "internalType": "uint256"
        }
      ]
    },
    {
      "type": "error",
      "name": "InvalidPayer",
      "inputs": []
    },
    {
      "type": "error",
      "name": "InvalidSignature",
      "inputs": []
    },
    {
      "type": "error",
      "name": "NotContract",
      "inputs": []
    },
    {
      "type": "error",
      "name": "OwnableInvalidOwner",
      "inputs": [
        {
          "name": "owner",
          "type": "address",
          "internalType": "address"
        }
      ]
    },
    {
      "type": "error",
      "name": "OwnableUnauthorizedAccount",
      "inputs": [
        {
          "name": "account",
          "type": "address",
          "internalType": "address"
        }
      ]
    },
    {
      "type": "error",
      "name": "SafeERC20FailedOperation",
      "inputs": [
        {
          "name": "token",
          "type": "address",
          "internalType": "address"
        }
      ]
    },
    {
      "type": "error",
      "name": "ZeroAddress",
      "inputs": []
    }
  ],
  "bytecode": {
    "object": "0x60c03461010657601f6110fb38819003918201601f19168301916001600160401b0383118484101761010a57808492606094604052833981010312610106576100478161011e565b9061006060406100596020840161011e565b920161011e565b6080919091526001600160a01b03169081156100f3575f80546001600160a01b031981168417825560405193916001600160a01b03909116907f8be0079c531659141344cd1fd0a4f28419497f9722a3daafe3b4186f6b6457e09080a360a052610fc8908161013382396080518181816102fa015281816103a40152610ee2015260a05181818161048601526108090152f35b631e4fbdf760e01b5f525f60045260245ffd5b5f80fd5b634e487b7160e01b5f52604160045260245ffd5b51906001600160a01b03821682036101065756fe60806040526004361015610011575f80fd5b5f3560e01c8063092ae4dc146100b45780634b1fb808146100af578063572b6c05146100aa578063715018a6146100a55780637da0a877146100a05780638da5cb5b1461009b578063c7e2a6d514610096578063d6a106e414610091578063dbd7dbba1461008c5763f2fde38b14610087575f80fd5b6104b5565b610471565b610454565b6103fa565b6103d3565b61038f565b610338565b6102d6565b61021a565b3461010c57606036600319011261010c576004356100d181610110565b6024356100dd81610110565b604435906100e9610a63565b6001600160a01b038316610103576101019250610b6f565b005b61010192610aa9565b5f80fd5b6001600160a01b0381160361010c57565b6044359062ffffff8216820361010c57565b6064359062ffffff8216820361010c57565b634e487b7160e01b5f52604160045260245ffd5b6040810190811067ffffffffffffffff82111761017557604052565b610145565b90601f8019910116810190811067ffffffffffffffff82111761017557604052565b604090608319011261010c57604051906101b582610159565b608435825260a4356020830152565b60409060c319011261010c57604051906101dd82610159565b60c435825260e4356020830152565b9181601f8401121561010c5782359167ffffffffffffffff831161010c576020838186019501011161010c57565b3461010c5761016036600319011261010c5760043561023881610110565b602435610243610121565b9161024c610133565b926102563661019c565b92610260366101c4565b6101043567ffffffffffffffff811161010c576102819036906004016101ec565b91610124359667ffffffffffffffff881161010c576102d2986102ab6102b89936906004016101ec565b97909661014435996106f2565b6040516001600160a01b0390911681529081906020820190565b0390f35b3461010c57602036600319011261010c5760206004356102f581610110565b6040517f00000000000000000000000000000000000000000000000000000000000000006001600160a01b039081169216919091148152f35b5f91031261010c57565b3461010c575f36600319011261010c57610350610a63565b5f80546001600160a01b0319811682556001600160a01b03167f8be0079c531659141344cd1fd0a4f28419497f9722a3daafe3b4186f6b6457e08280a3005b3461010c575f36600319011261010c576040517f00000000000000000000000000000000000000000000000000000000000000006001600160a01b03168152602090f35b3461010c575f36600319011261010c575f546040516001600160a01b039091168152602090f35b3461010c57602036600319011261010c5760043560015481101561010c5760015f527fb10e2d527612073b26eecdfd717e6a320cf44b4afac2b0732d9fcbe2b7fa0cf601546040516001600160a01b039091168152602090f35b3461010c575f36600319011261010c576020600154604051908152f35b3461010c575f36600319011261010c576040517f00000000000000000000000000000000000000000000000000000000000000006001600160a01b03168152602090f35b3461010c57602036600319011261010c576004356104d281610110565b6104da610a63565b6001600160a01b0316801561052b575f80546001600160a01b03198116831782556001600160a01b0316907f8be0079c531659141344cd1fd0a4f28419497f9722a3daafe3b4186f6b6457e09080a3005b631e4fbdf760e01b5f525f60045260245ffd5b67ffffffffffffffff811161017557601f01601f191660200190565b9291926105668261053e565b91610574604051938461017a565b82948184528183011161010c578281602093845f960137010152565b6001546801000000000000000081101561017557600181016001556001548110156105fa5760015f527fb10e2d527612073b26eecdfd717e6a320cf44b4afac2b0732d9fcbe2b7fa0cf60180546001600160a01b0319166001600160a01b03909216919091179055565b634e487b7160e01b5f52603260045260245ffd5b6001600160a01b03918216815291811660208084019190915292166040820152606081019290925262ffffff92831660808301529290911660a0820152825160c08201529181015160e0830152825161010083015291909101516101208201526101400190565b565b6040513d5f823e3d90fd5b919060408382031261010c5782359260208101359067ffffffffffffffff821161010c57019080601f8301121561010c578160206106c29335910161055a565b90565b9081602091031261010c57516106c281610110565b9081602091031261010c5751801515810361010c5790565b9861075e61075097949c9b61075661071561074894610764969c99979a9d610c55565b9c92919690947f19457468657265756d205369676e6564204d6573736167653a0a3332000000005f52601c52603c5f2090565b95369161055a565b84610c7e565b98369161055a565b90610c7e565b61076d86610c94565b61082d898961080485516107f68b602089015194602081519101519060405196879560208701998c42968c969492909160dc989694926001600160601b03199060601b1688526001600160601b03199060601b1660148801526001600160601b03199060601b166028870152603c860152605c850152607c840152609c83015260bc8201520190565b03601f19810183528261017a565b5190207f0000000000000000000000000000000000000000000000000000000000000000610e54565b9a6108378c610590565b6001600160a01b038c1695863b1561010c578a995f94899361086f938c6040519e8f98899863efee55e560e01b8a5260048a0161060e565b038183875af19182156109cf5761089a9661089293610a4f575b50810190610682565b949094610cc6565b6001600160a01b0388169691929091873b1561010c5760405163d505accf60e01b81526001600160a01b038716600482015230602482015260448101889052606481019190915260ff91909116608482015260a481019290925260c48201525f8160e48183895af180156109cf57600496602094610921938793610a3b575b503091610ce8565b60405163e2fdcc1760e01b815294859182905afa9283156109cf575f93610a01575b5060405163095ea7b360e01b81526001600160a01b03841660048201526024810191909152906020908290815f81604481015b03925af180156109cf576109d4575b506001600160a01b0316803b1561010c575f8091600460405180948193630d0e30db60e41b83525af180156109cf576109bb5750565b806109c95f6106759361017a565b8061032e565b610677565b6109f59060203d6020116109fa575b6109ed818361017a565b8101906106da565b610985565b503d6109e3565b60209193505f92610a2a61097692843d8611610a34575b610a22818361017a565b8101906106c5565b9492509250610943565b503d610a18565b806109c95f610a499361017a565b5f610919565b806109c95f610a5d9361017a565b5f610889565b5f546001600160a01b0390811690610a79610eb7565b1603610a8157565b610a89610eb7565b63118cdaa760e01b5f9081526001600160a01b0391909116600452602490fd5b90918015610b6a576001600160a01b038216928315610b5b576001600160a01b0316918215610b5b573b15610b4c576040519163a9059cbb60e01b5f5260045260245260205f60448180865af160015f5114811615610b2d575b604091909152155b610b125750565b635274afe760e01b5f526001600160a01b031660045260245ffd5b6001811516610b43573d15833b15151616610b03565b503d5f823e3d90fd5b636f7c43f160e01b5f5260045ffd5b63d92e233d60e01b5f5260045ffd5b505050565b6001600160a01b03811615610b5b578115610c05575f80809381935af13d15610c00573d610b9c8161053e565b90610baa604051928361017a565b81525f60203d92013e5b15610bbb57565b60405162461bcd60e51b815260206004820152601860248201527f436f756c64206e6f742073656e64206f757420657468657200000000000000006044820152606490fd5b610bb4565b5050565b15610c1057565b60405162461bcd60e51b815260206004820152601860248201527f496e76616c6964207369676e6174757265206c656e67746800000000000000006044820152606490fd5b91610c6260828314610c09565b8160411161010c578260419260821161010c5760410190604190565b6106c291610c8b91610d80565b90929192610dd8565b6001600160a01b03610ca4610eb7565b166001600160a01b0390911603610cb757565b638eb5b89160e01b5f5260045ffd5b610cd36041825114610c09565b602081015190606060408201519101515f1a92565b6001600160a01b03811693918415610b5b576001600160a01b0316928315610b5b576001600160a01b0316908115610b5b573b15610b4c578115610d7a57604051926323b872dd60e01b5f5260045260245260445260205f60648180865af160015f5114811615610d64575b6040919091525f60605215610b0b565b6001811516610b43573d15833b15151616610d54565b50505050565b8151919060418303610db057610da99250602082015190606060408401519301515f1a90610f10565b9192909190565b50505f9160029190565b60041115610dc457565b634e487b7160e01b5f52602160045260245ffd5b610de181610dba565b80610dea575050565b610df381610dba565b60018103610e0a5763f645eedf60e01b5f5260045ffd5b610e1381610dba565b60028103610e2e575063fce698f760e01b5f5260045260245ffd5b80610e3a600392610dba565b14610e425750565b6335e2f38360e21b5f5260045260245ffd5b6e5af43d82803e903d91602b57fd5bf390763d602d80600a3d3981f3363d3d373d3d3d363d7300000062ffffff8260881c16175f5260781b17602052603760095ff5906001600160a01b03821615610ea857565b63b06ebf3d60e01b5f5260045ffd5b601436101580610ede575b15610eda57601319360136811161010c573560601c90565b3390565b50337f00000000000000000000000000000000000000000000000000000000000000006001600160a01b031614610ec2565b91907f7fffffffffffffffffffffffffffffff5d576e7357a4501ddfe92f46681b20a08411610f87579160209360809260ff5f9560405194855216868401526040830152606082015282805260015afa156109cf575f516001600160a01b03811615610f7d57905f905f90565b505f906001905f90565b5050505f916003919056fea2646970667358221220a71e97d6564adc82fef7aa59a3f51f703cd9faf1faab7c2fed9b83ccde89d12564736f6c634300081c0033",
    "linkReferences": {}
  },
  "methodIdentifiers": {
    "allRides(uint256)": "c7e2a6d5",
    "allRidesLength()": "d6a106e4",
    "deploy(address,uint256,uint24,uint24,(int256,int256),(int256,int256),bytes,bytes,bytes32)": "4b1fb808",
    "isTrustedForwarder(address)": "572b6c05",
    "owner()": "8da5cb5b",
    "renounceOwnership()": "715018a6",
    "rideImplementation()": "dbd7dbba",
    "transferOwnership(address)": "f2fde38b",
    "trustedForwarder()": "7da0a877",
    "withdrawAsset(address,address,uint256)": "092ae4dc"
  },
  "id": 36
}