{"abi":[{"type":"constructor","inputs":[{"name":"trustedForwarder_","type":"address","internalType":"address"}],"stateMutability":"nonpayable"},{"type":"function","name":"BASE_BPS","inputs":[],"outputs":[{"name":"","type":"uint24","internalType":"uint24"}],"stateMutability":"view"},{"type":"function","name":"amountPayable","inputs":[],"outputs":[{"name":"","type":"uint256","internalType":"uint256"}],"stateMutability":"view"},{"type":"function","name":"cancel","inputs":[{"name":"signature","type":"bytes","internalType":"bytes"}],"outputs":[],"stateMutability":"nonpayable"},{"type":"function","name":"cancellationFeeBps","inputs":[],"outputs":[{"name":"","type":"uint24","internalType":"uint24"}],"stateMutability":"view"},{"type":"function","name":"driver","inputs":[],"outputs":[{"name":"","type":"address","internalType":"address"}],"stateMutability":"view"},{"type":"function","name":"emergencyCancel","inputs":[{"name":"_payerAmount","type":"uint256","internalType":"uint256"},{"name":"_driverAmount","type":"uint256","internalType":"uint256"}],"outputs":[],"stateMutability":"nonpayable"},{"type":"function","name":"endCoords","inputs":[],"outputs":[{"name":"lat","type":"int256","internalType":"int256"},{"name":"lng","type":"int256","internalType":"int256"}],"stateMutability":"view"},{"type":"function","name":"endLat","inputs":[],"outputs":[{"name":"","type":"int256","internalType":"int256"}],"stateMutability":"view"},{"type":"function","name":"endLng","inputs":[],"outputs":[{"name":"","type":"int256","internalType":"int256"}],"stateMutability":"view"},{"type":"function","name":"endTime","inputs":[],"outputs":[{"name":"","type":"uint256","internalType":"uint256"}],"stateMutability":"view"},{"type":"function","name":"escrow","inputs":[],"outputs":[{"name":"","type":"address","internalType":"address"}],"stateMutability":"view"},{"type":"function","name":"factory","inputs":[],"outputs":[{"name":"","type":"address","internalType":"address"}],"stateMutability":"view"},{"type":"function","name":"feeBps","inputs":[],"outputs":[{"name":"","type":"uint24","internalType":"uint24"}],"stateMutability":"view"},{"type":"function","name":"feePaid","inputs":[],"outputs":[{"name":"","type":"uint256","internalType":"uint256"}],"stateMutability":"view"},{"type":"function","name":"fulfill","inputs":[{"name":"signature","type":"bytes","internalType":"bytes"}],"outputs":[],"stateMutability":"nonpayable"},{"type":"function","name":"initialize","inputs":[{"name":"_payer","type":"address","internalType":"address"},{"name":"_driver","type":"address","internalType":"address"},{"name":"_token","type":"address","internalType":"address"},{"name":"_amountPayable","type":"uint256","internalType":"uint256"},{"name":"_feeBps","type":"uint24","internalType":"uint24"},{"name":"_cancellationFeeBps","type":"uint24","internalType":"uint24"},{"name":"_startCoords","type":"tuple","internalType":"struct IRoutaGeo.GeoCoords","components":[{"name":"latitude","type":"int256","internalType":"int256"},{"name":"longitude","type":"int256","internalType":"int256"}]},{"name":"_endCoords","type":"tuple","internalType":"struct IRoutaGeo.GeoCoords","components":[{"name":"latitude","type":"int256","internalType":"int256"},{"name":"longitude","type":"int256","internalType":"int256"}]}],"outputs":[],"stateMutability":"nonpayable"},{"type":"function","name":"isTrustedForwarder","inputs":[{"name":"forwarder","type":"address","internalType":"address"}],"outputs":[{"name":"","type":"bool","internalType":"bool"}],"stateMutability":"view"},{"type":"function","name":"payer","inputs":[],"outputs":[{"name":"","type":"address","internalType":"address"}],"stateMutability":"view"},{"type":"function","name":"startCoords","inputs":[],"outputs":[{"name":"lat","type":"int256","internalType":"int256"},{"name":"lng","type":"int256","internalType":"int256"}],"stateMutability":"view"},{"type":"function","name":"startLat","inputs":[],"outputs":[{"name":"","type":"int256","internalType":"int256"}],"stateMutability":"view"},{"type":"function","name":"startLng","inputs":[],"outputs":[{"name":"","type":"int256","internalType":"int256"}],"stateMutability":"view"},{"type":"function","name":"startTime","inputs":[],"outputs":[{"name":"","type":"uint256","internalType":"uint256"}],"stateMutability":"view"},{"type":"function","name":"status","inputs":[],"outputs":[{"name":"","type":"uint8","internalType":"enum IRoutaEvRide.Status"}],"stateMutability":"view"},{"type":"function","name":"trustedForwarder","inputs":[],"outputs":[{"name":"","type":"address","internalType":"address"}],"stateMutability":"view"},{"type":"event","name":"StatusChanged","inputs":[{"name":"status","type":"uint8","indexed":false,"internalType":"enum IRoutaEvRide.Status"},{"name":"timestamp","type":"uint256","indexed":false,"internalType":"uint256"}],"anonymous":false},{"type":"error","name":"AlreadyInitialized","inputs":[]},{"type":"error","name":"AlreadySignedAction","inputs":[]},{"type":"error","name":"ECDSAInvalidSignature","inputs":[]},{"type":"error","name":"ECDSAInvalidSignatureLength","inputs":[{"name":"length","type":"uint256","internalType":"uint256"}]},{"type":"error","name":"ECDSAInvalidSignatureS","inputs":[{"name":"s","type":"bytes32","internalType":"bytes32"}]},{"type":"error","name":"InvalidAction","inputs":[]},{"type":"error","name":"NotAContract","inputs":[]},{"type":"error","name":"NotAllowed","inputs":[]},{"type":"error","name":"OnlyTeam","inputs":[]}],"bytecode":{"object":"0x60a034607457601f611f7638819003918201601f19168301916001600160401b03831184841017607857808492602094604052833981010312607457516001600160a01b0381168103607457608052604051611ee9908161008d82396080518181816107bf0152818161087301526114ec0152f35b5f80fd5b634e487b7160e01b5f52604160045260245ffdfe6080806040526004361015610012575f80fd5b5f905f3560e01c90816304d97a511461135057508063123119cd14611329578063144f725e14610d9c578063200d2ed214610d5c57806324a9d85314610d395780633197cbb614610d1b57806334dc96c514610cfd5780633c5beeb4146108c55780634c86570c146108a7578063572b6c05146108525780636142d409146108355780636ecc5d621461080c57806378e97925146107ee5780637da0a877146107a95780638fbd8d3f1461078b57806395305683146107655780639d50d1341461045d578063a85b898114610438578063ac7c57801461041a578063b64faff3146103fc578063c45a0155146103d3578063e09c95ee146103ae578063e2fdcc17146103855763efee55e514610126575f80fd5b346103825761014036600319011261038257610140611420565b6024356001600160a01b0381169190829003610380576044356001600160a01b0381169290919083830361037c5760643560843562ffffff81168091036103785760a4359162ffffff831683036103745760403660c319011261037457604051916101aa8361136a565b60c4358352602083019360e435855260406101031936011261037057604051956101d38761136a565b61010435875261012435602088019081526002549098906001600160a01b031661036257600d805460ff191690558b546001600160a01b03199081166001600160a01b03928316178d556001805490911690921790915565ffffff000000919061023b6114c1565b166bffffffffffffffffffffffff60a01b6002541617600255610276600854946127108d610269838861148d565b90500490816007556114b4565b60065560181b169165ffffffffffff191617176008555160095551600a5551600b5551600c553b1561035357426004556040519061087d908183019183831067ffffffffffffffff84111761033f579183916020936116378439815203019082f080156103325760018060a01b03166bffffffffffffffffffffffff60a01b60035416176003557f40a180796b90921dd8508eb434c78206ca5c737a0d584582edf399bc9711d9e960406004548151908482526020820152a180f35b50604051903d90823e3d90fd5b634e487b7160e01b85526041600452602485fd5b6309ee12d560e01b8252600482fd5b62dc149f60e41b8c5260048cfd5b8980fd5b8780fd5b8680fd5b8480fd5b825b80fd5b50346103825780600319360112610382576003546040516001600160a01b039091168152602090f35b50346103825780600319360112610382576040600954600a5482519182526020820152f35b50346103825780600319360112610382576002546040516001600160a01b039091168152602090f35b50346103825780600319360112610382576020600c54604051908152f35b50346103825780600319360112610382576020600754604051908152f35b50346103825780600319360112610382576040600b54600c5482519182526020820152f35b50346103825760403660031901126103825760043560243561047d6114c1565b600254604051638da5cb5b60e01b815290602090829060049082906001600160a01b03165afa90811561075a57859161073b575b506001600160a01b0390811691160361072c5780820180831161071857600654036106e157600354835484936001600160a01b039283169290911690823b1561037c5760405163581aafa760e01b81526001600160a01b0392909216600483015260248201529083908290604490829084905af19081156106a95783916106c9575b50506003546001546001600160a01b0391821692911690823b156106755760405163581aafa760e01b81526001600160a01b0392909216600483015260248201529082908290604490829084905af1801561066a576106b4575b5060035460405163011a412160e61b81526001600160a01b0390911690602081600481855afa9081156106a957839161067a575b50600754823b156106755760405163581aafa760e01b81526001600160a01b0392909216600483015260248201529082908290604490829084905af1801561066a57610655575b504260055561061f600260ff19600d541617600d55565b7f40a180796b90921dd8508eb434c78206ca5c737a0d584582edf399bc9711d9e96040600554815190600282526020820152a180f35b8161065f91611386565b61038257805f610608565b6040513d84823e3d90fd5b505050fd5b61069c915060203d6020116106a2575b6106948183611386565b81019061146e565b5f6105c1565b503d61068a565b6040513d85823e3d90fd5b816106be91611386565b61038257805f61058d565b816106d391611386565b6106de57815f610533565b50fd5b60405162461bcd60e51b815260206004820152600f60248201526e496e76616c696420616d6f756e747360881b6044820152606490fd5b634e487b7160e01b84526011600452602484fd5b637c26a7ed60e11b8352600483fd5b610754915060203d6020116106a2576106948183611386565b5f6104b1565b6040513d87823e3d90fd5b5034610382578060031936011261038257602062ffffff60085460181c16604051908152f35b50346103825780600319360112610382576020600954604051908152f35b50346103825780600319360112610382576040517f00000000000000000000000000000000000000000000000000000000000000006001600160a01b03168152602090f35b50346103825780600319360112610382576020600454604051908152f35b50346103825780600319360112610382576001546040516001600160a01b039091168152602090f35b503461038257806003193601126103825760206040516127108152f35b503461038257602036600319011261038257602061086e611420565b6040517f00000000000000000000000000000000000000000000000000000000000000006001600160a01b039081169216919091148152f35b50346103825780600319360112610382576020600b54604051908152f35b5034610382576108d4366113a8565b61094261093960405160208101906d149bdd5d18515d8e98d85b98d95b60921b8252600e8152610905602e82611386565b519020927f19457468657265756d205369676e6564204d6573736167653a0a333200000000855283601c52603c852061151a565b90929192611554565b600f54828115159182610cf2575b5050610ce35782546001600160a01b039081169116808214801580610cce575b610cab5760ff600d54166003811015610cba57610cab578492919015610b7c5750506127106109ac62ffffff60085460181c166006549061148d565b60035460015492909104916001600160a01b039081169116803b15610b2f5760405163581aafa760e01b81526001600160a01b039290921660048301526024820183905283908290604490829084905af19081156106a9578391610b67575b5050610a19906006546114b4565b60035482546001600160a01b0391821692911690823b15610b2f5760405163581aafa760e01b81526001600160a01b0392909216600483015260248201529082908290604490829084905af1801561066a57610b52575b5060035460405163011a412160e61b81526001600160a01b0390911690602081600481855afa9081156106a9578391610b33575b50600754823b15610b2f5760405163581aafa760e01b81526001600160a01b0392909216600483015260248201529082908290604490829084905af1801561066a57610b16575b50505b600f5415610b0d57504260055561061f600260ff19600d541617600d55565b600f555f610608565b81610b2091611386565b610b2b57815f610aeb565b5080fd5b8380fd5b610b4c915060203d6020116106a2576106948183611386565b5f610aa4565b81610b5c91611386565b610b2b57815f610a70565b81610b7191611386565b610b2b57815f610a0b565b6001546001600160a01b031614610b95575b5050610aee565b60018060a01b036003541690600654823b15610b2f5760405163581aafa760e01b81526001600160a01b0392909216600483015260248201529082908290604490829084905af1801561066a57610c96575b5060035460405163011a412160e61b81526001600160a01b0390911690602081600481855afa9081156106a9578391610c77575b50600754823b15610b2f5760405163581aafa760e01b81526001600160a01b0392909216600483015260248201529082908290604490829084905af1801561066a5715610b8e5781610c6c91611386565b610b2b57815f610b8e565b610c90915060203d6020116106a2576106948183611386565b5f610c1b565b81610ca091611386565b610b2b57815f610be7565b631eb49d6d60e11b8552600485fd5b634e487b7160e01b86526021600452602486fd5b506001546001600160a01b0316821415610970565b634a7f394f60e01b8352600483fd5b14159050825f610950565b50346103825780600319360112610382576020600654604051908152f35b50346103825780600319360112610382576020600554604051908152f35b5034610382578060031936011261038257602062ffffff60085416604051908152f35b503461038257806003193601126103825760ff600d5416604051906003811015610d8857602092508152f35b634e487b7160e01b83526021600452602483fd5b50346110d557610dab366113a8565b610e1b60405160208101906e149bdd5d18515d8e999d5b199a5b1b608a1b8252600f8152610dda602f82611386565b519020917f19457468657265756d205369676e6564204d6573736167653a0a3332000000005f5282601c52610e1281603c5f2061151a565b90939193611554565b600f5483811515918261131e575b505061130f575f546001600160a01b039283169216821415806112fa575b6112d75760ff600d541660038110156112e6576112d757815f52600e60205260405f206040515f9181815493610e7c85611436565b9283835260208301956001811690815f146112b85750600114611274575b50610ea792500382611386565b5190209060209260405192610ebc8585611386565b5f8452848401601f198601948536833751902003611265575f52600e835260405f209080519067ffffffffffffffff8211611251578190610efd8454611436565b601f8111611203575b508590601f83116001146111a0575f92611195575b50508160011b915f199060031b1c19161790555b60018060a01b035f54165f52600e825260405f206040515f9181815493610f5585611436565b9283835287830195886001821691825f1461117757505060011461113b575b50610f8192500382611386565b519020604051610f918482611386565b5f8152838101908336833751902014159060018060a01b03600154165f52600e835260405f206040515f9181815493610fc985611436565b9283835288830195896001821691825f1461111d5750506001146110e1575b50610ff592500382611386565b519020906040516110068582611386565b5f8152848101913683375190201415816110d9575b50611034575b50600f541561102e575080f35b600f5580f35b6003546001600160a01b0316803b156110d5575f80916004604051809481936331de8ea560e11b83525af180156110ca576110b4575b5060407f40a180796b90921dd8508eb434c78206ca5c737a0d584582edf399bc9711d9e99142600555600160ff19600d541617600d5560055482519160018352820152a15f611021565b6110c19193505f90611386565b5f91604061106a565b6040513d5f823e3d90fd5b5f80fd5b90505f61101b565b9150505f528186805f205f905b8482106111045750610ff593508201015f610fe8565b60019193508054838588010152019101879084926110ee565b60ff19168852610ff595151560051b85010192505f9150610fe89050565b9150505f528185805f205f905b84821061115e5750610f8193508201015f610f74565b6001919350805483858801015201910186908492611148565b60ff19168852610f8195151560051b85010192505f9150610f749050565b015190505f80610f1b565b5f8581528781209350601f198516905b888282106111ed5750509084600195949392106111d5575b505050811b019055610f2f565b01515f1960f88460031b161c191690555f80806111c8565b60018596829396860151815501950193016111b0565b909150835f52855f20601f840160051c810191878510611247575b90601f859493920160051c01905b8181106112395750610f06565b5f815584935060010161122c565b909150819061121e565b634e487b7160e01b5f52604160045260245ffd5b63f90fc89b60e01b5f5260045ffd5b90505f9291925260205f20905f915b81831061129c575050906020610ea7928201015f610e9a565b6020919350806001915483858801015201910190918392611283565b60ff1916875250610ea793151560051b830160200191505f9050610e9a565b631eb49d6d60e11b5f5260045ffd5b634e487b7160e01b5f52602160045260245ffd5b506001546001600160a01b0316821415610e47565b634a7f394f60e01b5f5260045ffd5b14159050835f610e29565b346110d5575f3660031901126110d5575f546040516001600160a01b039091168152602090f35b346110d5575f3660031901126110d557602090600a548152f35b6040810190811067ffffffffffffffff82111761125157604052565b90601f8019910116810190811067ffffffffffffffff82111761125157604052565b60206003198201126110d55760043567ffffffffffffffff81116110d557816023820112156110d55780600401359067ffffffffffffffff821161125157604051926113fe601f8401601f191660200185611386565b828452602483830101116110d557815f92602460209301838601378301015290565b600435906001600160a01b03821682036110d557565b90600182811c92168015611464575b602083101461145057565b634e487b7160e01b5f52602260045260245ffd5b91607f1691611445565b908160209103126110d557516001600160a01b03811681036110d55790565b818102929181159184041417156114a057565b634e487b7160e01b5f52601160045260245ffd5b919082039182116114a057565b6014361015806114e8575b156114e45760131936013681116110d5573560601c90565b3390565b50337f00000000000000000000000000000000000000000000000000000000000000006001600160a01b0316146114cc565b815191906041830361154a576115439250602082015190606060408401519301515f1a906115b4565b9192909190565b50505f9160029190565b60048110156112e65780611566575050565b6001810361157d5763f645eedf60e01b5f5260045ffd5b60028103611598575063fce698f760e01b5f5260045260245ffd5b6003146115a25750565b6335e2f38360e21b5f5260045260245ffd5b91907f7fffffffffffffffffffffffffffffff5d576e7357a4501ddfe92f46681b20a0841161162b579160209360809260ff5f9560405194855216868401526040830152606082015282805260015afa156110ca575f516001600160a01b0381161561162157905f905f90565b505f906001905f90565b5050505f916003919056fe60e0806040523461013b5761002a9061087d8038038091610020828561013f565b8339810190610176565b6080523360a05260405163c45a015560e01b8152602081600481335afa908115610113576004916020915f9161011e575b50604051638da5cb5b60e01b815292839182906001600160a01b03165afa908115610113575f916100e4575b5060c0526040516106e7908161019682396080518181816073015281816101740152818161035e01526104a1015260a05181818160c501528181610275015281816102b60152610469015260c05181818161038601526104d70152f35b610106915060203d60201161010c575b6100fe818361013f565b810190610176565b5f610087565b503d6100f4565b6040513d5f823e3d90fd5b6101359150823d841161010c576100fe818361013f565b5f61005b565b5f80fd5b601f909101601f19168101906001600160401b0382119082101761016257604052565b634e487b7160e01b5f52604160045260245ffd5b9081602091031261013b57516001600160a01b038116810361013b579056fe6080806040526004361015610012575f80fd5b5f3560e01c90816346904840146104c557508063581aafa71461044357806363bd1d4a146102a4578063c45a015514610260578063d0e30db0146100a65763fc0c546a1461005e575f80fd5b346100a2575f3660031901126100a2576040517f00000000000000000000000000000000000000000000000000000000000000006001600160a01b03168152602090f35b5f80fd5b346100a2575f3660031901126100a25760405163c45a015560e01b81527f00000000000000000000000000000000000000000000000000000000000000006001600160a01b031690602081600481855afa9081156101f1575f91610231575b506040516334dc96c560e01b815290602082600481865afa9182156101f1575f926101fc575b5060206004929360405193848092630158f8af60e71b82525afa9182156101f1575f926101bd575b506001600160a01b031633036101ae57810180911161019a576101989030337f0000000000000000000000000000000000000000000000000000000000000000610617565b005b634e487b7160e01b5f52601160045260245ffd5b63182324f160e01b5f5260045ffd5b9091506020813d6020116101e9575b816101d960209383610506565b810103126100a257519083610153565b3d91506101cc565b6040513d5f823e3d90fd5b91506020823d602011610229575b8161021760209383610506565b810103126100a257905190602061012b565b3d915061020a565b610253915060203d602011610259575b61024b8183610506565b81019061053c565b82610105565b503d610241565b346100a2575f3660031901126100a2576040517f00000000000000000000000000000000000000000000000000000000000000006001600160a01b03168152602090f35b346100a2575f3660031901126100a2577f00000000000000000000000000000000000000000000000000000000000000006001600160a01b03163303610434576040516334dc96c560e01b8152602081600481335afa9081156101f1575f91610402575b50604051630158f8af60e71b8152602081600481335afa9081156101f1575f916103d0575b506040516337662eb160e11b815291602083600481335afa9081156101f157610198935f926103ab575b50610384907f0000000000000000000000000000000000000000000000000000000000000000928361055b565b7f00000000000000000000000000000000000000000000000000000000000000009061055b565b6103849192506103c99060203d6020116102595761024b8183610506565b9190610357565b90506020813d6020116103fa575b816103eb60209383610506565b810103126100a257518261032d565b3d91506103de565b90506020813d60201161042c575b8161041d60209383610506565b810103126100a2575181610308565b3d9150610410565b630636a15760e11b5f5260045ffd5b346100a25760403660031901126100a2576004356001600160a01b03811681036100a2577f00000000000000000000000000000000000000000000000000000000000000006001600160a01b031633036104345761019890602435907f000000000000000000000000000000000000000000000000000000000000000061055b565b346100a2575f3660031901126100a2577f00000000000000000000000000000000000000000000000000000000000000006001600160a01b03168152602090f35b90601f8019910116810190811067ffffffffffffffff82111761052857604052565b634e487b7160e01b5f52604160045260245ffd5b908160209103126100a257516001600160a01b03811681036100a25790565b90918015610612576001600160a01b038216928315610603576001600160a01b0316918215610603573b156105f4576040519163a9059cbb60e01b5f5260045260245260205f60448180865af19060015f51148216156105d3575b604052156105c15750565b635274afe760e01b5f5260045260245ffd5b9060018115166105eb57823b15153d151616906105b6565b503d5f823e3d90fd5b636f7c43f160e01b5f5260045ffd5b63d92e233d60e01b5f5260045ffd5b505050565b6001600160a01b03811693918415610603576001600160a01b0316928315610603576001600160a01b0316908115610603573b156105f45781156106ab57604051926323b872dd60e01b5f5260045260245260445260205f60648180865af19060015f5114821615610693575b6040525f606052156105c15750565b9060018115166105eb57823b15153d15161690610684565b5050505056fea2646970667358221220e2698fcc818289662e7dcb9aeae77e4912e44188f6f6103236672576e9db678b64736f6c634300081c0033a26469706673582212202b22b897b7d6faf7ee484f4c1d18f828215c485a22f48e7a6a71d96ee6a37ed064736f6c634300081c0033","linkReferences":{}},"methodIdentifiers":{"BASE_BPS()":"6142d409","amountPayable()":"34dc96c5","cancel(bytes)":"3c5beeb4","cancellationFeeBps()":"95305683","driver()":"6ecc5d62","emergencyCancel(uint256,uint256)":"9d50d134","endCoords()":"a85b8981","endLat()":"4c86570c","endLng()":"b64faff3","endTime()":"3197cbb6","escrow()":"e2fdcc17","factory()":"c45a0155","feeBps()":"24a9d853","feePaid()":"ac7c5780","fulfill(bytes)":"144f725e","initialize(address,address,address,uint256,uint24,uint24,(int256,int256),(int256,int256))":"efee55e5","isTrustedForwarder(address)":"572b6c05","payer()":"123119cd","startCoords()":"e09c95ee","startLat()":"8fbd8d3f","startLng()":"04d97a51","startTime()":"78e97925","status()":"200d2ed2","trustedForwarder()":"7da0a877"},"id":34}