{"abi":[{"type":"constructor","inputs":[{"name":"trustedForwarder_","type":"address","internalType":"address"}],"stateMutability":"nonpayable"},{"type":"function","name":"actionType","inputs":[],"outputs":[{"name":"","type":"uint8","internalType":"enum IRoutaEvRide.ActionType"}],"stateMutability":"view"},{"type":"function","name":"amountPayable","inputs":[],"outputs":[{"name":"","type":"uint256","internalType":"uint256"}],"stateMutability":"view"},{"type":"function","name":"cancel","inputs":[{"name":"signature","type":"bytes","internalType":"bytes"}],"outputs":[],"stateMutability":"nonpayable"},{"type":"function","name":"cancellationFeeBps","inputs":[],"outputs":[{"name":"","type":"uint24","internalType":"uint24"}],"stateMutability":"view"},{"type":"function","name":"driver","inputs":[],"outputs":[{"name":"","type":"address","internalType":"address"}],"stateMutability":"view"},{"type":"function","name":"eip712Domain","inputs":[],"outputs":[{"name":"fields","type":"bytes1","internalType":"bytes1"},{"name":"name","type":"string","internalType":"string"},{"name":"version","type":"string","internalType":"string"},{"name":"chainId","type":"uint256","internalType":"uint256"},{"name":"verifyingContract","type":"address","internalType":"address"},{"name":"salt","type":"bytes32","internalType":"bytes32"},{"name":"extensions","type":"uint256[]","internalType":"uint256[]"}],"stateMutability":"view"},{"type":"function","name":"emergencyCancel","inputs":[{"name":"_payerAmount","type":"uint256","internalType":"uint256"},{"name":"_driverAmount","type":"uint256","internalType":"uint256"}],"outputs":[],"stateMutability":"nonpayable"},{"type":"function","name":"endCoords","inputs":[],"outputs":[{"name":"lat","type":"int256","internalType":"int256"},{"name":"lng","type":"int256","internalType":"int256"}],"stateMutability":"view"},{"type":"function","name":"endLat","inputs":[],"outputs":[{"name":"","type":"int256","internalType":"int256"}],"stateMutability":"view"},{"type":"function","name":"endLng","inputs":[],"outputs":[{"name":"","type":"int256","internalType":"int256"}],"stateMutability":"view"},{"type":"function","name":"endTime","inputs":[],"outputs":[{"name":"","type":"uint256","internalType":"uint256"}],"stateMutability":"view"},{"type":"function","name":"escrow","inputs":[],"outputs":[{"name":"","type":"address","internalType":"address"}],"stateMutability":"view"},{"type":"function","name":"factory","inputs":[],"outputs":[{"name":"","type":"address","internalType":"address"}],"stateMutability":"view"},{"type":"function","name":"feeBps","inputs":[],"outputs":[{"name":"","type":"uint24","internalType":"uint24"}],"stateMutability":"view"},{"type":"function","name":"feePaid","inputs":[],"outputs":[{"name":"","type":"uint256","internalType":"uint256"}],"stateMutability":"view"},{"type":"function","name":"fulfill","inputs":[{"name":"signature","type":"bytes","internalType":"bytes"}],"outputs":[],"stateMutability":"nonpayable"},{"type":"function","name":"initialize","inputs":[{"name":"_payer","type":"address","internalType":"address"},{"name":"_driver","type":"address","internalType":"address"},{"name":"_token","type":"address","internalType":"address"},{"name":"_amountPayable","type":"uint256","internalType":"uint256"},{"name":"_feeBps","type":"uint24","internalType":"uint24"},{"name":"_cancellationFeeBps","type":"uint24","internalType":"uint24"},{"name":"_startCoords","type":"tuple","internalType":"struct IRoutaGeo.GeoCoords","components":[{"name":"latitude","type":"int256","internalType":"int256"},{"name":"longitude","type":"int256","internalType":"int256"}]},{"name":"_endCoords","type":"tuple","internalType":"struct IRoutaGeo.GeoCoords","components":[{"name":"latitude","type":"int256","internalType":"int256"},{"name":"longitude","type":"int256","internalType":"int256"}]}],"outputs":[],"stateMutability":"nonpayable"},{"type":"function","name":"isTrustedForwarder","inputs":[{"name":"forwarder","type":"address","internalType":"address"}],"outputs":[{"name":"","type":"bool","internalType":"bool"}],"stateMutability":"view"},{"type":"function","name":"payer","inputs":[],"outputs":[{"name":"","type":"address","internalType":"address"}],"stateMutability":"view"},{"type":"function","name":"startCoords","inputs":[],"outputs":[{"name":"lat","type":"int256","internalType":"int256"},{"name":"lng","type":"int256","internalType":"int256"}],"stateMutability":"view"},{"type":"function","name":"startLat","inputs":[],"outputs":[{"name":"","type":"int256","internalType":"int256"}],"stateMutability":"view"},{"type":"function","name":"startLng","inputs":[],"outputs":[{"name":"","type":"int256","internalType":"int256"}],"stateMutability":"view"},{"type":"function","name":"startTime","inputs":[],"outputs":[{"name":"","type":"uint256","internalType":"uint256"}],"stateMutability":"view"},{"type":"function","name":"status","inputs":[],"outputs":[{"name":"","type":"uint8","internalType":"enum IRoutaEvRide.Status"}],"stateMutability":"view"},{"type":"function","name":"trustedForwarder","inputs":[],"outputs":[{"name":"","type":"address","internalType":"address"}],"stateMutability":"view"},{"type":"event","name":"EIP712DomainChanged","inputs":[],"anonymous":false},{"type":"event","name":"StatusChanged","inputs":[{"name":"status","type":"uint8","indexed":false,"internalType":"enum IRoutaEvRide.Status"},{"name":"timestamp","type":"uint256","indexed":false,"internalType":"uint256"}],"anonymous":false},{"type":"error","name":"AlreadyInitialized","inputs":[]},{"type":"error","name":"AlreadySignedAction","inputs":[]},{"type":"error","name":"ECDSAInvalidSignature","inputs":[]},{"type":"error","name":"ECDSAInvalidSignatureLength","inputs":[{"name":"length","type":"uint256","internalType":"uint256"}]},{"type":"error","name":"ECDSAInvalidSignatureS","inputs":[{"name":"s","type":"bytes32","internalType":"bytes32"}]},{"type":"error","name":"InvalidAction","inputs":[]},{"type":"error","name":"InvalidShortString","inputs":[]},{"type":"error","name":"NotAContract","inputs":[]},{"type":"error","name":"NotAllowed","inputs":[]},{"type":"error","name":"OnlyTeam","inputs":[]},{"type":"error","name":"StringTooLong","inputs":[{"name":"str","type":"string","internalType":"string"}]}],"bytecode":{"object":"0x6101808060405234610178576020816125ea8038038091610020828561017c565b83398101031261017857516001600160a01b0381168103610178576040519061004a60408361017c565b600b8252602082016a526f75746145765269646560a81b81526040519261007260408561017c565b600184526020840192603160f81b845260805261008e816101b3565b6101405261009b84610349565b6101605251902091826101005251902080610120524660c0526040519060208201927f8b73c3c69bb8fe3d512ecc4cf759cc79239f7b179b0ffacaa9a75d522b39400f8452604083015260608201524660808201523060a082015260a0815261010560c08261017c565b51902060a0523060e052604051612168908161048282396080518181816108d901528181610970015261156f015260a051816115d6015260c05181611693015260e051816115a0015261010051816116250152610120518161164b015261014051816107e10152610160518161080b0152f35b5f80fd5b601f909101601f19168101906001600160401b0382119082101761019f57604052565b634e487b7160e01b5f52604160045260245ffd5b908151602081105f1461022d575090601f8151116101ed5760208151910151602082106101de571790565b5f198260200360031b1b161790565b604460209160405192839163305a27a960e01b83528160048401528051918291826024860152018484015e5f828201840152601f01601f19168101030190fd5b6001600160401b03811161019f575f54600181811c9116801561033f575b602082101461032b57601f81116102f9575b50602092601f821160011461029a57928192935f9261028f575b50508160011b915f199060031b1c1916175f5560ff90565b015190505f80610277565b601f198216935f8052805f20915f5b8681106102e157508360019596106102c9575b505050811b015f5560ff90565b01515f1960f88460031b161c191690555f80806102bc565b919260206001819286850151815501940192016102a9565b5f8052601f60205f20910160051c810190601f830160051c015b818110610320575061025d565b5f8155600101610313565b634e487b7160e01b5f52602260045260245ffd5b90607f169061024b565b908151602081105f14610374575090601f8151116101ed5760208151910151602082106101de571790565b6001600160401b03811161019f57600154600181811c91168015610477575b602082101461032b57601f8111610444575b50602092601f82116001146103e357928192935f926103d8575b50508160011b915f199060031b1c19161760015560ff90565b015190505f806103bf565b601f1982169360015f52805f20915f5b86811061042c5750836001959610610414575b505050811b0160015560ff90565b01515f1960f88460031b161c191690555f8080610406565b919260206001819286850151815501940192016103f3565b60015f52601f60205f20910160051c810190601f830160051c015b81811061046c57506103a5565b5f815560010161045f565b90607f169061039356fe6080806040526004361015610012575f80fd5b5f905f3560e01c90816304d97a51146112ea57508063123119cd146112c2578063144f725e14610ed5578063200d2ed214610eaf578063247492f814610e8257806324a9d85314610e5f5780633197cbb614610e4157806334dc96c514610e235780633c5beeb4146109c25780634c86570c146109a4578063572b6c051461094f5780636ecc5d621461092657806378e97925146109085780637da0a877146108c357806384b0196e146107c75780638fbd8d3f146107a957806395305683146107835780639d50d13414610474578063a85b89811461044f578063ac7c578014610431578063b64faff314610413578063c45a0155146103ea578063e09c95ee146103c5578063e2fdcc171461039c5763efee55e514610131575f80fd5b34610399576101403660031901126103995761014b6113d8565b6024356001600160a01b03811690819003610397576044356001600160a01b03811692909190838303610379576064356084359062ffffff82168092036103935760a4359162ffffff83169283810361038f5760403660c319011261038f57604051926101b784611304565b60c4358452602084019460e435865260406101031936011261038b57604051966101e088611304565b6101043588526101243560208901908152600454909990916001600160a01b03831661037d57600f805461ffff19169055600280546001600160a01b03199081166001600160a01b0393841617909155600380549091169092179091558c95949392919061024c611544565b16906bffffffffffffffffffffffff60a01b161760045561271084116103795761028f6127109283600a549761028283896114ea565b9050049081600955611511565b600855116103755765ffffff0000009060181b169165ffffffffffff19161717600a5551600b5551600c5551600d5551600e553b156103665742600655604051906108ab908183019183831067ffffffffffffffff841117610352579183916020936118688439815203019082f080156103455760018060a01b03166bffffffffffffffffffffffff60a01b60055416176005555f5160206121135f395f51905f5260406006548151908482526020820152a180f35b50604051903d90823e3d90fd5b634e487b7160e01b85526041600452602485fd5b6309ee12d560e01b8252600482fd5b8980fd5b8480fd5b62dc149f60e41b8e5260048efd5b8a80fd5b8880fd5b8680fd5b825b80fd5b50346103995780600319360112610399576005546040516001600160a01b039091168152602090f35b50346103995780600319360112610399576040600b54600c5482519182526020820152f35b50346103995780600319360112610399576004546040516001600160a01b039091168152602090f35b50346103995780600319360112610399576020600e54604051908152f35b50346103995780600319360112610399576020600954604051908152f35b50346103995780600319360112610399576040600d54600e5482519182526020820152f35b503461039957604036600319011261039957600435602435610494611544565b60048054604051638da5cb5b60e01b81529160209183919082906001600160a01b03165afa908115610778578591610759575b506001600160a01b0390811691160361074a5760ff600f54166104e9816113ba565b61073b5780820180831161072757600854036106f05760055460025484936001600160a01b039283169290911690823b156103795760405163581aafa760e01b81526001600160a01b0392909216600483015260248201529083908290604490829084905af19081156106b85783916106d8575b50506005546003546001600160a01b0391821692911690823b156106845760405163581aafa760e01b81526001600160a01b0392909216600483015260248201529082908290604490829084905af18015610679576106c3575b5060055460405163011a412160e61b81526001600160a01b0390911690602081600481855afa9081156106b8578391610689575b50600954823b156106845760405163581aafa760e01b81526001600160a01b0392909216600483015260248201529082908290604490829084905af1801561067957610664575b5042600755600260ff19600f541617600f555f5160206121135f395f51905f526040805160028152426020820152a180f35b8161066e91611320565b61039957805f610632565b6040513d84823e3d90fd5b505050fd5b6106ab915060203d6020116106b1575b6106a38183611320565b8101906114cb565b5f6105eb565b503d610699565b6040513d85823e3d90fd5b816106cd91611320565b61039957805f6105b7565b816106e291611320565b6106ed57815f61055d565b50fd5b60405162461bcd60e51b815260206004820152600f60248201526e496e76616c696420616d6f756e747360881b6044820152606490fd5b634e487b7160e01b84526011600452602484fd5b631eb49d6d60e11b8352600483fd5b637c26a7ed60e11b8352600483fd5b610772915060203d6020116106b1576106a38183611320565b5f6104c7565b6040513d87823e3d90fd5b5034610399578060031936011261039957602062ffffff600a5460181c16604051908152f35b50346103995780600319360112610399576020600b54604051908152f35b5034610399578060031936011261039957610867906108057f0000000000000000000000000000000000000000000000000000000000000000611753565b9061082f7f00000000000000000000000000000000000000000000000000000000000000006117ae565b906020610875604051936108438386611320565b8385525f368137604051968796600f60f81b885260e08589015260e08801906113ee565b9086820360408801526113ee565b904660608601523060808601528260a086015284820360c08601528080855193848152019401925b8281106108ac57505050500390f35b83518552869550938101939281019260010161089d565b50346103995780600319360112610399576040517f00000000000000000000000000000000000000000000000000000000000000006001600160a01b03168152602090f35b50346103995780600319360112610399576020600654604051908152f35b50346103995780600319360112610399576003546040516001600160a01b039091168152602090f35b503461039957602036600319011261039957602061096b6113d8565b6040517f00000000000000000000000000000000000000000000000000000000000000006001600160a01b039081169216919091148152f35b50346103995780600319360112610399576020600d54604051908152f35b503461039957610a3890610a2f6109d836611342565b610a2a60405160208101907f620b75f2a73cc7a5161c8eb03b6e523b3be2dc00450fc4bfd007dd8d494a01fa82523060408201526002606082015260608152610a22608082611320565b51902061151e565b6116b9565b909391936116f3565b600f549160ff8360081c16610a4c816113ba565b8015159081610e0e575b50610dff576002546001600160a01b03908116911681811493841580610dea575b610ddb5760ff16610a87816113ba565b61073b5782935f14610cac575050612710610aaf62ffffff600a5460181c16600854906114ea565b60055460035492909104916001600160a01b039081169116803b156106845760405163581aafa760e01b81526001600160a01b039290921660048301526024820183905283908290604490829084905af19081156106b8578391610c97575b5050610b1c90600854611511565b6005546002546001600160a01b0391821692911690823b156106845760405163581aafa760e01b81526001600160a01b0392909216600483015260248201529082908290604490829084905af1801561067957610c82575b5060055460405163011a412160e61b81526001600160a01b0390911690602081600481855afa9081156106b8578391610c63575b50600954823b156106845760405163581aafa760e01b81526001600160a01b0392909216600483015260248201529082908290604490829084905af1801561067957610c4e575b50505b600f5460ff8160081c16610c05816113ba565b15610c3c575042600755600260ff19600f541617600f555f5160206121135f395f51905f526040805160028152426020820152a180f35b61ff00191661020017600f555f610632565b81610c5891611320565b61039957805f610bef565b610c7c915060203d6020116106b1576106a38183611320565b5f610ba8565b81610c8c91611320565b61039957805f610b74565b81610ca191611320565b6106ed57815f610b0e565b6003546001600160a01b031614610cc5575b5050610bf2565b60018060a01b036005541690600854823b156106845760405163581aafa760e01b81526001600160a01b0392909216600483015260248201529082908290604490829084905af1801561067957610dc6575b5060055460405163011a412160e61b81526001600160a01b0390911690602081600481855afa9081156106b8578391610da7575b50600954823b156106845760405163581aafa760e01b81526001600160a01b0392909216600483015260248201529082908290604490829084905af180156106795715610cbe5781610d9c91611320565b61039957805f610cbe565b610dc0915060203d6020116106b1576106a38183611320565b5f610d4b565b81610dd091611320565b61039957805f610d17565b631eb49d6d60e11b8452600484fd5b506003546001600160a01b0316821415610a77565b634a7f394f60e01b8252600482fd5b60029150610e1b816113ba565b14155f610a56565b50346103995780600319360112610399576020600854604051908152f35b50346103995780600319360112610399576020600754604051908152f35b5034610399578060031936011261039957602062ffffff600a5416604051908152f35b5034610399578060031936011261039957602060ff600f5460081c1660405190610eab816113ba565b8152f35b5034610399578060031936011261039957602060ff600f541660405190610eab816113ba565b503461118f57610f35610ee736611342565b610a2f81610a2a60405160208101907f620b75f2a73cc7a5161c8eb03b6e523b3be2dc00450fc4bfd007dd8d494a01fa82523060408201526001606082015260608152610a22608082611320565b600f5460ff8160081c16610f48816113ba565b80151590816112ad575b5061129e576002546001600160a01b03938416931683141580611289575b61127a5760ff16610f80816113ba565b61127a57815f526010602052610fa2610fa960405f206040519283809261144a565b0382611320565b602081519101209060209260405192610fc28585611320565b5f8452848401601f19860194853683375190200361126b575f526010835260405f209080519067ffffffffffffffff82116112575781906110038454611412565b601f8111611209575b508590601f83116001146111a6575f9261119b575b50508160011b915f199060031b1c19161790555b60018060a01b03600254165f5260108252610fa261105c60405f206040519283809261144a565b82815191012060405161106f8482611320565b5f8152838101908336833751902014159060018060a01b03600354165f5260108352610fa26110a760405f206040519283809261144a565b838151910120906040516110bb8582611320565b5f815284810191368337519020141581611193575b50611102575b50600f5460ff8160081c166110ea816113ba565b156110f3575080f35b61ff00191661010017600f5580f35b6005546001600160a01b0316803b1561118f575f80916004604051809481936331de8ea560e11b83525af180156111845761116e575b5060405f5160206121135f395f51905f529142600755600160ff19600f541617600f55815190600182524290820152a15f6110d6565b61117b9192505f90611320565b5f906040611138565b6040513d5f823e3d90fd5b5f80fd5b90505f6110d0565b015190505f80611021565b5f8581528781209350601f198516905b888282106111f35750509084600195949392106111db575b505050811b019055611035565b01515f1960f88460031b161c191690555f80806111ce565b60018596829396860151815501950193016111b6565b909150835f52855f20601f840160051c81019187851061124d575b90601f859493920160051c01905b81811061123f575061100c565b5f8155849350600101611232565b9091508190611224565b634e487b7160e01b5f52604160045260245ffd5b63f90fc89b60e01b5f5260045ffd5b631eb49d6d60e11b5f5260045ffd5b506003546001600160a01b0316831415610f70565b634a7f394f60e01b5f5260045ffd5b600191506112ba816113ba565b14155f610f52565b3461118f575f36600319011261118f576002546040516001600160a01b039091168152602090f35b3461118f575f36600319011261118f57602090600c548152f35b6040810190811067ffffffffffffffff82111761125757604052565b90601f8019910116810190811067ffffffffffffffff82111761125757604052565b602060031982011261118f5760043567ffffffffffffffff811161118f578160238201121561118f5780600401359067ffffffffffffffff82116112575760405192611398601f8401601f191660200185611320565b8284526024838301011161118f57815f92602460209301838601378301015290565b600311156113c457565b634e487b7160e01b5f52602160045260245ffd5b600435906001600160a01b038216820361118f57565b805180835260209291819084018484015e5f828201840152601f01601f1916010190565b90600182811c92168015611440575b602083101461142c57565b634e487b7160e01b5f52602260045260245ffd5b91607f1691611421565b5f929181549161145983611412565b80835292600181169081156114ae575060011461147557505050565b5f9081526020812093945091925b838310611494575060209250010190565b600181602092949394548385870101520191019190611483565b915050602093945060ff929192191683830152151560051b010190565b9081602091031261118f57516001600160a01b038116810361118f5790565b818102929181159184041417156114fd57565b634e487b7160e01b5f52601160045260245ffd5b919082039182116114fd57565b60429061152961159d565b906040519161190160f01b8352600283015260228201522090565b60143610158061156b575b1561156757601319360136811161118f573560601c90565b3390565b50337f00000000000000000000000000000000000000000000000000000000000000006001600160a01b03161461154f565b307f00000000000000000000000000000000000000000000000000000000000000006001600160a01b03161480611690575b156115f8577f000000000000000000000000000000000000000000000000000000000000000090565b60405160208101907f8b73c3c69bb8fe3d512ecc4cf759cc79239f7b179b0ffacaa9a75d522b39400f82527f000000000000000000000000000000000000000000000000000000000000000060408201527f000000000000000000000000000000000000000000000000000000000000000060608201524660808201523060a082015260a0815261168a60c082611320565b51902090565b507f000000000000000000000000000000000000000000000000000000000000000046146115cf565b81519190604183036116e9576116e29250602082015190606060408401519301515f1a906117e5565b9192909190565b50505f9160029190565b60048110156113c45780611705575050565b6001810361171c5763f645eedf60e01b5f5260045ffd5b60028103611737575063fce698f760e01b5f5260045260245ffd5b6003146117415750565b6335e2f38360e21b5f5260045260245ffd5b60ff81146117995760ff811690601f821161178a5760405191611777604084611320565b6020808452838101919036833783525290565b632cd44ac360e21b5f5260045ffd5b506040516117ab81610fa2815f61144a565b90565b60ff81146117d25760ff811690601f821161178a5760405191611777604084611320565b506040516117ab81610fa281600161144a565b91907f7fffffffffffffffffffffffffffffff5d576e7357a4501ddfe92f46681b20a0841161185c579160209360809260ff5f9560405194855216868401526040830152606082015282805260015afa15611184575f516001600160a01b0381161561185257905f905f90565b505f906001905f90565b5050505f916003919056fe60e080604052346101435761002a906108ab80380380916100208285610147565b833981019061017e565b6080523360a05260405163c45a015560e01b8152602081600481335afa90811561011b576004916020915f91610126575b50604051638da5cb5b60e01b815292839182906001600160a01b03165afa90811561011b575f916100ec575b5060c05260ff195f54165f5560405161070d908161019e823960805181818160730152818161017d0152818161038201526104c7015260a05181818160ce01528181610299015281816102da015261048f015260c0518181816103aa01526104fd0152f35b61010e915060203d602011610114575b6101068183610147565b81019061017e565b5f610087565b503d6100fc565b6040513d5f823e3d90fd5b61013d9150823d8411610114576101068183610147565b5f61005b565b5f80fd5b601f909101601f19168101906001600160401b0382119082101761016a57604052565b634e487b7160e01b5f52604160045260245ffd5b9081602091031261014357516001600160a01b0381168103610143579056fe6080806040526004361015610012575f80fd5b5f3560e01c90816346904840146104eb57508063581aafa71461046957806363bd1d4a146102c8578063c45a015514610284578063d0e30db0146100a65763fc0c546a1461005e575f80fd5b346100a2575f3660031901126100a2576040517f00000000000000000000000000000000000000000000000000000000000000006001600160a01b03168152602090f35b5f80fd5b346100a2575f3660031901126100a25760ff5f54166102755760405163c45a015560e01b81527f00000000000000000000000000000000000000000000000000000000000000006001600160a01b031690602081600481855afa908115610206575f91610246575b506040516334dc96c560e01b815290602082600481865afa918215610206575f92610211575b5060206004929360405193848092630158f8af60e71b82525afa918215610206575f926101d2575b506001600160a01b031633036101c35781018091116101af576101a19030337f000000000000000000000000000000000000000000000000000000000000000061063d565b5f805460ff19166001179055005b634e487b7160e01b5f52601160045260245ffd5b63182324f160e01b5f5260045ffd5b9091506020813d6020116101fe575b816101ee6020938361052c565b810103126100a25751908361015c565b3d91506101e1565b6040513d5f823e3d90fd5b91506020823d60201161023e575b8161022c6020938361052c565b810103126100a2579051906020610134565b3d915061021f565b610268915060203d60201161026e575b610260818361052c565b810190610562565b8261010e565b503d610256565b63d5a8211560e01b5f5260045ffd5b346100a2575f3660031901126100a2576040517f00000000000000000000000000000000000000000000000000000000000000006001600160a01b03168152602090f35b346100a2575f3660031901126100a2577f00000000000000000000000000000000000000000000000000000000000000006001600160a01b0316330361045a576040516334dc96c560e01b8152602081600481335afa908115610206575f91610428575b50604051630158f8af60e71b8152602081600481335afa908115610206575f916103f6575b506040516337662eb160e11b815291602083600481335afa908115610206576103cf935f926103d1575b506103a8907f00000000000000000000000000000000000000000000000000000000000000009283610581565b7f000000000000000000000000000000000000000000000000000000000000000090610581565b005b6103a89192506103ef9060203d60201161026e57610260818361052c565b919061037b565b90506020813d602011610420575b816104116020938361052c565b810103126100a2575182610351565b3d9150610404565b90506020813d602011610452575b816104436020938361052c565b810103126100a257518161032c565b3d9150610436565b630636a15760e11b5f5260045ffd5b346100a25760403660031901126100a2576004356001600160a01b03811681036100a2577f00000000000000000000000000000000000000000000000000000000000000006001600160a01b0316330361045a576103cf90602435907f0000000000000000000000000000000000000000000000000000000000000000610581565b346100a2575f3660031901126100a2577f00000000000000000000000000000000000000000000000000000000000000006001600160a01b03168152602090f35b90601f8019910116810190811067ffffffffffffffff82111761054e57604052565b634e487b7160e01b5f52604160045260245ffd5b908160209103126100a257516001600160a01b03811681036100a25790565b90918015610638576001600160a01b038216928315610629576001600160a01b0316918215610629573b1561061a576040519163a9059cbb60e01b5f5260045260245260205f60448180865af19060015f51148216156105f9575b604052156105e75750565b635274afe760e01b5f5260045260245ffd5b90600181151661061157823b15153d151616906105dc565b503d5f823e3d90fd5b636f7c43f160e01b5f5260045ffd5b63d92e233d60e01b5f5260045ffd5b505050565b6001600160a01b03811693918415610629576001600160a01b0316928315610629576001600160a01b0316908115610629573b1561061a5781156106d157604051926323b872dd60e01b5f5260045260245260445260205f60648180865af19060015f51148216156106b9575b6040525f606052156105e75750565b90600181151661061157823b15153d151616906106aa565b5050505056fea26469706673582212203b10a4611009f9be2332d40fc1e003432ecd65d02a0f83a5753f142867ff3aeb64736f6c634300081c003340a180796b90921dd8508eb434c78206ca5c737a0d584582edf399bc9711d9e9a26469706673582212208aa78ee40a30533e4020956b89b5a8d4522d9ade2914007e7bb57c78e8ca48f064736f6c634300081c0033","linkReferences":{}},"methodIdentifiers":{"actionType()":"247492f8","amountPayable()":"34dc96c5","cancel(bytes)":"3c5beeb4","cancellationFeeBps()":"95305683","driver()":"6ecc5d62","eip712Domain()":"84b0196e","emergencyCancel(uint256,uint256)":"9d50d134","endCoords()":"a85b8981","endLat()":"4c86570c","endLng()":"b64faff3","endTime()":"3197cbb6","escrow()":"e2fdcc17","factory()":"c45a0155","feeBps()":"24a9d853","feePaid()":"ac7c5780","fulfill(bytes)":"144f725e","initialize(address,address,address,uint256,uint24,uint24,(int256,int256),(int256,int256))":"efee55e5","isTrustedForwarder(address)":"572b6c05","payer()":"123119cd","startCoords()":"e09c95ee","startLat()":"8fbd8d3f","startLng()":"04d97a51","startTime()":"78e97925","status()":"200d2ed2","trustedForwarder()":"7da0a877"},"id":59}