{"abi":[{"type":"constructor","inputs":[{"name":"trustedForwarder_","type":"address","internalType":"address"}],"stateMutability":"nonpayable"},{"type":"function","name":"amountPayable","inputs":[],"outputs":[{"name":"","type":"uint256","internalType":"uint256"}],"stateMutability":"view"},{"type":"function","name":"cancel","inputs":[{"name":"signature","type":"bytes","internalType":"bytes"}],"outputs":[],"stateMutability":"nonpayable"},{"type":"function","name":"cancellationFeeBps","inputs":[],"outputs":[{"name":"","type":"uint24","internalType":"uint24"}],"stateMutability":"view"},{"type":"function","name":"driver","inputs":[],"outputs":[{"name":"","type":"address","internalType":"address"}],"stateMutability":"view"},{"type":"function","name":"emergencyCancel","inputs":[{"name":"_payerAmount","type":"uint256","internalType":"uint256"},{"name":"_driverAmount","type":"uint256","internalType":"uint256"}],"outputs":[],"stateMutability":"nonpayable"},{"type":"function","name":"endCoords","inputs":[],"outputs":[{"name":"lat","type":"int256","internalType":"int256"},{"name":"lng","type":"int256","internalType":"int256"}],"stateMutability":"view"},{"type":"function","name":"endLat","inputs":[],"outputs":[{"name":"","type":"int256","internalType":"int256"}],"stateMutability":"view"},{"type":"function","name":"endLng","inputs":[],"outputs":[{"name":"","type":"int256","internalType":"int256"}],"stateMutability":"view"},{"type":"function","name":"endTime","inputs":[],"outputs":[{"name":"","type":"uint256","internalType":"uint256"}],"stateMutability":"view"},{"type":"function","name":"escrow","inputs":[],"outputs":[{"name":"","type":"address","internalType":"address"}],"stateMutability":"view"},{"type":"function","name":"factory","inputs":[],"outputs":[{"name":"","type":"address","internalType":"address"}],"stateMutability":"view"},{"type":"function","name":"feeBps","inputs":[],"outputs":[{"name":"","type":"uint24","internalType":"uint24"}],"stateMutability":"view"},{"type":"function","name":"feePaid","inputs":[],"outputs":[{"name":"","type":"uint256","internalType":"uint256"}],"stateMutability":"view"},{"type":"function","name":"fulfill","inputs":[{"name":"signature","type":"bytes","internalType":"bytes"}],"outputs":[],"stateMutability":"nonpayable"},{"type":"function","name":"initialize","inputs":[{"name":"_payer","type":"address","internalType":"address"},{"name":"_driver","type":"address","internalType":"address"},{"name":"_token","type":"address","internalType":"address"},{"name":"_amountPayable","type":"uint256","internalType":"uint256"},{"name":"_feeBps","type":"uint24","internalType":"uint24"},{"name":"_cancellationFeeBps","type":"uint24","internalType":"uint24"},{"name":"_startCoords","type":"tuple","internalType":"struct IRoutaGeo.GeoCoords","components":[{"name":"latitude","type":"int256","internalType":"int256"},{"name":"longitude","type":"int256","internalType":"int256"}]},{"name":"_endCoords","type":"tuple","internalType":"struct IRoutaGeo.GeoCoords","components":[{"name":"latitude","type":"int256","internalType":"int256"},{"name":"longitude","type":"int256","internalType":"int256"}]}],"outputs":[],"stateMutability":"nonpayable"},{"type":"function","name":"isTrustedForwarder","inputs":[{"name":"forwarder","type":"address","internalType":"address"}],"outputs":[{"name":"","type":"bool","internalType":"bool"}],"stateMutability":"view"},{"type":"function","name":"payer","inputs":[],"outputs":[{"name":"","type":"address","internalType":"address"}],"stateMutability":"view"},{"type":"function","name":"startCoords","inputs":[],"outputs":[{"name":"lat","type":"int256","internalType":"int256"},{"name":"lng","type":"int256","internalType":"int256"}],"stateMutability":"view"},{"type":"function","name":"startLat","inputs":[],"outputs":[{"name":"","type":"int256","internalType":"int256"}],"stateMutability":"view"},{"type":"function","name":"startLng","inputs":[],"outputs":[{"name":"","type":"int256","internalType":"int256"}],"stateMutability":"view"},{"type":"function","name":"startTime","inputs":[],"outputs":[{"name":"","type":"uint256","internalType":"uint256"}],"stateMutability":"view"},{"type":"function","name":"status","inputs":[],"outputs":[{"name":"","type":"uint8","internalType":"enum IRoutaEvRide.Status"}],"stateMutability":"view"},{"type":"function","name":"trustedForwarder","inputs":[],"outputs":[{"name":"","type":"address","internalType":"address"}],"stateMutability":"view"},{"type":"event","name":"StatusChanged","inputs":[{"name":"status","type":"uint8","indexed":false,"internalType":"enum IRoutaEvRide.Status"},{"name":"timestamp","type":"uint256","indexed":false,"internalType":"uint256"}],"anonymous":false},{"type":"error","name":"AlreadyInitialized","inputs":[]},{"type":"error","name":"AlreadySignedAction","inputs":[]},{"type":"error","name":"ECDSAInvalidSignature","inputs":[]},{"type":"error","name":"ECDSAInvalidSignatureLength","inputs":[{"name":"length","type":"uint256","internalType":"uint256"}]},{"type":"error","name":"ECDSAInvalidSignatureS","inputs":[{"name":"s","type":"bytes32","internalType":"bytes32"}]},{"type":"error","name":"InvalidAction","inputs":[]},{"type":"error","name":"NotAContract","inputs":[]},{"type":"error","name":"NotAllowed","inputs":[]},{"type":"error","name":"OnlyTeam","inputs":[]}],"bytecode":{"object":"0x60a034607457601f611f4e38819003918201601f19168301916001600160401b03831184841017607857808492602094604052833981010312607457516001600160a01b0381168103607457608052604051611ec1908161008d82396080518181816107b40152818161084b01526114c40152f35b5f80fd5b634e487b7160e01b5f52604160045260245ffdfe6080806040526004361015610012575f80fd5b5f905f3560e01c90816304d97a511461132857508063123119cd14611301578063144f725e14610d74578063200d2ed214610d3457806324a9d85314610d115780633197cbb614610cf357806334dc96c514610cd55780633c5beeb41461089d5780634c86570c1461087f578063572b6c051461082a5780636ecc5d621461080157806378e97925146107e35780637da0a8771461079e5780638fbd8d3f14610780578063953056831461075a5780639d50d13414610452578063a85b89811461042d578063ac7c57801461040f578063b64faff3146103f1578063c45a0155146103c8578063e09c95ee146103a3578063e2fdcc171461037a5763efee55e51461011b575f80fd5b3461037757610140366003190112610377576101356113f8565b6024356001600160a01b0381169190829003610375576044356001600160a01b038116929091908383036103715760643560843562ffffff811680910361036d5760a4359162ffffff831683036103695760403660c3190112610369576040519161019f83611342565b60c4358352602083019360e435855260406101031936011261036557604051956101c887611342565b61010435875261012435602088019081526002549098906001600160a01b031661035757600d805460ff191690558b546001600160a01b03199081166001600160a01b03928316178d556001805490911690921790915565ffffff0000009190610230611499565b166bffffffffffffffffffffffff60a01b600254161760025561026b600854946127108d61025e8388611465565b905004908160075561148c565b60065560181b169165ffffffffffff191617176008555160095551600a5551600b5551600c553b1561034857426004556040519061087d908183019183831067ffffffffffffffff8411176103345791839160209361160f8439815203019082f080156103275760018060a01b03166bffffffffffffffffffffffff60a01b60035416176003557f40a180796b90921dd8508eb434c78206ca5c737a0d584582edf399bc9711d9e960406004548151908482526020820152a180f35b50604051903d90823e3d90fd5b634e487b7160e01b85526041600452602485fd5b6309ee12d560e01b8252600482fd5b62dc149f60e41b8c5260048cfd5b8980fd5b8780fd5b8680fd5b8480fd5b825b80fd5b50346103775780600319360112610377576003546040516001600160a01b039091168152602090f35b50346103775780600319360112610377576040600954600a5482519182526020820152f35b50346103775780600319360112610377576002546040516001600160a01b039091168152602090f35b50346103775780600319360112610377576020600c54604051908152f35b50346103775780600319360112610377576020600754604051908152f35b50346103775780600319360112610377576040600b54600c5482519182526020820152f35b503461037757604036600319011261037757600435602435610472611499565b600254604051638da5cb5b60e01b815290602090829060049082906001600160a01b03165afa90811561074f578591610730575b506001600160a01b039081169116036107215780820180831161070d57600654036106d657600354835484936001600160a01b039283169290911690823b156103715760405163581aafa760e01b81526001600160a01b0392909216600483015260248201529083908290604490829084905af190811561069e5783916106be575b50506003546001546001600160a01b0391821692911690823b1561066a5760405163581aafa760e01b81526001600160a01b0392909216600483015260248201529082908290604490829084905af1801561065f576106a9575b5060035460405163011a412160e61b81526001600160a01b0390911690602081600481855afa90811561069e57839161066f575b50600754823b1561066a5760405163581aafa760e01b81526001600160a01b0392909216600483015260248201529082908290604490829084905af1801561065f5761064a575b5042600555610614600260ff19600d541617600d55565b7f40a180796b90921dd8508eb434c78206ca5c737a0d584582edf399bc9711d9e96040600554815190600282526020820152a180f35b816106549161135e565b61037757805f6105fd565b6040513d84823e3d90fd5b505050fd5b610691915060203d602011610697575b610689818361135e565b810190611446565b5f6105b6565b503d61067f565b6040513d85823e3d90fd5b816106b39161135e565b61037757805f610582565b816106c89161135e565b6106d357815f610528565b50fd5b60405162461bcd60e51b815260206004820152600f60248201526e496e76616c696420616d6f756e747360881b6044820152606490fd5b634e487b7160e01b84526011600452602484fd5b637c26a7ed60e11b8352600483fd5b610749915060203d60201161069757610689818361135e565b5f6104a6565b6040513d87823e3d90fd5b5034610377578060031936011261037757602062ffffff60085460181c16604051908152f35b50346103775780600319360112610377576020600954604051908152f35b50346103775780600319360112610377576040517f00000000000000000000000000000000000000000000000000000000000000006001600160a01b03168152602090f35b50346103775780600319360112610377576020600454604051908152f35b50346103775780600319360112610377576001546040516001600160a01b039091168152602090f35b50346103775760203660031901126103775760206108466113f8565b6040517f00000000000000000000000000000000000000000000000000000000000000006001600160a01b039081169216919091148152f35b50346103775780600319360112610377576020600b54604051908152f35b5034610377576108ac36611380565b61091a61091160405160208101906d149bdd5d18515d8e98d85b98d95b60921b8252600e81526108dd602e8261135e565b519020927f19457468657265756d205369676e6564204d6573736167653a0a333200000000855283601c52603c85206114f2565b9092919261152c565b600f54828115159182610cca575b5050610cbb5782546001600160a01b039081169116808214801580610ca6575b610c835760ff600d54166003811015610c9257610c83578492919015610b5457505061271061098462ffffff60085460181c1660065490611465565b60035460015492909104916001600160a01b039081169116803b15610b075760405163581aafa760e01b81526001600160a01b039290921660048301526024820183905283908290604490829084905af190811561069e578391610b3f575b50506109f19060065461148c565b60035482546001600160a01b0391821692911690823b15610b075760405163581aafa760e01b81526001600160a01b0392909216600483015260248201529082908290604490829084905af1801561065f57610b2a575b5060035460405163011a412160e61b81526001600160a01b0390911690602081600481855afa90811561069e578391610b0b575b50600754823b15610b075760405163581aafa760e01b81526001600160a01b0392909216600483015260248201529082908290604490829084905af1801561065f57610aee575b50505b600f5415610ae5575042600555610614600260ff19600d541617600d55565b600f555f6105fd565b81610af89161135e565b610b0357815f610ac3565b5080fd5b8380fd5b610b24915060203d60201161069757610689818361135e565b5f610a7c565b81610b349161135e565b610b0357815f610a48565b81610b499161135e565b610b0357815f6109e3565b6001546001600160a01b031614610b6d575b5050610ac6565b60018060a01b036003541690600654823b15610b075760405163581aafa760e01b81526001600160a01b0392909216600483015260248201529082908290604490829084905af1801561065f57610c6e575b5060035460405163011a412160e61b81526001600160a01b0390911690602081600481855afa90811561069e578391610c4f575b50600754823b15610b075760405163581aafa760e01b81526001600160a01b0392909216600483015260248201529082908290604490829084905af1801561065f5715610b665781610c449161135e565b610b0357815f610b66565b610c68915060203d60201161069757610689818361135e565b5f610bf3565b81610c789161135e565b610b0357815f610bbf565b631eb49d6d60e11b8552600485fd5b634e487b7160e01b86526021600452602486fd5b506001546001600160a01b0316821415610948565b634a7f394f60e01b8352600483fd5b14159050825f610928565b50346103775780600319360112610377576020600654604051908152f35b50346103775780600319360112610377576020600554604051908152f35b5034610377578060031936011261037757602062ffffff60085416604051908152f35b503461037757806003193601126103775760ff600d5416604051906003811015610d6057602092508152f35b634e487b7160e01b83526021600452602483fd5b50346110ad57610d8336611380565b610df360405160208101906e149bdd5d18515d8e999d5b199a5b1b608a1b8252600f8152610db2602f8261135e565b519020917f19457468657265756d205369676e6564204d6573736167653a0a3332000000005f5282601c52610dea81603c5f206114f2565b9093919361152c565b600f548381151591826112f6575b50506112e7575f546001600160a01b039283169216821415806112d2575b6112af5760ff600d541660038110156112be576112af57815f52600e60205260405f206040515f9181815493610e548561140e565b9283835260208301956001811690815f14611290575060011461124c575b50610e7f9250038261135e565b5190209060209260405192610e94858561135e565b5f8452848401601f19860194853683375190200361123d575f52600e835260405f209080519067ffffffffffffffff8211611229578190610ed5845461140e565b601f81116111db575b508590601f8311600114611178575f9261116d575b50508160011b915f199060031b1c19161790555b60018060a01b035f54165f52600e825260405f206040515f9181815493610f2d8561140e565b9283835287830195886001821691825f1461114f575050600114611113575b50610f599250038261135e565b519020604051610f69848261135e565b5f8152838101908336833751902014159060018060a01b03600154165f52600e835260405f206040515f9181815493610fa18561140e565b9283835288830195896001821691825f146110f55750506001146110b9575b50610fcd9250038261135e565b51902090604051610fde858261135e565b5f8152848101913683375190201415816110b1575b5061100c575b50600f5415611006575080f35b600f5580f35b6003546001600160a01b0316803b156110ad575f80916004604051809481936331de8ea560e11b83525af180156110a25761108c575b5060407f40a180796b90921dd8508eb434c78206ca5c737a0d584582edf399bc9711d9e99142600555600160ff19600d541617600d5560055482519160018352820152a15f610ff9565b6110999193505f9061135e565b5f916040611042565b6040513d5f823e3d90fd5b5f80fd5b90505f610ff3565b9150505f528186805f205f905b8482106110dc5750610fcd93508201015f610fc0565b60019193508054838588010152019101879084926110c6565b60ff19168852610fcd95151560051b85010192505f9150610fc09050565b9150505f528185805f205f905b8482106111365750610f5993508201015f610f4c565b6001919350805483858801015201910186908492611120565b60ff19168852610f5995151560051b85010192505f9150610f4c9050565b015190505f80610ef3565b5f8581528781209350601f198516905b888282106111c55750509084600195949392106111ad575b505050811b019055610f07565b01515f1960f88460031b161c191690555f80806111a0565b6001859682939686015181550195019301611188565b909150835f52855f20601f840160051c81019187851061121f575b90601f859493920160051c01905b8181106112115750610ede565b5f8155849350600101611204565b90915081906111f6565b634e487b7160e01b5f52604160045260245ffd5b63f90fc89b60e01b5f5260045ffd5b90505f9291925260205f20905f915b818310611274575050906020610e7f928201015f610e72565b602091935080600191548385880101520191019091839261125b565b60ff1916875250610e7f93151560051b830160200191505f9050610e72565b631eb49d6d60e11b5f5260045ffd5b634e487b7160e01b5f52602160045260245ffd5b506001546001600160a01b0316821415610e1f565b634a7f394f60e01b5f5260045ffd5b14159050835f610e01565b346110ad575f3660031901126110ad575f546040516001600160a01b039091168152602090f35b346110ad575f3660031901126110ad57602090600a548152f35b6040810190811067ffffffffffffffff82111761122957604052565b90601f8019910116810190811067ffffffffffffffff82111761122957604052565b60206003198201126110ad5760043567ffffffffffffffff81116110ad57816023820112156110ad5780600401359067ffffffffffffffff821161122957604051926113d6601f8401601f19166020018561135e565b828452602483830101116110ad57815f92602460209301838601378301015290565b600435906001600160a01b03821682036110ad57565b90600182811c9216801561143c575b602083101461142857565b634e487b7160e01b5f52602260045260245ffd5b91607f169161141d565b908160209103126110ad57516001600160a01b03811681036110ad5790565b8181029291811591840414171561147857565b634e487b7160e01b5f52601160045260245ffd5b9190820391821161147857565b6014361015806114c0575b156114bc5760131936013681116110ad573560601c90565b3390565b50337f00000000000000000000000000000000000000000000000000000000000000006001600160a01b0316146114a4565b81519190604183036115225761151b9250602082015190606060408401519301515f1a9061158c565b9192909190565b50505f9160029190565b60048110156112be578061153e575050565b600181036115555763f645eedf60e01b5f5260045ffd5b60028103611570575063fce698f760e01b5f5260045260245ffd5b60031461157a5750565b6335e2f38360e21b5f5260045260245ffd5b91907f7fffffffffffffffffffffffffffffff5d576e7357a4501ddfe92f46681b20a08411611603579160209360809260ff5f9560405194855216868401526040830152606082015282805260015afa156110a2575f516001600160a01b038116156115f957905f905f90565b505f906001905f90565b5050505f916003919056fe60e0806040523461013b5761002a9061087d8038038091610020828561013f565b8339810190610176565b6080523360a05260405163c45a015560e01b8152602081600481335afa908115610113576004916020915f9161011e575b50604051638da5cb5b60e01b815292839182906001600160a01b03165afa908115610113575f916100e4575b5060c0526040516106e7908161019682396080518181816073015281816101740152818161035e01526104a1015260a05181818160c501528181610275015281816102b60152610469015260c05181818161038601526104d70152f35b610106915060203d60201161010c575b6100fe818361013f565b810190610176565b5f610087565b503d6100f4565b6040513d5f823e3d90fd5b6101359150823d841161010c576100fe818361013f565b5f61005b565b5f80fd5b601f909101601f19168101906001600160401b0382119082101761016257604052565b634e487b7160e01b5f52604160045260245ffd5b9081602091031261013b57516001600160a01b038116810361013b579056fe6080806040526004361015610012575f80fd5b5f3560e01c90816346904840146104c557508063581aafa71461044357806363bd1d4a146102a4578063c45a015514610260578063d0e30db0146100a65763fc0c546a1461005e575f80fd5b346100a2575f3660031901126100a2576040517f00000000000000000000000000000000000000000000000000000000000000006001600160a01b03168152602090f35b5f80fd5b346100a2575f3660031901126100a25760405163c45a015560e01b81527f00000000000000000000000000000000000000000000000000000000000000006001600160a01b031690602081600481855afa9081156101f1575f91610231575b506040516334dc96c560e01b815290602082600481865afa9182156101f1575f926101fc575b5060206004929360405193848092630158f8af60e71b82525afa9182156101f1575f926101bd575b506001600160a01b031633036101ae57810180911161019a576101989030337f0000000000000000000000000000000000000000000000000000000000000000610617565b005b634e487b7160e01b5f52601160045260245ffd5b63182324f160e01b5f5260045ffd5b9091506020813d6020116101e9575b816101d960209383610506565b810103126100a257519083610153565b3d91506101cc565b6040513d5f823e3d90fd5b91506020823d602011610229575b8161021760209383610506565b810103126100a257905190602061012b565b3d915061020a565b610253915060203d602011610259575b61024b8183610506565b81019061053c565b82610105565b503d610241565b346100a2575f3660031901126100a2576040517f00000000000000000000000000000000000000000000000000000000000000006001600160a01b03168152602090f35b346100a2575f3660031901126100a2577f00000000000000000000000000000000000000000000000000000000000000006001600160a01b03163303610434576040516334dc96c560e01b8152602081600481335afa9081156101f1575f91610402575b50604051630158f8af60e71b8152602081600481335afa9081156101f1575f916103d0575b506040516337662eb160e11b815291602083600481335afa9081156101f157610198935f926103ab575b50610384907f0000000000000000000000000000000000000000000000000000000000000000928361055b565b7f00000000000000000000000000000000000000000000000000000000000000009061055b565b6103849192506103c99060203d6020116102595761024b8183610506565b9190610357565b90506020813d6020116103fa575b816103eb60209383610506565b810103126100a257518261032d565b3d91506103de565b90506020813d60201161042c575b8161041d60209383610506565b810103126100a2575181610308565b3d9150610410565b630636a15760e11b5f5260045ffd5b346100a25760403660031901126100a2576004356001600160a01b03811681036100a2577f00000000000000000000000000000000000000000000000000000000000000006001600160a01b031633036104345761019890602435907f000000000000000000000000000000000000000000000000000000000000000061055b565b346100a2575f3660031901126100a2577f00000000000000000000000000000000000000000000000000000000000000006001600160a01b03168152602090f35b90601f8019910116810190811067ffffffffffffffff82111761052857604052565b634e487b7160e01b5f52604160045260245ffd5b908160209103126100a257516001600160a01b03811681036100a25790565b90918015610612576001600160a01b038216928315610603576001600160a01b0316918215610603573b156105f4576040519163a9059cbb60e01b5f5260045260245260205f60448180865af19060015f51148216156105d3575b604052156105c15750565b635274afe760e01b5f5260045260245ffd5b9060018115166105eb57823b15153d151616906105b6565b503d5f823e3d90fd5b636f7c43f160e01b5f5260045ffd5b63d92e233d60e01b5f5260045ffd5b505050565b6001600160a01b03811693918415610603576001600160a01b0316928315610603576001600160a01b0316908115610603573b156105f45781156106ab57604051926323b872dd60e01b5f5260045260245260445260205f60648180865af19060015f5114821615610693575b6040525f606052156105c15750565b9060018115166105eb57823b15153d15161690610684565b5050505056fea2646970667358221220e2698fcc818289662e7dcb9aeae77e4912e44188f6f6103236672576e9db678b64736f6c634300081c0033a2646970667358221220579bd3222e7434b54b8be627fbc37be8dd8a6f70af2a49a8416d2116ccacd50664736f6c634300081c0033","linkReferences":{}},"methodIdentifiers":{"amountPayable()":"34dc96c5","cancel(bytes)":"3c5beeb4","cancellationFeeBps()":"95305683","driver()":"6ecc5d62","emergencyCancel(uint256,uint256)":"9d50d134","endCoords()":"a85b8981","endLat()":"4c86570c","endLng()":"b64faff3","endTime()":"3197cbb6","escrow()":"e2fdcc17","factory()":"c45a0155","feeBps()":"24a9d853","feePaid()":"ac7c5780","fulfill(bytes)":"144f725e","initialize(address,address,address,uint256,uint24,uint24,(int256,int256),(int256,int256))":"efee55e5","isTrustedForwarder(address)":"572b6c05","payer()":"123119cd","startCoords()":"e09c95ee","startLat()":"8fbd8d3f","startLng()":"04d97a51","startTime()":"78e97925","status()":"200d2ed2","trustedForwarder()":"7da0a877"},"id":59}