{"abi":[{"type":"constructor","inputs":[],"stateMutability":"nonpayable"},{"type":"function","name":"DOMAIN_SEPARATOR","inputs":[],"outputs":[{"name":"","type":"bytes32","internalType":"bytes32"}],"stateMutability":"view"},{"type":"function","name":"allowance","inputs":[{"name":"owner","type":"address","internalType":"address"},{"name":"spender","type":"address","internalType":"address"}],"outputs":[{"name":"","type":"uint256","internalType":"uint256"}],"stateMutability":"view"},{"type":"function","name":"approve","inputs":[{"name":"spender","type":"address","internalType":"address"},{"name":"value","type":"uint256","internalType":"uint256"}],"outputs":[{"name":"","type":"bool","internalType":"bool"}],"stateMutability":"nonpayable"},{"type":"function","name":"balanceOf","inputs":[{"name":"account","type":"address","internalType":"address"}],"outputs":[{"name":"","type":"uint256","internalType":"uint256"}],"stateMutability":"view"},{"type":"function","name":"burn","inputs":[{"name":"to","type":"address","internalType":"address"},{"name":"amount","type":"uint256","internalType":"uint256"}],"outputs":[],"stateMutability":"nonpayable"},{"type":"function","name":"decimals","inputs":[],"outputs":[{"name":"","type":"uint8","internalType":"uint8"}],"stateMutability":"view"},{"type":"function","name":"eip712Domain","inputs":[],"outputs":[{"name":"fields","type":"bytes1","internalType":"bytes1"},{"name":"name","type":"string","internalType":"string"},{"name":"version","type":"string","internalType":"string"},{"name":"chainId","type":"uint256","internalType":"uint256"},{"name":"verifyingContract","type":"address","internalType":"address"},{"name":"salt","type":"bytes32","internalType":"bytes32"},{"name":"extensions","type":"uint256[]","internalType":"uint256[]"}],"stateMutability":"view"},{"type":"function","name":"mint","inputs":[{"name":"to","type":"address","internalType":"address"},{"name":"amount","type":"uint256","internalType":"uint256"}],"outputs":[],"stateMutability":"nonpayable"},{"type":"function","name":"minter","inputs":[],"outputs":[{"name":"","type":"address","internalType":"address"}],"stateMutability":"view"},{"type":"function","name":"name","inputs":[],"outputs":[{"name":"","type":"string","internalType":"string"}],"stateMutability":"view"},{"type":"function","name":"nonces","inputs":[{"name":"owner","type":"address","internalType":"address"}],"outputs":[{"name":"","type":"uint256","internalType":"uint256"}],"stateMutability":"view"},{"type":"function","name":"permit","inputs":[{"name":"owner","type":"address","internalType":"address"},{"name":"spender","type":"address","internalType":"address"},{"name":"value","type":"uint256","internalType":"uint256"},{"name":"deadline","type":"uint256","internalType":"uint256"},{"name":"v","type":"uint8","internalType":"uint8"},{"name":"r","type":"bytes32","internalType":"bytes32"},{"name":"s","type":"bytes32","internalType":"bytes32"}],"outputs":[],"stateMutability":"nonpayable"},{"type":"function","name":"setMinter","inputs":[{"name":"newMinter","type":"address","internalType":"address"}],"outputs":[],"stateMutability":"nonpayable"},{"type":"function","name":"symbol","inputs":[],"outputs":[{"name":"","type":"string","internalType":"string"}],"stateMutability":"view"},{"type":"function","name":"totalSupply","inputs":[],"outputs":[{"name":"","type":"uint256","internalType":"uint256"}],"stateMutability":"view"},{"type":"function","name":"transfer","inputs":[{"name":"to","type":"address","internalType":"address"},{"name":"value","type":"uint256","internalType":"uint256"}],"outputs":[{"name":"","type":"bool","internalType":"bool"}],"stateMutability":"nonpayable"},{"type":"function","name":"transferFrom","inputs":[{"name":"from","type":"address","internalType":"address"},{"name":"to","type":"address","internalType":"address"},{"name":"value","type":"uint256","internalType":"uint256"}],"outputs":[{"name":"","type":"bool","internalType":"bool"}],"stateMutability":"nonpayable"},{"type":"event","name":"Approval","inputs":[{"name":"owner","type":"address","indexed":true,"internalType":"address"},{"name":"spender","type":"address","indexed":true,"internalType":"address"},{"name":"value","type":"uint256","indexed":false,"internalType":"uint256"}],"anonymous":false},{"type":"event","name":"EIP712DomainChanged","inputs":[],"anonymous":false},{"type":"event","name":"Transfer","inputs":[{"name":"from","type":"address","indexed":true,"internalType":"address"},{"name":"to","type":"address","indexed":true,"internalType":"address"},{"name":"value","type":"uint256","indexed":false,"internalType":"uint256"}],"anonymous":false},{"type":"error","name":"ECDSAInvalidSignature","inputs":[]},{"type":"error","name":"ECDSAInvalidSignatureLength","inputs":[{"name":"length","type":"uint256","internalType":"uint256"}]},{"type":"error","name":"ECDSAInvalidSignatureS","inputs":[{"name":"s","type":"bytes32","internalType":"bytes32"}]},{"type":"error","name":"ERC20InsufficientAllowance","inputs":[{"name":"spender","type":"address","internalType":"address"},{"name":"allowance","type":"uint256","internalType":"uint256"},{"name":"needed","type":"uint256","internalType":"uint256"}]},{"type":"error","name":"ERC20InsufficientBalance","inputs":[{"name":"sender","type":"address","internalType":"address"},{"name":"balance","type":"uint256","internalType":"uint256"},{"name":"needed","type":"uint256","internalType":"uint256"}]},{"type":"error","name":"ERC20InvalidApprover","inputs":[{"name":"approver","type":"address","internalType":"address"}]},{"type":"error","name":"ERC20InvalidReceiver","inputs":[{"name":"receiver","type":"address","internalType":"address"}]},{"type":"error","name":"ERC20InvalidSender","inputs":[{"name":"sender","type":"address","internalType":"address"}]},{"type":"error","name":"ERC20InvalidSpender","inputs":[{"name":"spender","type":"address","internalType":"address"}]},{"type":"error","name":"ERC2612ExpiredSignature","inputs":[{"name":"deadline","type":"uint256","internalType":"uint256"}]},{"type":"error","name":"ERC2612InvalidSigner","inputs":[{"name":"signer","type":"address","internalType":"address"},{"name":"owner","type":"address","internalType":"address"}]},{"type":"error","name":"InvalidAccountNonce","inputs":[{"name":"account","type":"address","internalType":"address"},{"name":"currentNonce","type":"uint256","internalType":"uint256"}]},{"type":"error","name":"InvalidShortString","inputs":[]},{"type":"error","name":"MinterAlreadySet","inputs":[]},{"type":"error","name":"OnlyMinter","inputs":[]},{"type":"error","name":"StringTooLong","inputs":[{"name":"str","type":"string","internalType":"string"}]},{"type":"error","name":"ZeroAddressMinter","inputs":[]}],"bytecode":{"object":"0x6101606040523461042b5760405161001860408261042f565b6008815260208101672937baba309022ab60c11b81526040519061003d60408361042f565b60088252672937baba309022ab60c11b60208301526040519261006160408561042f565b6005845264524f55544160d81b60208501526040519361008260408661042f565b60018552603160f81b60208601908152845190946001600160401b03821161032e5760035490600182811c92168015610421575b60208310146103105781601f8493116103b3575b50602090601f831160011461034d575f92610342575b50508160011b915f199060031b1c1916176003555b8051906001600160401b03821161032e5760045490600182811c92168015610324575b60208310146103105781601f8493116102a2575b50602090601f831160011461023c575f92610231575b50508160011b915f199060031b1c1916176004555b61016081610452565b6101205261016d846105d9565b61014052519020918260e05251902080610100524660a0526040519060208201927f8b73c3c69bb8fe3d512ecc4cf759cc79239f7b179b0ffacaa9a75d522b39400f8452604083015260608201524660808201523060a082015260a081526101d660c08261042f565b5190206080523060c052604051610e2a9081610712823960805181610b13015260a05181610bd0015260c05181610add015260e05181610b6201526101005181610b88015261012051816104d5015261014051816104fe0152f35b015190505f80610142565b60045f9081528281209350601f198516905b81811061028a5750908460019594939210610272575b505050811b01600455610157565b01515f1960f88460031b161c191690555f8080610264565b9293602060018192878601518155019501930161024e565b60045f529091507f8a35acfbc15ff81a39ae7d344fd709f28e8600b4aa8c65c6b64bfe7fe36bd19b601f840160051c81019160208510610306575b90601f859493920160051c01905b8181106102f8575061012c565b5f81558493506001016102eb565b90915081906102dd565b634e487b7160e01b5f52602260045260245ffd5b91607f1691610118565b634e487b7160e01b5f52604160045260245ffd5b015190505f806100e0565b60035f9081528281209350601f198516905b81811061039b5750908460019594939210610383575b505050811b016003556100f5565b01515f1960f88460031b161c191690555f8080610375565b9293602060018192878601518155019501930161035f565b60035f529091507fc2575a0e9e593c00f959f8c92f12db2869c3395a3b0502d05e2516446f71f85b601f840160051c81019160208510610417575b90601f859493920160051c01905b81811061040957506100ca565b5f81558493506001016103fc565b90915081906103ee565b91607f16916100b6565b5f80fd5b601f909101601f19168101906001600160401b0382119082101761032e57604052565b908151602081105f146104cc575090601f81511161048c57602081519101516020821061047d571790565b5f198260200360031b1b161790565b604460209160405192839163305a27a960e01b83528160048401528051918291826024860152018484015e5f828201840152601f01601f19168101030190fd5b6001600160401b03811161032e57600554600181811c911680156105cf575b602082101461031057601f811161059c575b50602092601f821160011461053b57928192935f92610530575b50508160011b915f199060031b1c19161760055560ff90565b015190505f80610517565b601f1982169360055f52805f20915f5b868110610584575083600195961061056c575b505050811b0160055560ff90565b01515f1960f88460031b161c191690555f808061055e565b9192602060018192868501518155019401920161054b565b60055f52601f60205f20910160051c810190601f830160051c015b8181106105c457506104fd565b5f81556001016105b7565b90607f16906104eb565b908151602081105f14610604575090601f81511161048c57602081519101516020821061047d571790565b6001600160401b03811161032e57600654600181811c91168015610707575b602082101461031057601f81116106d4575b50602092601f821160011461067357928192935f92610668575b50508160011b915f199060031b1c19161760065560ff90565b015190505f8061064f565b601f1982169360065f52805f20915f5b8681106106bc57508360019596106106a4575b505050811b0160065560ff90565b01515f1960f88460031b161c191690555f8080610696565b91926020600181928685015181550194019201610683565b60065f52601f60205f20910160051c810190601f830160051c015b8181106106fc5750610635565b5f81556001016106ef565b90607f169061062356fe6080806040526004361015610012575f80fd5b5f3560e01c90816306fdde031461086257508063075461721461083a578063095ea7b31461081457806318160ddd146107f757806323b872dd14610718578063313ce567146106fd5780633644e515146106db57806340c10f191461062457806370a08231146105ed5780637ecebe00146105b557806384b0196e146104bd57806395d89b41146103db5780639dc29fac1461030a578063a9059cbb146102d9578063d505accf14610194578063dd62ed3e146101445763fca3b5aa146100d7575f80fd5b34610140576020366003190112610140576100f0610928565b600854906001600160a01b038216610131576001600160a01b0316908115610122576001600160a01b03191617600855005b6366055bbd60e11b5f5260045ffd5b63f119708d60e01b5f5260045ffd5b5f80fd5b346101405760403660031901126101405761015d610928565b61016561093e565b6001600160a01b039182165f908152600160209081526040808320949093168252928352819020549051908152f35b346101405760e0366003190112610140576101ad610928565b6101b561093e565b604435906064359260843560ff81168103610140578442116102c6576102896102929160018060a01b03841696875f52600760205260405f20908154916001830190556040519060208201927f6e71edae12b1b97f4d1f60370fef10105fa2faae0126114a169c64845d6126c984528a604084015260018060a01b038916606084015289608084015260a083015260c082015260c0815261025760e082610a0d565b519020610262610ada565b906040519161190160f01b83526002830152602282015260c43591604260a4359220610cf3565b90929192610d80565b6001600160a01b03168481036102af57506102ad9350610bf6565b005b84906325c0072360e11b5f5260045260245260445ffd5b8463313c898160e11b5f5260045260245ffd5b34610140576040366003190112610140576102ff6102f5610928565b6024359033610a43565b602060405160018152f35b3461014057604036600319011261014057610323610928565b60085460243591906001600160a01b031633036103cc576001600160a01b031680156103b957805f525f60205260405f20548281106103a0576020835f947fddf252ad1be2c89b69c2b068fc378daa952ba7f163c4a11628f55a4df523b3ef938587528684520360408620558060025403600255604051908152a3005b9063391434e360e21b5f5260045260245260445260645ffd5b634b637e8f60e11b5f525f60045260245ffd5b639cdc2ed560e01b5f5260045ffd5b34610140575f366003190112610140576040515f6004546103fb81610954565b8084529060018116908115610499575060011461043b575b6104378361042381850382610a0d565b604051918291602083526020830190610904565b0390f35b60045f9081527f8a35acfbc15ff81a39ae7d344fd709f28e8600b4aa8c65c6b64bfe7fe36bd19b939250905b80821061047f57509091508101602001610423610413565b919260018160209254838588010152019101909291610467565b60ff191660208086019190915291151560051b840190910191506104239050610413565b34610140575f366003190112610140576105596104f97f0000000000000000000000000000000000000000000000000000000000000000610c59565b6105227f0000000000000000000000000000000000000000000000000000000000000000610cbc565b6020610567604051926105358385610a0d565b5f84525f368137604051958695600f60f81b875260e08588015260e0870190610904565b908582036040870152610904565b4660608501523060808501525f60a085015283810360c08501528180845192838152019301915f5b82811061059e57505050500390f35b83518552869550938101939281019260010161058f565b34610140576020366003190112610140576001600160a01b036105d6610928565b165f526007602052602060405f2054604051908152f35b34610140576020366003190112610140576001600160a01b0361060e610928565b165f525f602052602060405f2054604051908152f35b346101405760403660031901126101405761063d610928565b60085460243591906001600160a01b031633036103cc576001600160a01b03169081156106c857600254908082018092116106b45760207fddf252ad1be2c89b69c2b068fc378daa952ba7f163c4a11628f55a4df523b3ef915f9360025584845283825260408420818154019055604051908152a3005b634e487b7160e01b5f52601160045260245ffd5b63ec442f0560e01b5f525f60045260245ffd5b34610140575f3660031901126101405760206106f5610ada565b604051908152f35b34610140575f36600319011261014057602060405160128152f35b3461014057606036600319011261014057610731610928565b61073961093e565b6001600160a01b0382165f818152600160209081526040808320338452909152902054909260443592915f198110610777575b506102ff9350610a43565b8381106107dc5784156107c95733156107b6576102ff945f52600160205260405f2060018060a01b0333165f526020528360405f20910390558461076c565b634a1406b160e11b5f525f60045260245ffd5b63e602df0560e01b5f525f60045260245ffd5b8390637dc7a0d960e11b5f523360045260245260445260645ffd5b34610140575f366003190112610140576020600254604051908152f35b34610140576040366003190112610140576102ff610830610928565b6024359033610bf6565b34610140575f366003190112610140576008546040516001600160a01b039091168152602090f35b34610140575f366003190112610140575f60035461087f81610954565b808452906001811690811561049957506001146108a6576104378361042381850382610a0d565b60035f9081527fc2575a0e9e593c00f959f8c92f12db2869c3395a3b0502d05e2516446f71f85b939250905b8082106108ea57509091508101602001610423610413565b9192600181602092548385880101520191019092916108d2565b805180835260209291819084018484015e5f828201840152601f01601f1916010190565b600435906001600160a01b038216820361014057565b602435906001600160a01b038216820361014057565b90600182811c92168015610982575b602083101461096e57565b634e487b7160e01b5f52602260045260245ffd5b91607f1691610963565b5f929181549161099b83610954565b80835292600181169081156109f057506001146109b757505050565b5f9081526020812093945091925b8383106109d6575060209250010190565b6001816020929493945483858701015201910191906109c5565b915050602093945060ff929192191683830152151560051b010190565b90601f8019910116810190811067ffffffffffffffff821117610a2f57604052565b634e487b7160e01b5f52604160045260245ffd5b6001600160a01b03169081156103b9576001600160a01b03169182156106c857815f525f60205260405f2054818110610ac157817fddf252ad1be2c89b69c2b068fc378daa952ba7f163c4a11628f55a4df523b3ef92602092855f525f84520360405f2055845f525f825260405f20818154019055604051908152a3565b8263391434e360e21b5f5260045260245260445260645ffd5b307f00000000000000000000000000000000000000000000000000000000000000006001600160a01b03161480610bcd575b15610b35577f000000000000000000000000000000000000000000000000000000000000000090565b60405160208101907f8b73c3c69bb8fe3d512ecc4cf759cc79239f7b179b0ffacaa9a75d522b39400f82527f000000000000000000000000000000000000000000000000000000000000000060408201527f000000000000000000000000000000000000000000000000000000000000000060608201524660808201523060a082015260a08152610bc760c082610a0d565b51902090565b507f00000000000000000000000000000000000000000000000000000000000000004614610b0c565b6001600160a01b03169081156107c9576001600160a01b03169182156107b65760207f8c5be1e5ebec7d5bd14f71427d1e84f3dd0314c0f7b2291e5b200ac8c7c3b92591835f526001825260405f20855f5282528060405f2055604051908152a3565b60ff8114610c9f5760ff811690601f8211610c905760405191610c7d604084610a0d565b6020808452838101919036833783525290565b632cd44ac360e21b5f5260045ffd5b50604051610cb981610cb281600561098c565b0382610a0d565b90565b60ff8114610ce05760ff811690601f8211610c905760405191610c7d604084610a0d565b50604051610cb981610cb281600661098c565b91907f7fffffffffffffffffffffffffffffff5d576e7357a4501ddfe92f46681b20a08411610d75579160209360809260ff5f9560405194855216868401526040830152606082015282805260015afa15610d6a575f516001600160a01b03811615610d6057905f905f90565b505f906001905f90565b6040513d5f823e3d90fd5b5050505f9160039190565b6004811015610de05780610d92575050565b60018103610da95763f645eedf60e01b5f5260045ffd5b60028103610dc4575063fce698f760e01b5f5260045260245ffd5b600314610dce5750565b6335e2f38360e21b5f5260045260245ffd5b634e487b7160e01b5f52602160045260245ffdfea2646970667358221220d8f00d07b40914524fa42a969f240d5c1832c2f12e57aa8391816e49dcf4770e64736f6c634300081c0033","linkReferences":{}},"methodIdentifiers":{"DOMAIN_SEPARATOR()":"3644e515","allowance(address,address)":"dd62ed3e","approve(address,uint256)":"095ea7b3","balanceOf(address)":"70a08231","burn(address,uint256)":"9dc29fac","decimals()":"313ce567","eip712Domain()":"84b0196e","mint(address,uint256)":"40c10f19","minter()":"07546172","name()":"06fdde03","nonces(address)":"7ecebe00","permit(address,address,uint256,uint256,uint8,bytes32,bytes32)":"d505accf","setMinter(address)":"fca3b5aa","symbol()":"95d89b41","totalSupply()":"18160ddd","transfer(address,uint256)":"a9059cbb","transferFrom(address,address,uint256)":"23b872dd"},"id":31}